{
  "contractName": "AccessControl",
  "abi": [
    {
      "inputs": [],
      "stateMutability": "nonpayable",
      "type": "constructor"
    },
    {
      "inputs": [],
      "name": "patientInfo_address",
      "outputs": [
        {
          "internalType": "address",
          "name": "",
          "type": "address"
        }
      ],
      "stateMutability": "view",
      "type": "function"
    },
    {
      "inputs": [],
      "name": "patient_",
      "outputs": [
        {
          "internalType": "contract PatientInfo",
          "name": "",
          "type": "address"
        }
      ],
      "stateMutability": "view",
      "type": "function"
    },
    {
      "inputs": [],
      "name": "pracInfo_address",
      "outputs": [
        {
          "internalType": "address",
          "name": "",
          "type": "address"
        }
      ],
      "stateMutability": "view",
      "type": "function"
    },
    {
      "inputs": [],
      "name": "prac_",
      "outputs": [
        {
          "internalType": "contract Prac_Info",
          "name": "",
          "type": "address"
        }
      ],
      "stateMutability": "view",
      "type": "function"
    },
    {
      "inputs": [
        {
          "internalType": "address",
          "name": "patient",
          "type": "address"
        },
        {
          "internalType": "address",
          "name": "practitioner",
          "type": "address"
        }
      ],
      "name": "grantAccess",
      "outputs": [],
      "stateMutability": "nonpayable",
      "type": "function"
    },
    {
      "inputs": [
        {
          "internalType": "address",
          "name": "patient",
          "type": "address"
        },
        {
          "internalType": "address",
          "name": "practitioner",
          "type": "address"
        }
      ],
      "name": "revokeAccess",
      "outputs": [],
      "stateMutability": "nonpayable",
      "type": "function"
    },
    {
      "inputs": [
        {
          "internalType": "address",
          "name": "patient",
          "type": "address"
        },
        {
          "internalType": "address",
          "name": "practitioner",
          "type": "address"
        }
      ],
      "name": "checkAccess",
      "outputs": [
        {
          "internalType": "bool",
          "name": "",
          "type": "bool"
        }
      ],
      "stateMutability": "view",
      "type": "function"
    }
  ],
  "bytecode": "0x608060405234801561001057600080fd5b50336000806101000a81548173ffffffffffffffffffffffffffffffffffffffff021916908373ffffffffffffffffffffffffffffffffffffffff160217905550600360009054906101000a900473ffffffffffffffffffffffffffffffffffffffff16600160006101000a81548173ffffffffffffffffffffffffffffffffffffffff021916908373ffffffffffffffffffffffffffffffffffffffff160217905550600460009054906101000a900473ffffffffffffffffffffffffffffffffffffffff16600260006101000a81548173ffffffffffffffffffffffffffffffffffffffff021916908373ffffffffffffffffffffffffffffffffffffffff160217905550610730806101266000396000f3fe608060405234801561001057600080fd5b506004361061007d5760003560e01c80635f6ea3401161005b5780635f6ea340146100dc57806362e1f745146100f8578063c256ae4114610128578063c6a09d95146101465761007d565b80631bdd2a5f14610082578063241417e5146100a057806352ab4077146100be575b600080fd5b61008a610162565b6040516100979190610567565b60405180910390f35b6100a8610188565b6040516100b591906105a3565b60405180910390f35b6100c66101ae565b6040516100d391906105df565b60405180910390f35b6100f660048036038101906100f1919061062b565b6101d4565b005b610112600480360381019061010d919061062b565b61026d565b60405161011f9190610686565b60405180910390f35b610130610301565b60405161013d91906105a3565b60405180910390f35b610160600480360381019061015b919061062b565b610327565b005b600160009054906101000a900473ffffffffffffffffffffffffffffffffffffffff1681565b600460009054906101000a900473ffffffffffffffffffffffffffffffffffffffff1681565b600260009054906101000a900473ffffffffffffffffffffffffffffffffffffffff1681565b6000600560008473ffffffffffffffffffffffffffffffffffffffff1673ffffffffffffffffffffffffffffffffffffffff16815260200190815260200160002060008373ffffffffffffffffffffffffffffffffffffffff1673ffffffffffffffffffffffffffffffffffffffff16815260200190815260200160002060006101000a81548160ff0219169083151502179055505050565b6000600560008473ffffffffffffffffffffffffffffffffffffffff1673ffffffffffffffffffffffffffffffffffffffff16815260200190815260200160002060008373ffffffffffffffffffffffffffffffffffffffff1673ffffffffffffffffffffffffffffffffffffffff16815260200190815260200160002060009054906101000a900460ff16905092915050565b600360009054906101000a900473ffffffffffffffffffffffffffffffffffffffff1681565b6001600560008473ffffffffffffffffffffffffffffffffffffffff1673ffffffffffffffffffffffffffffffffffffffff16815260200190815260200160002060008373ffffffffffffffffffffffffffffffffffffffff1673ffffffffffffffffffffffffffffffffffffffff16815260200190815260200160002060006101000a81548160ff021916908315150217905550600160009054906101000a900473ffffffffffffffffffffffffffffffffffffffff1673ffffffffffffffffffffffffffffffffffffffff16633c1429ed600560008573ffffffffffffffffffffffffffffffffffffffff1673ffffffffffffffffffffffffffffffffffffffff16815260200190815260200160002060008473ffffffffffffffffffffffffffffffffffffffff1673ffffffffffffffffffffffffffffffffffffffff16815260200190815260200160002060009054906101000a900460ff166040518263ffffffff1660e01b81526004016104a09190610686565b6020604051808303816000875af11580156104bf573d6000803e3d6000fd5b505050506040513d601f19601f820116820180604052508101906104e391906106cd565b505050565b600073ffffffffffffffffffffffffffffffffffffffff82169050919050565b6000819050919050565b600061052d610528610523846104e8565b610508565b6104e8565b9050919050565b600061053f82610512565b9050919050565b600061055182610534565b9050919050565b61056181610546565b82525050565b600060208201905061057c6000830184610558565b92915050565b600061058d826104e8565b9050919050565b61059d81610582565b82525050565b60006020820190506105b86000830184610594565b92915050565b60006105c982610534565b9050919050565b6105d9816105be565b82525050565b60006020820190506105f460008301846105d0565b92915050565b600080fd5b61060881610582565b811461061357600080fd5b50565b600081359050610625816105ff565b92915050565b60008060408385031215610642576106416105fa565b5b600061065085828601610616565b925050602061066185828601610616565b9150509250929050565b60008115159050919050565b6106808161066b565b82525050565b600060208201905061069b6000830184610677565b92915050565b6106aa8161066b565b81146106b557600080fd5b50565b6000815190506106c7816106a1565b92915050565b6000602082840312156106e3576106e26105fa565b5b60006106f1848285016106b8565b9150509291505056fea2646970667358221220e77b9c4e2771f8cb087c3ae4254e706c8f4c581d3d0d84db4092ed0437fdd50464736f6c63430008110033",
  "immutableReferences": {},
  "source": "// SPDX-License-Identifier: MIT\r\npragma solidity 0.8.17;\r\nimport \"./PatientInfo.sol\";\r\nimport \"./PractitionerInfo.sol\";\r\n\r\ncontract Assign {\r\n    address private owner;\r\n    PatientInfo public patient_;\r\n    Prac_Info public prac_;\r\n    address public patientInfo_address;\r\n    address public pracInfo_address;\r\n    struct LinkInfo {\r\n        address practitioner;\r\n        address patient;\r\n        bool approved_by_pat;\r\n        bool revoked_by_prac;\r\n    }\r\n    mapping(bytes32 => LinkInfo) public links;\r\n\r\n    constructor() {\r\n        patient_ = PatientInfo(patientInfo_address);\r\n        prac_ = Prac_Info(pracInfo_address);\r\n    }\r\n\r\n}\r\n\r\ncontract AccessControl {\r\n    address private owner;\r\n    PatientInfo public patient_;\r\n    Prac_Info public prac_;\r\n    address public patientInfo_address;\r\n    address public pracInfo_address;\r\n    mapping(address => mapping(address => bool)) private access;\r\n\r\n    modifier onlyOwner() {\r\n        require(\r\n            msg.sender == owner,\r\n            \"Only contract owner can perform this action.\"\r\n        );\r\n        _;\r\n    }\r\n\r\n    constructor() {\r\n        owner = msg.sender;\r\n        patient_ = PatientInfo(patientInfo_address);\r\n        prac_ = Prac_Info(pracInfo_address);\r\n    }\r\n\r\n    function grantAccess(address patient, address practitioner) public {\r\n        access[patient][practitioner] = true;\r\n        patient_.Medical_Records(access[patient][practitioner]);\r\n    }\r\n\r\n    function revokeAccess(address patient, address practitioner) public {\r\n        access[patient][practitioner] = false;\r\n    }\r\n\r\n    function checkAccess(\r\n        address patient,\r\n        address practitioner\r\n    ) public view returns (bool) {\r\n        return access[patient][practitioner];\r\n    }\r\n}\r\n",
  "sourcePath": "C:\\Users\\ajsty\\OneDrive\\Desktop\\VS_Code\\HealthCareDataManagement\\contracts\\Assign.sol",
  "compiler": {
    "name": "solc",
    "version": "0.8.17+commit.8df45f5f.Emscripten.clang"
  },
  "schemaVersion": "3.4.11",
  "updatedAt": "2023-03-31T10:54:16.235Z",
  "devdoc": {
    "kind": "dev",
    "methods": {},
    "version": 1
  },
  "userdoc": {
    "kind": "user",
    "methods": {},
    "version": 1
  }
}