{
  "contractName": "Assign",
  "abi": [
    {
      "inputs": [],
      "name": "patient_",
      "outputs": [
        {
          "internalType": "contract PatientInfo",
          "name": "",
          "type": "address"
        }
      ],
      "stateMutability": "view",
      "type": "function",
      "constant": true
    },
    {
      "inputs": [],
      "name": "prac_",
      "outputs": [
        {
          "internalType": "contract Prac_Info",
          "name": "",
          "type": "address"
        }
      ],
      "stateMutability": "view",
      "type": "function",
      "constant": true
    },
    {
      "inputs": [
        {
          "internalType": "address",
          "name": "patientInfo_address",
          "type": "address"
        },
        {
          "internalType": "address",
          "name": "pracInfo_address",
          "type": "address"
        }
      ],
      "name": "newcontract",
      "outputs": [],
      "stateMutability": "nonpayable",
      "type": "function"
    },
    {
      "inputs": [
        {
          "internalType": "address",
          "name": "patient",
          "type": "address"
        },
        {
          "internalType": "address",
          "name": "practitioner",
          "type": "address"
        }
      ],
      "name": "grantAccess",
      "outputs": [],
      "stateMutability": "nonpayable",
      "type": "function"
    },
    {
      "inputs": [
        {
          "internalType": "address",
          "name": "patient",
          "type": "address"
        },
        {
          "internalType": "address",
          "name": "practitioner",
          "type": "address"
        }
      ],
      "name": "revokeAccess",
      "outputs": [],
      "stateMutability": "nonpayable",
      "type": "function"
    },
    {
      "inputs": [
        {
          "internalType": "address",
          "name": "patient",
          "type": "address"
        },
        {
          "internalType": "address",
          "name": "practitioner",
          "type": "address"
        }
      ],
      "name": "checkAccess",
      "outputs": [
        {
          "internalType": "bool",
          "name": "",
          "type": "bool"
        }
      ],
      "stateMutability": "view",
      "type": "function",
      "constant": true
    }
  ],
  "bytecode": "0x608060405234801561001057600080fd5b50610714806100206000396000f3fe608060405234801561001057600080fd5b50600436106100625760003560e01c80631bdd2a5f1461006757806352ab4077146100855780635f6ea340146100a357806362e1f745146100bf5780637d37a05d146100ef578063c6a09d951461010b575b600080fd5b61006f610127565b60405161007c9190610596565b60405180910390f35b61008d61014d565b60405161009a91906105d2565b60405180910390f35b6100bd60048036038101906100b89190610630565b610173565b005b6100d960048036038101906100d49190610630565b61020c565b6040516100e6919061068b565b60405180910390f35b61010960048036038101906101049190610630565b6102a0565b005b61012560048036038101906101209190610630565b610366565b005b600160009054906101000a900473ffffffffffffffffffffffffffffffffffffffff1681565b600260009054906101000a900473ffffffffffffffffffffffffffffffffffffffff1681565b6000600360008473ffffffffffffffffffffffffffffffffffffffff1673ffffffffffffffffffffffffffffffffffffffff16815260200190815260200160002060008373ffffffffffffffffffffffffffffffffffffffff1673ffffffffffffffffffffffffffffffffffffffff16815260200190815260200160002060006101000a81548160ff0219169083151502179055505050565b6000600360008473ffffffffffffffffffffffffffffffffffffffff1673ffffffffffffffffffffffffffffffffffffffff16815260200190815260200160002060008373ffffffffffffffffffffffffffffffffffffffff1673ffffffffffffffffffffffffffffffffffffffff16815260200190815260200160002060009054906101000a900460ff16905092915050565b336000806101000a81548173ffffffffffffffffffffffffffffffffffffffff021916908373ffffffffffffffffffffffffffffffffffffffff16021790555081600160006101000a81548173ffffffffffffffffffffffffffffffffffffffff021916908373ffffffffffffffffffffffffffffffffffffffff16021790555080600260006101000a81548173ffffffffffffffffffffffffffffffffffffffff021916908373ffffffffffffffffffffffffffffffffffffffff1602179055505050565b6001600360008473ffffffffffffffffffffffffffffffffffffffff1673ffffffffffffffffffffffffffffffffffffffff16815260200190815260200160002060008373ffffffffffffffffffffffffffffffffffffffff1673ffffffffffffffffffffffffffffffffffffffff16815260200190815260200160002060006101000a81548160ff021916908315150217905550600160009054906101000a900473ffffffffffffffffffffffffffffffffffffffff1673ffffffffffffffffffffffffffffffffffffffff16637bd80263600360008573ffffffffffffffffffffffffffffffffffffffff1673ffffffffffffffffffffffffffffffffffffffff16815260200190815260200160002060008473ffffffffffffffffffffffffffffffffffffffff1673ffffffffffffffffffffffffffffffffffffffff16815260200190815260200160002060009054906101000a900460ff16846040518363ffffffff1660e01b81526004016104e19291906106b5565b600060405180830381600087803b1580156104fb57600080fd5b505af115801561050f573d6000803e3d6000fd5b505050505050565b600073ffffffffffffffffffffffffffffffffffffffff82169050919050565b6000819050919050565b600061055c61055761055284610517565b610537565b610517565b9050919050565b600061056e82610541565b9050919050565b600061058082610563565b9050919050565b61059081610575565b82525050565b60006020820190506105ab6000830184610587565b92915050565b60006105bc82610563565b9050919050565b6105cc816105b1565b82525050565b60006020820190506105e760008301846105c3565b92915050565b600080fd5b60006105fd82610517565b9050919050565b61060d816105f2565b811461061857600080fd5b50565b60008135905061062a81610604565b92915050565b60008060408385031215610647576106466105ed565b5b60006106558582860161061b565b92505060206106668582860161061b565b9150509250929050565b60008115159050919050565b61068581610670565b82525050565b60006020820190506106a0600083018461067c565b92915050565b6106af816105f2565b82525050565b60006040820190506106ca600083018561067c565b6106d760208301846106a6565b939250505056fea2646970667358221220829f1573adc70c39a08f42b07d136385df830f92183d6e6b0701079aece1b5a664736f6c63430008110033",
  "immutableReferences": {},
  "source": "// SPDX-License-Identifier: MIT\r\npragma solidity 0.8.17;\r\nimport \"./PatientInfo.sol\";\r\nimport \"./PractitionerInfo.sol\";\r\n\r\ncontract Assign {\r\n    address private owner;\r\n    PatientInfo public patient_;\r\n    Prac_Info public prac_;\r\n    mapping(address => mapping(address => bool)) private access;\r\n\r\n    modifier onlyOwner() {\r\n        require(\r\n            msg.sender == owner,\r\n            \"Only contract owner can perform this action.\"\r\n        );\r\n        _;\r\n    }\r\n\r\n    function newcontract(address patientInfo_address,address pracInfo_address) public {\r\n        owner = msg.sender;\r\n        patient_ = PatientInfo(patientInfo_address);\r\n        prac_ = Prac_Info(pracInfo_address);\r\n    }\r\n\r\n    function grantAccess(address patient, address practitioner) public {\r\n        access[patient][practitioner] = true;\r\n        patient_.Medical_Records(access[patient][practitioner], patient);\r\n    }\r\n\r\n    function revokeAccess(address patient, address practitioner) public {\r\n        access[patient][practitioner] = false;\r\n    }\r\n    \r\n    function checkAccess(\r\n        address patient,\r\n        address practitioner\r\n    ) public view returns (bool) {\r\n        return access[patient][practitioner];\r\n    }\r\n}\r\n",
  "sourcePath": "C:\\Users\\ajsty\\OneDrive\\Desktop\\VS_Code\\HealthCareDataManagement\\contracts\\Assign.sol",
  "compiler": {
    "name": "solc",
    "version": "0.8.17+commit.8df45f5f.Emscripten.clang"
  },
  "schemaVersion": "3.4.11",
  "updatedAt": "2023-04-01T10:43:21.405Z",
  "networkType": "ethereum",
  "devdoc": {
    "kind": "dev",
    "methods": {},
    "version": 1
  },
  "userdoc": {
    "kind": "user",
    "methods": {},
    "version": 1
  }
}