{
  "contractName": "Assign",
  "abi": [
    {
      "inputs": [],
      "name": "patient_",
      "outputs": [
        {
          "internalType": "contract PatientInfo",
          "name": "",
          "type": "address"
        }
      ],
      "stateMutability": "view",
      "type": "function",
      "constant": true
    },
    {
      "inputs": [],
      "name": "prac_",
      "outputs": [
        {
          "internalType": "contract Prac_Info",
          "name": "",
          "type": "address"
        }
      ],
      "stateMutability": "view",
      "type": "function",
      "constant": true
    },
    {
      "inputs": [
        {
          "internalType": "address",
          "name": "patientInfo_address",
          "type": "address"
        },
        {
          "internalType": "address",
          "name": "pracInfo_address",
          "type": "address"
        }
      ],
      "name": "newcontract",
      "outputs": [],
      "stateMutability": "nonpayable",
      "type": "function"
    },
    {
      "inputs": [
        {
          "internalType": "address",
          "name": "patient",
          "type": "address"
        },
        {
          "internalType": "address",
          "name": "practitioner",
          "type": "address"
        }
      ],
      "name": "grantAccess",
      "outputs": [],
      "stateMutability": "nonpayable",
      "type": "function"
    },
    {
      "inputs": [
        {
          "internalType": "address",
          "name": "patient",
          "type": "address"
        },
        {
          "internalType": "address",
          "name": "practitioner",
          "type": "address"
        }
      ],
      "name": "revokeAccess",
      "outputs": [],
      "stateMutability": "nonpayable",
      "type": "function"
    },
    {
      "inputs": [
        {
          "internalType": "address",
          "name": "patient",
          "type": "address"
        },
        {
          "internalType": "address",
          "name": "practitioner",
          "type": "address"
        }
      ],
      "name": "checkAccess",
      "outputs": [
        {
          "internalType": "bool",
          "name": "",
          "type": "bool"
        }
      ],
      "stateMutability": "view",
      "type": "function",
      "constant": true
    }
  ],
  "bytecode": "0x608060405234801561001057600080fd5b506105c4806100206000396000f3fe608060405234801561001057600080fd5b50600436106100625760003560e01c80631bdd2a5f1461006757806352ab4077146100855780635f6ea340146100a357806362e1f745146100bf5780637d37a05d146100ef578063c6a09d951461010b575b600080fd5b61006f610127565b60405161007c919061047e565b60405180910390f35b61008d61014d565b60405161009a91906104ba565b60405180910390f35b6100bd60048036038101906100b89190610518565b610173565b005b6100d960048036038101906100d49190610518565b61020c565b6040516100e69190610573565b60405180910390f35b61010960048036038101906101049190610518565b6102a0565b005b61012560048036038101906101209190610518565b610366565b005b600160009054906101000a900473ffffffffffffffffffffffffffffffffffffffff1681565b600260009054906101000a900473ffffffffffffffffffffffffffffffffffffffff1681565b6000600360008473ffffffffffffffffffffffffffffffffffffffff1673ffffffffffffffffffffffffffffffffffffffff16815260200190815260200160002060008373ffffffffffffffffffffffffffffffffffffffff1673ffffffffffffffffffffffffffffffffffffffff16815260200190815260200160002060006101000a81548160ff0219169083151502179055505050565b6000600360008473ffffffffffffffffffffffffffffffffffffffff1673ffffffffffffffffffffffffffffffffffffffff16815260200190815260200160002060008373ffffffffffffffffffffffffffffffffffffffff1673ffffffffffffffffffffffffffffffffffffffff16815260200190815260200160002060009054906101000a900460ff16905092915050565b336000806101000a81548173ffffffffffffffffffffffffffffffffffffffff021916908373ffffffffffffffffffffffffffffffffffffffff16021790555081600160006101000a81548173ffffffffffffffffffffffffffffffffffffffff021916908373ffffffffffffffffffffffffffffffffffffffff16021790555080600260006101000a81548173ffffffffffffffffffffffffffffffffffffffff021916908373ffffffffffffffffffffffffffffffffffffffff1602179055505050565b6001600360008473ffffffffffffffffffffffffffffffffffffffff1673ffffffffffffffffffffffffffffffffffffffff16815260200190815260200160002060008373ffffffffffffffffffffffffffffffffffffffff1673ffffffffffffffffffffffffffffffffffffffff16815260200190815260200160002060006101000a81548160ff0219169083151502179055505050565b600073ffffffffffffffffffffffffffffffffffffffff82169050919050565b6000819050919050565b600061044461043f61043a846103ff565b61041f565b6103ff565b9050919050565b600061045682610429565b9050919050565b60006104688261044b565b9050919050565b6104788161045d565b82525050565b6000602082019050610493600083018461046f565b92915050565b60006104a48261044b565b9050919050565b6104b481610499565b82525050565b60006020820190506104cf60008301846104ab565b92915050565b600080fd5b60006104e5826103ff565b9050919050565b6104f5816104da565b811461050057600080fd5b50565b600081359050610512816104ec565b92915050565b6000806040838503121561052f5761052e6104d5565b5b600061053d85828601610503565b925050602061054e85828601610503565b9150509250929050565b60008115159050919050565b61056d81610558565b82525050565b60006020820190506105886000830184610564565b9291505056fea2646970667358221220ec25fb9f6535472e4016ec5187da43c9c1508d4d1f4a02566205205f1b60752a64736f6c63430008110033",
  "immutableReferences": {},
  "source": "// SPDX-License-Identifier: MIT\r\npragma solidity 0.8.17;\r\nimport \"./Patient_Info.sol\";\r\nimport \"./PractitionerInfo.sol\";\r\n\r\ncontract Assign {\r\n    address private owner;\r\n    PatientInfo public patient_;\r\n    Prac_Info public prac_;\r\n    mapping(address => mapping(address => bool)) private access;\r\n\r\n    modifier onlyOwner() {\r\n        require(\r\n            msg.sender == owner,\r\n            \"Only contract owner can perform this action.\"\r\n        );\r\n        _;\r\n    }\r\n\r\n    function newcontract(address patientInfo_address,address pracInfo_address) public {\r\n        owner = msg.sender;\r\n        patient_ = PatientInfo(patientInfo_address);\r\n        prac_ = Prac_Info(pracInfo_address);\r\n    }\r\n\r\n    function grantAccess(address patient, address practitioner) public {\r\n        access[patient][practitioner] = true;\r\n    }\r\n\r\n    function revokeAccess(address patient, address practitioner) public {\r\n        access[patient][practitioner] = false;\r\n    }\r\n    \r\n    function checkAccess(\r\n        address patient,\r\n        address practitioner\r\n    ) public view returns (bool) {\r\n        return access[patient][practitioner];\r\n    }\r\n}\r\n",
  "sourcePath": "C:\\Users\\ajsty\\OneDrive\\Desktop\\VS_Code\\Hoscryp\\contracts\\Assign.sol",
  "compiler": {
    "name": "solc",
    "version": "0.8.17+commit.8df45f5f.Emscripten.clang"
  },
  "schemaVersion": "3.4.11",
  "updatedAt": "2023-04-04T07:46:58.384Z",
  "networkType": "ethereum",
  "devdoc": {
    "kind": "dev",
    "methods": {},
    "version": 1
  },
  "userdoc": {
    "kind": "user",
    "methods": {},
    "version": 1
  }
}