{
  "contractName": "HealthCareDataManagement",
  "abi": [
    {
      "inputs": [],
      "stateMutability": "nonpayable",
      "type": "constructor"
    },
    {
      "anonymous": false,
      "inputs": [
        {
          "indexed": true,
          "internalType": "address",
          "name": "patientAddress",
          "type": "address"
        },
        {
          "indexed": false,
          "internalType": "string",
          "name": "name",
          "type": "string"
        },
        {
          "indexed": false,
          "internalType": "uint256",
          "name": "age",
          "type": "uint256"
        },
        {
          "indexed": false,
          "internalType": "string",
          "name": "ailment",
          "type": "string"
        },
        {
          "indexed": false,
          "internalType": "bool",
          "name": "isHospitalized",
          "type": "bool"
        },
        {
          "indexed": false,
          "internalType": "string[]",
          "name": "record",
          "type": "string[]"
        }
      ],
      "name": "PatientRecordCreated",
      "type": "event"
    },
    {
      "anonymous": false,
      "inputs": [
        {
          "indexed": true,
          "internalType": "address",
          "name": "patientAddress",
          "type": "address"
        },
        {
          "indexed": false,
          "internalType": "string",
          "name": "name",
          "type": "string"
        },
        {
          "indexed": false,
          "internalType": "uint256",
          "name": "age",
          "type": "uint256"
        },
        {
          "indexed": false,
          "internalType": "string",
          "name": "ailment",
          "type": "string"
        },
        {
          "indexed": false,
          "internalType": "bool",
          "name": "isHospitalized",
          "type": "bool"
        },
        {
          "indexed": false,
          "internalType": "string[]",
          "name": "record",
          "type": "string[]"
        }
      ],
      "name": "PatientRecordUpdated",
      "type": "event"
    },
    {
      "anonymous": false,
      "inputs": [
        {
          "indexed": true,
          "internalType": "address",
          "name": "patientAddress",
          "type": "address"
        },
        {
          "indexed": true,
          "internalType": "address",
          "name": "personnelAddress",
          "type": "address"
        }
      ],
      "name": "PersonnelAuthorizationRevoked",
      "type": "event"
    },
    {
      "anonymous": false,
      "inputs": [
        {
          "indexed": true,
          "internalType": "address",
          "name": "patientAddress",
          "type": "address"
        },
        {
          "indexed": true,
          "internalType": "address",
          "name": "personnelAddress",
          "type": "address"
        }
      ],
      "name": "PersonnelAuthorized",
      "type": "event"
    },
    {
      "inputs": [
        {
          "internalType": "string",
          "name": "name",
          "type": "string"
        },
        {
          "internalType": "uint256",
          "name": "age",
          "type": "uint256"
        },
        {
          "internalType": "string",
          "name": "ailment",
          "type": "string"
        },
        {
          "internalType": "bool",
          "name": "isHospitalized",
          "type": "bool"
        },
        {
          "internalType": "string[]",
          "name": "record",
          "type": "string[]"
        }
      ],
      "name": "createPatientRecord",
      "outputs": [],
      "stateMutability": "nonpayable",
      "type": "function"
    },
    {
      "inputs": [
        {
          "internalType": "address",
          "name": "patientAddress",
          "type": "address"
        }
      ],
      "name": "getPatientRecord",
      "outputs": [
        {
          "internalType": "string",
          "name": "",
          "type": "string"
        },
        {
          "internalType": "uint256",
          "name": "",
          "type": "uint256"
        },
        {
          "internalType": "string",
          "name": "",
          "type": "string"
        },
        {
          "internalType": "bool",
          "name": "",
          "type": "bool"
        },
        {
          "internalType": "string[]",
          "name": "",
          "type": "string[]"
        },
        {
          "internalType": "address[]",
          "name": "",
          "type": "address[]"
        }
      ],
      "stateMutability": "view",
      "type": "function"
    },
    {
      "inputs": [
        {
          "internalType": "string",
          "name": "parameter",
          "type": "string"
        }
      ],
      "name": "hashPDF",
      "outputs": [
        {
          "internalType": "string",
          "name": "",
          "type": "string"
        }
      ],
      "stateMutability": "nonpayable",
      "type": "function"
    },
    {
      "inputs": [
        {
          "internalType": "string",
          "name": "parameter",
          "type": "string"
        },
        {
          "internalType": "string",
          "name": "name",
          "type": "string"
        },
        {
          "internalType": "uint256",
          "name": "age",
          "type": "uint256"
        },
        {
          "internalType": "string",
          "name": "ailment",
          "type": "string"
        },
        {
          "internalType": "bool",
          "name": "isHospitalized",
          "type": "bool"
        }
      ],
      "name": "executePythonFunction",
      "outputs": [],
      "stateMutability": "nonpayable",
      "type": "function"
    },
    {
      "inputs": [
        {
          "internalType": "string",
          "name": "hashvalue",
          "type": "string"
        }
      ],
      "name": "appendRecord",
      "outputs": [],
      "stateMutability": "nonpayable",
      "type": "function"
    },
    {
      "inputs": [
        {
          "internalType": "string",
          "name": "str",
          "type": "string"
        }
      ],
      "name": "stringToBytes32",
      "outputs": [
        {
          "internalType": "bytes32",
          "name": "result",
          "type": "bytes32"
        }
      ],
      "stateMutability": "pure",
      "type": "function"
    },
    {
      "inputs": [
        {
          "internalType": "string",
          "name": "name",
          "type": "string"
        },
        {
          "internalType": "uint256",
          "name": "age",
          "type": "uint256"
        },
        {
          "internalType": "string",
          "name": "ailment",
          "type": "string"
        },
        {
          "internalType": "bool",
          "name": "isHospitalized",
          "type": "bool"
        },
        {
          "internalType": "string",
          "name": "hashvalue",
          "type": "string"
        }
      ],
      "name": "updatePatientRecord",
      "outputs": [],
      "stateMutability": "nonpayable",
      "type": "function"
    },
    {
      "inputs": [
        {
          "internalType": "address",
          "name": "personnelAddress",
          "type": "address"
        }
      ],
      "name": "authorizePersonnel",
      "outputs": [],
      "stateMutability": "nonpayable",
      "type": "function"
    },
    {
      "inputs": [
        {
          "internalType": "address",
          "name": "personnelAddress",
          "type": "address"
        }
      ],
      "name": "revokeAuthorization",
      "outputs": [],
      "stateMutability": "nonpayable",
      "type": "function"
    }
  ],
  "bytecode": "0x608060405234801561001057600080fd5b50336000806101000a81548173ffffffffffffffffffffffffffffffffffffffff021916908373ffffffffffffffffffffffffffffffffffffffff160217905550612904806100606000396000f3fe608060405234801561001057600080fd5b50600436106100935760003560e01c8063a1ca761211610066578063a1ca761214610121578063b48028e31461013d578063cfb5192814610159578063e34d73a614610189578063e91c0b30146101a557610093565b80630124c1fd1461009857806318607174146100b45780635cad500d146100e957806372d92b2614610105575b600080fd5b6100b260048036038101906100ad9190611934565b6101d5565b005b6100ce60048036038101906100c99190611a61565b61032f565b6040516100e096959493929190611cf5565b60405180910390f35b61010360048036038101906100fe9190611e58565b610870565b005b61011f600480360381019061011a9190611f27565b610a7e565b005b61013b60048036038101906101369190611a61565b610cc5565b005b61015760048036038101906101529190611a61565b611009565b005b610173600480360381019061016e9190611f27565b611469565b6040516101809190611f89565b60405180910390f35b6101a3600480360381019061019e9190611fa4565b61147c565b005b6101bf60048036038101906101ba9190611f27565b6114b5565b6040516101cc9190612073565b60405180910390f35b6000600260003373ffffffffffffffffffffffffffffffffffffffff1673ffffffffffffffffffffffffffffffffffffffff168152602001908152602001600020600101540361025a576040517f08c379a0000000000000000000000000000000000000000000000000000000008152600401610251906120e1565b60405180910390fd5b6060600260003373ffffffffffffffffffffffffffffffffffffffff1673ffffffffffffffffffffffffffffffffffffffff168152602001908152602001600020600401829080600181540180825580915050600190039060005260206000200160009091909190915090816102d0919061230d565b503373ffffffffffffffffffffffffffffffffffffffff167f67f6de92998e42a893003adea2e8df2d7034dc62bf087e73cf9563d4d5fb9e4c878787878660405161031f9594939291906123df565b60405180910390a2505050505050565b606060006060600060608060008054906101000a900473ffffffffffffffffffffffffffffffffffffffff1673ffffffffffffffffffffffffffffffffffffffff163373ffffffffffffffffffffffffffffffffffffffff16146103c8576040517f08c379a00000000000000000000000000000000000000000000000000000000081526004016103bf906124b9565b60405180910390fd5b6000600260008973ffffffffffffffffffffffffffffffffffffffff1673ffffffffffffffffffffffffffffffffffffffff168152602001908152602001600020600101540361044d576040517f08c379a0000000000000000000000000000000000000000000000000000000008152600401610444906120e1565b60405180910390fd5b600260008873ffffffffffffffffffffffffffffffffffffffff1673ffffffffffffffffffffffffffffffffffffffff168152602001908152602001600020600001600260008973ffffffffffffffffffffffffffffffffffffffff1673ffffffffffffffffffffffffffffffffffffffff16815260200190815260200160002060010154600260008a73ffffffffffffffffffffffffffffffffffffffff1673ffffffffffffffffffffffffffffffffffffffff168152602001908152602001600020600201600260008b73ffffffffffffffffffffffffffffffffffffffff1673ffffffffffffffffffffffffffffffffffffffff16815260200190815260200160002060030160009054906101000a900460ff16600260008c73ffffffffffffffffffffffffffffffffffffffff1673ffffffffffffffffffffffffffffffffffffffff168152602001908152602001600020600401600260008d73ffffffffffffffffffffffffffffffffffffffff1673ffffffffffffffffffffffffffffffffffffffff1681526020019081526020016000206005018580546105f490612130565b80601f016020809104026020016040519081016040528092919081815260200182805461062090612130565b801561066d5780601f106106425761010080835404028352916020019161066d565b820191906000526020600020905b81548152906001019060200180831161065057829003601f168201915b5050505050955083805461068090612130565b80601f01602080910402602001604051908101604052809291908181526020018280546106ac90612130565b80156106f95780601f106106ce576101008083540402835291602001916106f9565b820191906000526020600020905b8154815290600101906020018083116106dc57829003601f168201915b5050505050935081805480602002602001604051908101604052809291908181526020016000905b828210156107cd57838290600052602060002001805461074090612130565b80601f016020809104026020016040519081016040528092919081815260200182805461076c90612130565b80156107b95780601f1061078e576101008083540402835291602001916107b9565b820191906000526020600020905b81548152906001019060200180831161079c57829003601f168201915b505050505081526020019060010190610721565b5050505091508080548060200260200160405190810160405280929190818152602001828054801561085457602002820191906000526020600020905b8160009054906101000a900473ffffffffffffffffffffffffffffffffffffffff1673ffffffffffffffffffffffffffffffffffffffff168152602001906001019080831161080a575b5050505050905095509550955095509550955091939550919395565b6000841180156108805750607884105b6108bf576040517f08c379a00000000000000000000000000000000000000000000000000000000081526004016108b690612525565b60405180910390fd5b6040518060c001604052808681526020018581526020018481526020018315158152602001828152602001600067ffffffffffffffff8111156109055761090461179b565b5b6040519080825280602002602001820160405280156109335781602001602082028036833780820191505090505b50815250600260003373ffffffffffffffffffffffffffffffffffffffff1673ffffffffffffffffffffffffffffffffffffffff168152602001908152602001600020600082015181600001908161098b919061230d565b506020820151816001015560408201518160020190816109ab919061230d565b5060608201518160030160006101000a81548160ff02191690831515021790555060808201518160040190805190602001906109e8929190611608565b5060a0820151816005019080519060200190610a05929190611661565b5090505060016000815480929190610a1c90612574565b91905055503373ffffffffffffffffffffffffffffffffffffffff167f4d6cf2cb62e2203780233486e301c6c1da8c9ce57b1ad11c31cebffa947e3fb88686868686604051610a6f9594939291906123df565b60405180910390a25050505050565b6000600260003373ffffffffffffffffffffffffffffffffffffffff1673ffffffffffffffffffffffffffffffffffffffff1681526020019081526020016000206004018054905090506000600182610ad791906125bc565b67ffffffffffffffff811115610af057610aef61179b565b5b604051908082528060200260200182016040528015610b2357816020015b6060815260200190600190039081610b0e5790505b50905060005b82811015610c4957600260003373ffffffffffffffffffffffffffffffffffffffff1673ffffffffffffffffffffffffffffffffffffffff1681526020019081526020016000206004018181548110610b8557610b846125f0565b5b906000526020600020018054610b9a90612130565b80601f0160208091040260200160405190810160405280929190818152602001828054610bc690612130565b8015610c135780601f10610be857610100808354040283529160200191610c13565b820191906000526020600020905b815481529060010190602001808311610bf657829003601f168201915b5050505050828281518110610c2b57610c2a6125f0565b5b60200260200101819052508080610c4190612574565b915050610b29565b5082818381518110610c5e57610c5d6125f0565b5b602002602001018190525080600260003373ffffffffffffffffffffffffffffffffffffffff1673ffffffffffffffffffffffffffffffffffffffff1681526020019081526020016000206004019080519060200190610cbf929190611608565b50505050565b6000600260003373ffffffffffffffffffffffffffffffffffffffff1673ffffffffffffffffffffffffffffffffffffffff1681526020019081526020016000206001015403610d4a576040517f08c379a0000000000000000000000000000000000000000000000000000000008152600401610d41906120e1565b60405180910390fd5b600073ffffffffffffffffffffffffffffffffffffffff168173ffffffffffffffffffffffffffffffffffffffff1603610db9576040517f08c379a0000000000000000000000000000000000000000000000000000000008152600401610db09061266b565b60405180910390fd5b60005b600260003373ffffffffffffffffffffffffffffffffffffffff1673ffffffffffffffffffffffffffffffffffffffff16815260200190815260200160002060050180549050811015610f08578173ffffffffffffffffffffffffffffffffffffffff16600260003373ffffffffffffffffffffffffffffffffffffffff1673ffffffffffffffffffffffffffffffffffffffff1681526020019081526020016000206005018281548110610e7457610e736125f0565b5b9060005260206000200160009054906101000a900473ffffffffffffffffffffffffffffffffffffffff1673ffffffffffffffffffffffffffffffffffffffff1603610ef5576040517f08c379a0000000000000000000000000000000000000000000000000000000008152600401610eec906126d7565b60405180910390fd5b8080610f0090612574565b915050610dbc565b50600260003373ffffffffffffffffffffffffffffffffffffffff1673ffffffffffffffffffffffffffffffffffffffff168152602001908152602001600020600501819080600181540180825580915050600190039060005260206000200160009091909190916101000a81548173ffffffffffffffffffffffffffffffffffffffff021916908373ffffffffffffffffffffffffffffffffffffffff1602179055508073ffffffffffffffffffffffffffffffffffffffff163373ffffffffffffffffffffffffffffffffffffffff167f0fe4e437c084444e890f33e3573abd4ccb068f0ba4333cc45538465846d106e860405160405180910390a350565b6000600260003373ffffffffffffffffffffffffffffffffffffffff1673ffffffffffffffffffffffffffffffffffffffff168152602001908152602001600020600101540361108e576040517f08c379a0000000000000000000000000000000000000000000000000000000008152600401611085906120e1565b60405180910390fd5b600073ffffffffffffffffffffffffffffffffffffffff168173ffffffffffffffffffffffffffffffffffffffff16036110fd576040517f08c379a00000000000000000000000000000000000000000000000000000000081526004016110f49061266b565b60405180910390fd5b60005b600260003373ffffffffffffffffffffffffffffffffffffffff1673ffffffffffffffffffffffffffffffffffffffff16815260200190815260200160002060050180549050811015611464578173ffffffffffffffffffffffffffffffffffffffff16600260003373ffffffffffffffffffffffffffffffffffffffff1673ffffffffffffffffffffffffffffffffffffffff16815260200190815260200160002060050182815481106111b8576111b76125f0565b5b9060005260206000200160009054906101000a900473ffffffffffffffffffffffffffffffffffffffff1673ffffffffffffffffffffffffffffffffffffffff160361145157600260003373ffffffffffffffffffffffffffffffffffffffff1673ffffffffffffffffffffffffffffffffffffffff1681526020019081526020016000206005016001600260003373ffffffffffffffffffffffffffffffffffffffff1673ffffffffffffffffffffffffffffffffffffffff1681526020019081526020016000206005018054905061129291906126f7565b815481106112a3576112a26125f0565b5b9060005260206000200160009054906101000a900473ffffffffffffffffffffffffffffffffffffffff16600260003373ffffffffffffffffffffffffffffffffffffffff1673ffffffffffffffffffffffffffffffffffffffff1681526020019081526020016000206005018281548110611322576113216125f0565b5b9060005260206000200160006101000a81548173ffffffffffffffffffffffffffffffffffffffff021916908373ffffffffffffffffffffffffffffffffffffffff160217905550600260003373ffffffffffffffffffffffffffffffffffffffff1673ffffffffffffffffffffffffffffffffffffffff1681526020019081526020016000206005018054806113bc576113bb61272b565b5b6001900381819060005260206000200160006101000a81549073ffffffffffffffffffffffffffffffffffffffff021916905590558173ffffffffffffffffffffffffffffffffffffffff163373ffffffffffffffffffffffffffffffffffffffff167f80245a6041cdb9988b0d549fc8ea8eea9f543da43f0bfabea510fb49142246f660405160405180910390a350611466565b808061145c90612574565b915050611100565b505b50565b6000808290506020810151915050919050565b60008560405160200161148f91906127e2565b60405160208183030381529060405290506114ad85858585856101d5565b505050505050565b6060806000803073ffffffffffffffffffffffffffffffffffffffff16856040516024016114e39190612073565b6040516020818303038152906040527f3d4337ab000000000000000000000000000000000000000000000000000000007bffffffffffffffffffffffffffffffffffffffffffffffffffffffff19166020820180517bffffffffffffffffffffffffffffffffffffffffffffffffffffffff838183161783525050505060405161156d919061284b565b6000604051808303816000865af19150503d80600081146115aa576040519150601f19603f3d011682016040523d82523d6000602084013e6115af565b606091505b5091509150816115f4576040517f08c379a00000000000000000000000000000000000000000000000000000000081526004016115eb906128ae565b60405180910390fd5b809250600083905080945050505050919050565b828054828255906000526020600020908101928215611650579160200282015b8281111561164f57825182908161163f919061230d565b5091602001919060010190611628565b5b50905061165d91906116eb565b5090565b8280548282559060005260206000209081019282156116da579160200282015b828111156116d95782518260006101000a81548173ffffffffffffffffffffffffffffffffffffffff021916908373ffffffffffffffffffffffffffffffffffffffff16021790555091602001919060010190611681565b5b5090506116e7919061170f565b5090565b5b8082111561170b5760008181611702919061172c565b506001016116ec565b5090565b5b80821115611728576000816000905550600101611710565b5090565b50805461173890612130565b6000825580601f1061174a5750611769565b601f016020900490600052602060002090810190611768919061170f565b5b50565b6000604051905090565b600080fd5b600080fd5b600080fd5b600080fd5b6000601f19601f8301169050919050565b7f4e487b7100000000000000000000000000000000000000000000000000000000600052604160045260246000fd5b6117d38261178a565b810181811067ffffffffffffffff821117156117f2576117f161179b565b5b80604052505050565b600061180561176c565b905061181182826117ca565b919050565b600067ffffffffffffffff8211156118315761183061179b565b5b61183a8261178a565b9050602081019050919050565b82818337600083830152505050565b600061186961186484611816565b6117fb565b90508281526020810184848401111561188557611884611785565b5b611890848285611847565b509392505050565b600082601f8301126118ad576118ac611780565b5b81356118bd848260208601611856565b91505092915050565b6000819050919050565b6118d9816118c6565b81146118e457600080fd5b50565b6000813590506118f6816118d0565b92915050565b60008115159050919050565b611911816118fc565b811461191c57600080fd5b50565b60008135905061192e81611908565b92915050565b600080600080600060a086880312156119505761194f611776565b5b600086013567ffffffffffffffff81111561196e5761196d61177b565b5b61197a88828901611898565b955050602061198b888289016118e7565b945050604086013567ffffffffffffffff8111156119ac576119ab61177b565b5b6119b888828901611898565b93505060606119c98882890161191f565b925050608086013567ffffffffffffffff8111156119ea576119e961177b565b5b6119f688828901611898565b9150509295509295909350565b600073ffffffffffffffffffffffffffffffffffffffff82169050919050565b6000611a2e82611a03565b9050919050565b611a3e81611a23565b8114611a4957600080fd5b50565b600081359050611a5b81611a35565b92915050565b600060208284031215611a7757611a76611776565b5b6000611a8584828501611a4c565b91505092915050565b600081519050919050565b600082825260208201905092915050565b60005b83811015611ac8578082015181840152602081019050611aad565b60008484015250505050565b6000611adf82611a8e565b611ae98185611a99565b9350611af9818560208601611aaa565b611b028161178a565b840191505092915050565b611b16816118c6565b82525050565b611b25816118fc565b82525050565b600081519050919050565b600082825260208201905092915050565b6000819050602082019050919050565b600082825260208201905092915050565b6000611b7382611a8e565b611b7d8185611b57565b9350611b8d818560208601611aaa565b611b968161178a565b840191505092915050565b6000611bad8383611b68565b905092915050565b6000602082019050919050565b6000611bcd82611b2b565b611bd78185611b36565b935083602082028501611be985611b47565b8060005b85811015611c255784840389528151611c068582611ba1565b9450611c1183611bb5565b925060208a01995050600181019050611bed565b50829750879550505050505092915050565b600081519050919050565b600082825260208201905092915050565b6000819050602082019050919050565b611c6c81611a23565b82525050565b6000611c7e8383611c63565b60208301905092915050565b6000602082019050919050565b6000611ca282611c37565b611cac8185611c42565b9350611cb783611c53565b8060005b83811015611ce8578151611ccf8882611c72565b9750611cda83611c8a565b925050600181019050611cbb565b5085935050505092915050565b600060c0820190508181036000830152611d0f8189611ad4565b9050611d1e6020830188611b0d565b8181036040830152611d308187611ad4565b9050611d3f6060830186611b1c565b8181036080830152611d518185611bc2565b905081810360a0830152611d658184611c97565b9050979650505050505050565b600067ffffffffffffffff821115611d8d57611d8c61179b565b5b602082029050602081019050919050565b600080fd5b6000611db6611db184611d72565b6117fb565b90508083825260208201905060208402830185811115611dd957611dd8611d9e565b5b835b81811015611e2057803567ffffffffffffffff811115611dfe57611dfd611780565b5b808601611e0b8982611898565b85526020850194505050602081019050611ddb565b5050509392505050565b600082601f830112611e3f57611e3e611780565b5b8135611e4f848260208601611da3565b91505092915050565b600080600080600060a08688031215611e7457611e73611776565b5b600086013567ffffffffffffffff811115611e9257611e9161177b565b5b611e9e88828901611898565b9550506020611eaf888289016118e7565b945050604086013567ffffffffffffffff811115611ed057611ecf61177b565b5b611edc88828901611898565b9350506060611eed8882890161191f565b925050608086013567ffffffffffffffff811115611f0e57611f0d61177b565b5b611f1a88828901611e2a565b9150509295509295909350565b600060208284031215611f3d57611f3c611776565b5b600082013567ffffffffffffffff811115611f5b57611f5a61177b565b5b611f6784828501611898565b91505092915050565b6000819050919050565b611f8381611f70565b82525050565b6000602082019050611f9e6000830184611f7a565b92915050565b600080600080600060a08688031215611fc057611fbf611776565b5b600086013567ffffffffffffffff811115611fde57611fdd61177b565b5b611fea88828901611898565b955050602086013567ffffffffffffffff81111561200b5761200a61177b565b5b61201788828901611898565b9450506040612028888289016118e7565b935050606086013567ffffffffffffffff8111156120495761204861177b565b5b61205588828901611898565b92505060806120668882890161191f565b9150509295509295909350565b6000602082019050818103600083015261208d8184611ad4565b905092915050565b7f50617469656e74207265636f726420646f6573206e6f742065786973742e0000600082015250565b60006120cb601e83611a99565b91506120d682612095565b602082019050919050565b600060208201905081810360008301526120fa816120be565b9050919050565b7f4e487b7100000000000000000000000000000000000000000000000000000000600052602260045260246000fd5b6000600282049050600182168061214857607f821691505b60208210810361215b5761215a612101565b5b50919050565b60008190508160005260206000209050919050565b60006020601f8301049050919050565b600082821b905092915050565b6000600883026121c37fffffffffffffffffffffffffffffffffffffffffffffffffffffffffffffffff82612186565b6121cd8683612186565b95508019841693508086168417925050509392505050565b6000819050919050565b600061220a612205612200846118c6565b6121e5565b6118c6565b9050919050565b6000819050919050565b612224836121ef565b61223861223082612211565b848454612193565b825550505050565b600090565b61224d612240565b61225881848461221b565b505050565b5b8181101561227c57612271600082612245565b60018101905061225e565b5050565b601f8211156122c15761229281612161565b61229b84612176565b810160208510156122aa578190505b6122be6122b685612176565b83018261225d565b50505b505050565b600082821c905092915050565b60006122e4600019846008026122c6565b1980831691505092915050565b60006122fd83836122d3565b9150826002028217905092915050565b61231682611a8e565b67ffffffffffffffff81111561232f5761232e61179b565b5b6123398254612130565b612344828285612280565b600060209050601f8311600181146123775760008415612365578287015190505b61236f85826122f1565b8655506123d7565b601f19841661238586612161565b60005b828110156123ad57848901518255600182019150602085019450602081019050612388565b868310156123ca57848901516123c6601f8916826122d3565b8355505b6001600288020188555050505b505050505050565b600060a08201905081810360008301526123f98188611ad4565b90506124086020830187611b0d565b818103604083015261241a8186611ad4565b90506124296060830185611b1c565b818103608083015261243b8184611bc2565b90509695505050505050565b7f4f6e6c7920636f6e7472616374206f776e65722063616e20706572666f726d2060008201527f7468697320616374696f6e2e0000000000000000000000000000000000000000602082015250565b60006124a3602c83611a99565b91506124ae82612447565b604082019050919050565b600060208201905081810360008301526124d281612496565b9050919050565b7f496e76616c6964206167652e0000000000000000000000000000000000000000600082015250565b600061250f600c83611a99565b915061251a826124d9565b602082019050919050565b6000602082019050818103600083015261253e81612502565b9050919050565b7f4e487b7100000000000000000000000000000000000000000000000000000000600052601160045260246000fd5b600061257f826118c6565b91507fffffffffffffffffffffffffffffffffffffffffffffffffffffffffffffffff82036125b1576125b0612545565b5b600182019050919050565b60006125c7826118c6565b91506125d2836118c6565b92508282019050808211156125ea576125e9612545565b5b92915050565b7f4e487b7100000000000000000000000000000000000000000000000000000000600052603260045260246000fd5b7f496e76616c696420706572736f6e6e656c20616464726573732e000000000000600082015250565b6000612655601a83611a99565b91506126608261261f565b602082019050919050565b6000602082019050818103600083015261268481612648565b9050919050565b7f506572736f6e6e656c20616c726561647920617574686f72697a65642e000000600082015250565b60006126c1601d83611a99565b91506126cc8261268b565b602082019050919050565b600060208201905081810360008301526126f0816126b4565b9050919050565b6000612702826118c6565b915061270d836118c6565b925082820390508181111561272557612724612545565b5b92915050565b7f4e487b7100000000000000000000000000000000000000000000000000000000600052603160045260246000fd5b600081905092915050565b7f686173685f66756e6374696f6e2e707900000000000000000000000000000000600082015250565b600061279b60108361275a565b91506127a682612765565b601082019050919050565b60006127bc82611a8e565b6127c6818561275a565b93506127d6818560208601611aaa565b80840191505092915050565b60006127ed8261278e565b91506127f982846127b1565b915081905092915050565b600081519050919050565b600081905092915050565b600061282582612804565b61282f818561280f565b935061283f818560208601611aaa565b80840191505092915050565b6000612857828461281a565b915081905092915050565b7f45787465726e616c2066756e6374696f6e2063616c6c206661696c6564000000600082015250565b6000612898601d83611a99565b91506128a382612862565b602082019050919050565b600060208201905081810360008301526128c78161288b565b905091905056fea26469706673582212201a77996651fad0d46193837ac23158bf9459f30138e7a2c0808d154857cc8bb564736f6c63430008110033",
  "immutableReferences": {},
  "source": "// SPDX-License-Identifier: MIT\r\npragma solidity 0.8.17;\r\n\r\ncontract HealthCareDataManagement {\r\n    address private owner;\r\n    uint256 private patientCount;\r\n\r\n    struct Patient {\r\n        string name;\r\n        uint256 age;\r\n        string ailment;\r\n        bool isHospitalized;\r\n        string[] record;\r\n        address[] authorizedPersonnel;\r\n    }\r\n    mapping(address => Patient) private patients;\r\n\r\n    event PatientRecordCreated(\r\n        address indexed patientAddress,\r\n        string name,\r\n        uint256 age,\r\n        string ailment,\r\n        bool isHospitalized,\r\n        string[] record\r\n    );\r\n    event PatientRecordUpdated(\r\n        address indexed patientAddress,\r\n        string name,\r\n        uint256 age,\r\n        string ailment,\r\n        bool isHospitalized,\r\n        string[] record\r\n    );\r\n    event PersonnelAuthorized(\r\n        address indexed patientAddress,\r\n        address indexed personnelAddress\r\n    );\r\n    event PersonnelAuthorizationRevoked(\r\n        address indexed patientAddress,\r\n        address indexed personnelAddress\r\n    );\r\n    modifier onlyOwner() {\r\n        require(\r\n            msg.sender == owner,\r\n            \"Only contract owner can perform this action.\"\r\n        );\r\n        _;\r\n    }\r\n\r\n    modifier patientExists() {\r\n        require(\r\n            patients[msg.sender].age != 0,\r\n            \"Patient record does not exist.\"\r\n        );\r\n        _;\r\n    }\r\n\r\n    constructor() {\r\n        owner = msg.sender;\r\n    }\r\n\r\n    function createPatientRecord(\r\n        string memory name,\r\n        uint256 age,\r\n        string memory ailment,\r\n        bool isHospitalized,\r\n        string[] memory record\r\n    ) public {\r\n        require(age > 0 && age < 120, \"Invalid age.\");\r\n        patients[msg.sender] = Patient(\r\n            name,\r\n            age,\r\n            ailment,\r\n            isHospitalized,\r\n            record,\r\n            new address[](0)\r\n        );\r\n        patientCount++;\r\n        emit PatientRecordCreated(\r\n            msg.sender,\r\n            name,\r\n            age,\r\n            ailment,\r\n            isHospitalized, \r\n            record\r\n        );\r\n    }\r\n\r\n    function getPatientRecord(address patientAddress)\r\n        public\r\n        view\r\n        onlyOwner\r\n        returns (\r\n            string memory,\r\n            uint256,\r\n            string memory,\r\n            bool,\r\n            string[] memory,\r\n            address[] memory\r\n            \r\n        )\r\n    {\r\n        require(\r\n            patients[patientAddress].age != 0,\r\n            \"Patient record does not exist.\"\r\n        );\r\n        return (\r\n            patients[patientAddress].name,\r\n            patients[patientAddress].age,\r\n            patients[patientAddress].ailment,\r\n            patients[patientAddress].isHospitalized,\r\n            patients[patientAddress].record,\r\n            patients[patientAddress].authorizedPersonnel\r\n            \r\n        );\r\n    }\r\n    function hashPDF(string memory parameter) external returns (string memory) {\r\n        bytes memory result;\r\n        // Execute external Python function\r\n        (bool success, bytes memory data) = address(this).call(\r\n            abi.encodeWithSignature(\"functions\\\\hash_function.py\\\\hash_pdf(string)\", parameter)\r\n        );\r\n        // Handle external function execution result\r\n        require(success, \"External function call failed\");\r\n        result = data;\r\n        // Convert bytes result to string\r\n        string memory strResult = string(result);\r\n        // Return result\r\n        return strResult;\r\n    }\r\n\r\n    function executePythonFunction(string memory parameter, string memory name,\r\n        uint256 age,\r\n        string memory ailment,\r\n        bool isHospitalized) public {\r\n        // Validate and sanitize the input parameter before executing the Python function\r\n\r\n        // Build the command to execute the Python function, passing the parameter\r\n        string memory hashvalue = string(abi.encodePacked(\"hash_function.py\", parameter));\r\n        updatePatientRecord(name,\r\n        age,\r\n        ailment,\r\n        isHospitalized,\r\n        hashvalue);\r\n    }\r\n\r\n    /*function callPythonFunction(string file_path) public returns (bytes32) {\r\n        // Import the Python module\r\n        string memory code = \"from functions\\\\hash_function.py import hash_pdf\";\r\n\r\n        // Execute the Python code\r\n        exec(code);\r\n\r\n        // Call the Python function with the arguments\r\n        string memory arg = new string;\r\n        arg = file_path;\r\n        bytes memory resultBytes = abicoder.encode_abi((bytes32)(new bytes32), arg);\r\n        string memory resultString = string(resultBytes);\r\n        bytes memory result = abi.encodeWithSignature(\"hash_pdf(String)\", file_path);\r\n        \r\n        // Decode the result using ABIE Coder\r\n        bytes32 memory decodedResult = new bytes32;\r\n        abicoder.decode_abi((bytes32)(new bytes32), bytes(result), decodedResult);\r\n\r\n        // Return the result\r\n        return decodedResult;\r\n    }*/\r\n\r\n    function appendRecord(string memory hashvalue) public {\r\n        uint256 len = patients[msg.sender].record.length;\r\n        string[] memory newRecord = new string[](len + 1);\r\n        for (uint256 i = 0; i < len; i++) {\r\n            newRecord[i] = patients[msg.sender].record[i];\r\n        }\r\n        newRecord[len] = hashvalue;\r\n        patients[msg.sender].record = newRecord;\r\n       \r\n    }\r\n\r\n    function stringToBytes32(string memory str) public pure returns (bytes32 result) {\r\n        bytes memory temp = bytes(str);\r\n        assembly {\r\n            result := mload(add(temp, 32))\r\n    }\r\n}\r\n\r\n\r\n    function updatePatientRecord(\r\n        string memory name,\r\n        uint256 age,\r\n        string memory ailment,\r\n        bool isHospitalized,\r\n        string memory hashvalue\r\n    ) public patientExists {\r\n        string[] memory record;\r\n        patients[msg.sender].record.push(hashvalue);\r\n        emit PatientRecordUpdated(\r\n            msg.sender,\r\n            name,\r\n            age,\r\n            ailment,\r\n            isHospitalized,\r\n            record\r\n        );\r\n    }\r\n\r\n    function authorizePersonnel(address personnelAddress) public patientExists {\r\n        require(personnelAddress != address(0), \"Invalid personnel address.\");\r\n        for (\r\n            uint256 i = 0;\r\n            i < patients[msg.sender].authorizedPersonnel.length;\r\n            i++\r\n        ) {\r\n            if (\r\n                patients[msg.sender].authorizedPersonnel[i] == personnelAddress\r\n            ) {\r\n                revert(\"Personnel already authorized.\");\r\n            }\r\n        }\r\n        patients[msg.sender].authorizedPersonnel.push(personnelAddress);\r\n        emit PersonnelAuthorized(msg.sender, personnelAddress);\r\n    }\r\n\r\n    function revokeAuthorization(address personnelAddress)\r\n        public\r\n        patientExists\r\n    {\r\n        require(personnelAddress != address(0), \"Invalid personnel address.\");\r\n        for (\r\n            uint256 i = 0;\r\n            i < patients[msg.sender].authorizedPersonnel.length;\r\n            i++\r\n        ) {\r\n            if (\r\n                patients[msg.sender].authorizedPersonnel[i] == personnelAddress\r\n            ) {\r\n                patients[msg.sender].authorizedPersonnel[i] = patients[\r\n                    msg.sender\r\n                ].authorizedPersonnel[\r\n                        patients[msg.sender].authorizedPersonnel.length - 1\r\n                    ];\r\n                patients[msg.sender].authorizedPersonnel.pop();\r\n                emit PersonnelAuthorizationRevoked(\r\n                    msg.sender,\r\n                    personnelAddress\r\n                );\r\n                return;\r\n            }\r\n        }\r\n    }\r\n}\r\n",
  "sourcePath": "C:\\Users\\ajsty\\OneDrive\\Desktop\\VS_Code\\HealthCareDataManagement\\contracts\\HealthCareDataManagement.sol",
  "compiler": {
    "name": "solc",
    "version": "0.8.17+commit.8df45f5f.Emscripten.clang"
  },
  "schemaVersion": "3.4.11",
  "updatedAt": "2023-03-22T16:11:12.742Z",
  "devdoc": {
    "kind": "dev",
    "methods": {},
    "version": 1
  },
  "userdoc": {
    "kind": "user",
    "methods": {},
    "version": 1
  }
}