{
  "contractName": "MedicalRecordAccess",
  "abi": [
    {
      "inputs": [
        {
          "internalType": "address",
          "name": "_patientInfoAddress",
          "type": "address"
        },
        {
          "internalType": "address",
          "name": "_pracInfoAddress",
          "type": "address"
        }
      ],
      "stateMutability": "nonpayable",
      "type": "constructor"
    },
    {
      "inputs": [
        {
          "internalType": "address",
          "name": "patient",
          "type": "address"
        },
        {
          "internalType": "address",
          "name": "practitioner",
          "type": "address"
        }
      ],
      "name": "checkAccess",
      "outputs": [
        {
          "internalType": "bool",
          "name": "",
          "type": "bool"
        }
      ],
      "stateMutability": "view",
      "type": "function"
    },
    {
      "inputs": [
        {
          "internalType": "address",
          "name": "patient",
          "type": "address"
        },
        {
          "internalType": "address",
          "name": "practitioner",
          "type": "address"
        }
      ],
      "name": "revokeAccess",
      "outputs": [],
      "stateMutability": "nonpayable",
      "type": "function"
    },
    {
      "inputs": [],
      "name": "requestAccess",
      "outputs": [],
      "stateMutability": "nonpayable",
      "type": "function"
    },
    {
      "inputs": [
        {
          "internalType": "address",
          "name": "patientAddress",
          "type": "address"
        }
      ],
      "name": "grantAccess",
      "outputs": [],
      "stateMutability": "nonpayable",
      "type": "function"
    },
    {
      "inputs": [
        {
          "internalType": "address",
          "name": "patient",
          "type": "address"
        },
        {
          "internalType": "address",
          "name": "practitioner",
          "type": "address"
        }
      ],
      "name": "grantAccess",
      "outputs": [],
      "stateMutability": "nonpayable",
      "type": "function"
    },
    {
      "inputs": [
        {
          "internalType": "address",
          "name": "patientAddress",
          "type": "address"
        }
      ],
      "name": "getPatientRecord",
      "outputs": [
        {
          "internalType": "string",
          "name": "name",
          "type": "string"
        },
        {
          "internalType": "uint256",
          "name": "age",
          "type": "uint256"
        },
        {
          "internalType": "string",
          "name": "nationality",
          "type": "string"
        },
        {
          "internalType": "string",
          "name": "gender",
          "type": "string"
        },
        {
          "internalType": "string",
          "name": "contactNumber",
          "type": "string"
        },
        {
          "internalType": "string",
          "name": "email",
          "type": "string"
        },
        {
          "internalType": "uint256",
          "name": "patientID",
          "type": "uint256"
        }
      ],
      "stateMutability": "view",
      "type": "function"
    },
    {
      "inputs": [],
      "name": "getPracRecord",
      "outputs": [
        {
          "internalType": "string",
          "name": "name",
          "type": "string"
        },
        {
          "internalType": "uint256",
          "name": "age",
          "type": "uint256"
        },
        {
          "internalType": "string",
          "name": "gender",
          "type": "string"
        },
        {
          "internalType": "string",
          "name": "contactNumber",
          "type": "string"
        },
        {
          "internalType": "string",
          "name": "prac_ID",
          "type": "string"
        },
        {
          "internalType": "string",
          "name": "patientIDs",
          "type": "string"
        }
      ],
      "stateMutability": "view",
      "type": "function"
    }
  ],
  "bytecode": "0x60806040523480156200001157600080fd5b50604051620010fa380380620010fa83398181016040528101906200003791906200016b565b336000806101000a81548173ffffffffffffffffffffffffffffffffffffffff021916908373ffffffffffffffffffffffffffffffffffffffff16021790555081600260006101000a81548173ffffffffffffffffffffffffffffffffffffffff021916908373ffffffffffffffffffffffffffffffffffffffff16021790555080600360006101000a81548173ffffffffffffffffffffffffffffffffffffffff021916908373ffffffffffffffffffffffffffffffffffffffff1602179055505050620001b2565b600080fd5b600073ffffffffffffffffffffffffffffffffffffffff82169050919050565b6000620001338262000106565b9050919050565b620001458162000126565b81146200015157600080fd5b50565b60008151905062000165816200013a565b92915050565b6000806040838503121562000185576200018462000101565b5b6000620001958582860162000154565b9250506020620001a88582860162000154565b9150509250929050565b610f3880620001c26000396000f3fe608060405234801561001057600080fd5b506004361061007d5760003560e01c80635f6ea3401161005b5780635f6ea340146100f757806362e1f74514610113578063c6a09d9514610143578063eb2f48171461015f5761007d565b806304787382146100825780630ae5e739146100a557806318607174146100c1575b600080fd5b61008a610169565b60405161009c969594939291906107d0565b60405180910390f35b6100bf60048036038101906100ba91906108c6565b610272565b005b6100db60048036038101906100d691906108c6565b6103c4565b6040516100ee97969594939291906108f3565b60405180910390f35b610111600480360381019061010c9190610985565b6104d3565b005b61012d60048036038101906101289190610985565b61056c565b60405161013a91906109e0565b60405180910390f35b61015d60048036038101906101589190610985565b610600565b005b610167610698565b005b6060600060608060608061017e33600061056c565b6101bd576040517f08c379a00000000000000000000000000000000000000000000000000000000081526004016101b490610a47565b60405180910390fd5b600360009054906101000a900473ffffffffffffffffffffffffffffffffffffffff1673ffffffffffffffffffffffffffffffffffffffff1663fb1d841b336040518263ffffffff1660e01b81526004016102189190610a76565b600060405180830381865afa158015610235573d6000803e3d6000fd5b505050506040513d6000823e3d601f19601f8201168201806040525081019061025e9190610be3565b955095509550955095509550909192939495565b600073ffffffffffffffffffffffffffffffffffffffff168173ffffffffffffffffffffffffffffffffffffffff16036102e1576040517f08c379a00000000000000000000000000000000000000000000000000000000081526004016102d890610d48565b60405180910390fd5b6102eb813361056c565b61032a576040517f08c379a000000000000000000000000000000000000000000000000000000000815260040161032190610db4565b60405180910390fd5b600360009054906101000a900473ffffffffffffffffffffffffffffffffffffffff1673ffffffffffffffffffffffffffffffffffffffff166392b4e132336040518263ffffffff1660e01b81526004016103859190610a76565b600060405180830381600087803b15801561039f57600080fd5b505af11580156103b3573d6000803e3d6000fd5b505050506103c18133610600565b50565b6060600060608060608060006103da883361056c565b610419576040517f08c379a000000000000000000000000000000000000000000000000000000000815260040161041090610a47565b60405180910390fd5b600260009054906101000a900473ffffffffffffffffffffffffffffffffffffffff1673ffffffffffffffffffffffffffffffffffffffff166318607174896040518263ffffffff1660e01b81526004016104749190610a76565b600060405180830381865afa158015610491573d6000803e3d6000fd5b505050506040513d6000823e3d601f19601f820116820180604052508101906104ba9190610dd4565b9650965096509650965096509650919395979092949650565b6000600160008473ffffffffffffffffffffffffffffffffffffffff1673ffffffffffffffffffffffffffffffffffffffff16815260200190815260200160002060008373ffffffffffffffffffffffffffffffffffffffff1673ffffffffffffffffffffffffffffffffffffffff16815260200190815260200160002060006101000a81548160ff0219169083151502179055505050565b6000600160008473ffffffffffffffffffffffffffffffffffffffff1673ffffffffffffffffffffffffffffffffffffffff16815260200190815260200160002060008373ffffffffffffffffffffffffffffffffffffffff1673ffffffffffffffffffffffffffffffffffffffff16815260200190815260200160002060009054906101000a900460ff16905092915050565b60018060008473ffffffffffffffffffffffffffffffffffffffff1673ffffffffffffffffffffffffffffffffffffffff16815260200190815260200160002060008373ffffffffffffffffffffffffffffffffffffffff1673ffffffffffffffffffffffffffffffffffffffff16815260200190815260200160002060006101000a81548160ff0219169083151502179055505050565b600260009054906101000a900473ffffffffffffffffffffffffffffffffffffffff1673ffffffffffffffffffffffffffffffffffffffff1663e10bc834336040518263ffffffff1660e01b81526004016106f39190610a76565b600060405180830381600087803b15801561070d57600080fd5b505af1158015610721573d6000803e3d6000fd5b50505050565b600081519050919050565b600082825260208201905092915050565b60005b83811015610761578082015181840152602081019050610746565b60008484015250505050565b6000601f19601f8301169050919050565b600061078982610727565b6107938185610732565b93506107a3818560208601610743565b6107ac8161076d565b840191505092915050565b6000819050919050565b6107ca816107b7565b82525050565b600060c08201905081810360008301526107ea818961077e565b90506107f960208301886107c1565b818103604083015261080b818761077e565b9050818103606083015261081f818661077e565b90508181036080830152610833818561077e565b905081810360a0830152610847818461077e565b9050979650505050505050565b6000604051905090565b600080fd5b600080fd5b600073ffffffffffffffffffffffffffffffffffffffff82169050919050565b600061089382610868565b9050919050565b6108a381610888565b81146108ae57600080fd5b50565b6000813590506108c08161089a565b92915050565b6000602082840312156108dc576108db61085e565b5b60006108ea848285016108b1565b91505092915050565b600060e082019050818103600083015261090d818a61077e565b905061091c60208301896107c1565b818103604083015261092e818861077e565b90508181036060830152610942818761077e565b90508181036080830152610956818661077e565b905081810360a083015261096a818561077e565b905061097960c08301846107c1565b98975050505050505050565b6000806040838503121561099c5761099b61085e565b5b60006109aa858286016108b1565b92505060206109bb858286016108b1565b9150509250929050565b60008115159050919050565b6109da816109c5565b82525050565b60006020820190506109f560008301846109d1565b92915050565b7f416363657373206e6f74206772616e7465642e00000000000000000000000000600082015250565b6000610a31601383610732565b9150610a3c826109fb565b602082019050919050565b60006020820190508181036000830152610a6081610a24565b9050919050565b610a7081610888565b82525050565b6000602082019050610a8b6000830184610a67565b92915050565b600080fd5b600080fd5b7f4e487b7100000000000000000000000000000000000000000000000000000000600052604160045260246000fd5b610ad38261076d565b810181811067ffffffffffffffff82111715610af257610af1610a9b565b5b80604052505050565b6000610b05610854565b9050610b118282610aca565b919050565b600067ffffffffffffffff821115610b3157610b30610a9b565b5b610b3a8261076d565b9050602081019050919050565b6000610b5a610b5584610b16565b610afb565b905082815260208101848484011115610b7657610b75610a96565b5b610b81848285610743565b509392505050565b600082601f830112610b9e57610b9d610a91565b5b8151610bae848260208601610b47565b91505092915050565b610bc0816107b7565b8114610bcb57600080fd5b50565b600081519050610bdd81610bb7565b92915050565b60008060008060008060c08789031215610c0057610bff61085e565b5b600087015167ffffffffffffffff811115610c1e57610c1d610863565b5b610c2a89828a01610b89565b9650506020610c3b89828a01610bce565b955050604087015167ffffffffffffffff811115610c5c57610c5b610863565b5b610c6889828a01610b89565b945050606087015167ffffffffffffffff811115610c8957610c88610863565b5b610c9589828a01610b89565b935050608087015167ffffffffffffffff811115610cb657610cb5610863565b5b610cc289828a01610b89565b92505060a087015167ffffffffffffffff811115610ce357610ce2610863565b5b610cef89828a01610b89565b9150509295509295509295565b7f496e76616c69642070617469656e7420616464726573732e0000000000000000600082015250565b6000610d32601883610732565b9150610d3d82610cfc565b602082019050919050565b60006020820190508181036000830152610d6181610d25565b9050919050565b7f416363657373206e6f74206772616e7465642062792070617469656e742e0000600082015250565b6000610d9e601e83610732565b9150610da982610d68565b602082019050919050565b60006020820190508181036000830152610dcd81610d91565b9050919050565b600080600080600080600060e0888a031215610df357610df261085e565b5b600088015167ffffffffffffffff811115610e1157610e10610863565b5b610e1d8a828b01610b89565b9750506020610e2e8a828b01610bce565b965050604088015167ffffffffffffffff811115610e4f57610e4e610863565b5b610e5b8a828b01610b89565b955050606088015167ffffffffffffffff811115610e7c57610e7b610863565b5b610e888a828b01610b89565b945050608088015167ffffffffffffffff811115610ea957610ea8610863565b5b610eb58a828b01610b89565b93505060a088015167ffffffffffffffff811115610ed657610ed5610863565b5b610ee28a828b01610b89565b92505060c0610ef38a828b01610bce565b9150509295989194975092955056fea264697066735822122092da3ce014a7156d2ff99d292c5d062488772d08ce112a4cbcbf0f8e011e570964736f6c63430008110033",
  "immutableReferences": {},
  "source": "\r\n// SPDX-License-Identifier: MIT\r\npragma solidity 0.8.17;\r\ncontract Prac_Info{\r\n    address private owner;\r\n    struct Prac_Record{\r\n        string name;\r\n        uint age;\r\n        string gender;\r\n        string  contactNumber;\r\n        string prac_ID;\r\n        string patientIDs;\r\n        bool Verification;\r\n    }\r\n    mapping(address => Prac_Record) private pracs;\r\n\r\n    modifier onlyOwner(){\r\n        require(\r\n            msg.sender == owner, \"Only Contract Owner can perform this action\"\r\n        );\r\n        _;\r\n    }\r\n\r\n    modifier verified(){\r\n        require(\r\n            pracs[msg.sender].Verification != false, \r\n            \"The Practitioner needs to be Verified first\"\r\n        );\r\n        _;\r\n    }\r\n\r\n    constructor(){\r\n        owner = msg.sender;\r\n    }\r\n\r\n    function create_Prac_Record(\r\n        string memory name,\r\n        uint age,\r\n        string memory gender,\r\n        string memory contactNumber,\r\n        string memory prac_ID,\r\n        string memory patientIDs\r\n    ) public{\r\n        require(age > 0 && age < 120, \"Invalid Age\");\r\n        bool Verification;\r\n        pracs[msg.sender] = Prac_Record(name, age, gender, contactNumber, prac_ID, patientIDs, Verification = false);\r\n    }\r\n\r\n    function verification(address prac_address) public onlyOwner{\r\n        require(pracs[prac_address].Verification != true, \"Already Verified\");\r\n        pracs[prac_address].Verification = true;\r\n    }\r\n\r\n    function get_prac_record(address prac_address) public view onlyOwner verified\r\n    returns(\r\n        string memory name,\r\n        uint age,\r\n        string memory gender,\r\n        string memory contactNumber,\r\n        string memory prac_ID,\r\n        string memory patientIDs\r\n    ){\r\n        return(\r\n            pracs[prac_address].name,\r\n            pracs[prac_address].age,\r\n            pracs[prac_address].gender,\r\n            pracs[prac_address].contactNumber,\r\n            pracs[prac_address].prac_ID,\r\n            pracs[prac_address].patientIDs\r\n        );\r\n    }\r\n}\r\ncontract PatientInfo {\r\n    address private owner;\r\n\r\n    struct PatientRecord {\r\n        string name; \r\n        uint age; \r\n        string nationality; \r\n        string gender; \r\n        string contactNumber; \r\n        string email; \r\n        uint patientID;\r\n        string[] medical_records;\r\n        bool Verification;\r\n    }\r\n    mapping(address => PatientRecord) private patients;\r\n\r\n\r\n    event Pending_Requests(\r\n        string[] medical_records\r\n    );\r\n\r\n    modifier onlyOwner() {\r\n        require(\r\n            msg.sender == owner,\r\n            \"Only contract owner can perform this action.\"\r\n        );\r\n        _;\r\n    }\r\n    modifier verified(){\r\n        require(\r\n            patients[msg.sender].Verification != false,\r\n            \"The Patient needs to be verified first\"\r\n        );\r\n        _;\r\n    }\r\n    constructor() {\r\n        owner = msg.sender;\r\n    }\r\n    function create_Pat_Record(\r\n        string memory name, \r\n        uint age,\r\n        string memory nationality,\r\n        string memory gender,\r\n        string memory contactNumber, \r\n        string memory email,\r\n        string[] memory medical_records\r\n    ) public{\r\n        require(age > 0 && age < 120, \"Invalid age.\");\r\n        bool Verification;\r\n        uint patientID = uint(keccak256(abi.encodePacked(block.timestamp,msg.sender,name))) % age;\r\n        patients[msg.sender] = PatientRecord(name, age, nationality, gender, contactNumber, email, patientID, medical_records, Verification = false);\r\n\r\n    }\r\n    function verification(address patient_address) public onlyOwner{\r\n        require(patients[patient_address].Verification != true, \"Already Verified\");\r\n        patients[patient_address].Verification = true;\r\n    }\r\n    function getPatientRecord(address patientAddress)\r\n        public\r\n        view\r\n        onlyOwner\r\n        verified\r\n        returns (\r\n            string memory name, \r\n            uint age,\r\n            string memory nationality,\r\n            string memory gender,\r\n            string memory contactNumber, \r\n            string memory email,\r\n            uint patientID\r\n            ){\r\n            return (\r\n            patients[patientAddress].name,\r\n            patients[patientAddress].age,\r\n            patients[patientAddress].nationality,\r\n            patients[patientAddress].gender,\r\n            patients[patientAddress].contactNumber,\r\n            patients[patientAddress].email,\r\n            patients[patientAddress].patientID\r\n        );\r\n        }\r\n}\r\n\r\ninterface PatientInfoInterface {\r\n    function getPatientRecord(address patientAddress)\r\n        external\r\n        view\r\n        returns (\r\n            string memory name,\r\n            uint age,\r\n            string memory nationality,\r\n            string memory gender,\r\n            string memory contactNumber,\r\n            string memory email,\r\n            uint patientID\r\n        );\r\n    function requestApproval(address practitioner) external;\r\n}\r\n\r\ninterface PracInfoInterface {\r\n    function getPracRecord(address prac_address) \r\n        external \r\n        view \r\n        returns (\r\n            string memory name,\r\n            uint age,\r\n            string memory gender,\r\n            string memory contactNumber,\r\n            string memory prac_ID,\r\n            string memory patientIDs\r\n        );\r\n    function verification(address prac_address) external;\r\n}\r\n\r\ncontract AccessControl {\r\n    address private owner;\r\n    mapping(address => mapping(address => bool)) private access;\r\n\r\n    modifier onlyOwner() {\r\n        require(\r\n            msg.sender == owner,\r\n            \"Only contract owner can perform this action.\"\r\n        );\r\n        _;\r\n    }\r\n\r\n    constructor() {\r\n        owner = msg.sender;\r\n    }\r\n\r\n    function grantAccess(address patient, address practitioner)\r\n        public\r\n    {\r\n        access[patient][practitioner] = true;\r\n    }\r\n\r\n    function revokeAccess(address patient, address practitioner)\r\n        public\r\n    {\r\n        access[patient][practitioner] = false;\r\n    }\r\n\r\n    function checkAccess(address patient, address practitioner)\r\n        public\r\n        view\r\n        returns (bool)\r\n    {\r\n        return access[patient][practitioner];\r\n    }\r\n}\r\n\r\ncontract MedicalRecordAccess is AccessControl {\r\n    PatientInfoInterface private patientInfo;\r\n    PracInfoInterface private pracInfo;\r\n\r\n    constructor(address _patientInfoAddress, address _pracInfoAddress) {\r\n        patientInfo = PatientInfoInterface(_patientInfoAddress);\r\n        pracInfo = PracInfoInterface(_pracInfoAddress);\r\n    }\r\n\r\n    function requestAccess()\r\n        public\r\n    {\r\n        patientInfo.requestApproval(msg.sender);\r\n    }\r\n\r\n    function grantAccess(address patientAddress)\r\n        public\r\n    {\r\n        require(patientAddress != address(0), \"Invalid patient address.\");\r\n        require(checkAccess(patientAddress, msg.sender), \"Access not granted by patient.\");\r\n        pracInfo.verification(msg.sender);\r\n        grantAccess(patientAddress, msg.sender);\r\n    }\r\n\r\n    function getPatientRecord(address patientAddress)\r\n        public\r\n        view\r\n        returns (\r\n            string memory name,\r\n            uint age,\r\n            string memory nationality,\r\n            string memory gender,\r\n            string memory contactNumber,\r\n            string memory email,\r\n            uint patientID\r\n        )\r\n    {\r\n        require(checkAccess(patientAddress, msg.sender), \"Access not granted.\");\r\n        return patientInfo.getPatientRecord(patientAddress);\r\n    }\r\n\r\n    function getPracRecord()\r\n        public\r\n        view\r\n        returns (\r\n            string memory name,\r\n            uint age,\r\n            string memory gender,\r\n            string memory contactNumber,\r\n            string memory prac_ID,\r\n            string memory patientIDs\r\n        )\r\n    {\r\n        require(checkAccess(msg.sender, address(0)), \"Access not granted.\");\r\n        return pracInfo.getPracRecord(msg.sender);\r\n    }\r\n}\r\n",
  "sourcePath": "C:\\Users\\ajsty\\OneDrive\\Desktop\\VS_Code\\HealthCareDataManagement\\contracts\\test.sol",
  "compiler": {
    "name": "solc",
    "version": "0.8.17+commit.8df45f5f.Emscripten.clang"
  },
  "schemaVersion": "3.4.11",
  "updatedAt": "2023-03-31T10:53:24.866Z",
  "devdoc": {
    "kind": "dev",
    "methods": {},
    "version": 1
  },
  "userdoc": {
    "kind": "user",
    "methods": {},
    "version": 1
  }
}