{
  "contractName": "PatientInfo",
  "abi": [
    {
      "inputs": [],
      "stateMutability": "nonpayable",
      "type": "constructor"
    },
    {
      "inputs": [
        {
          "internalType": "string",
          "name": "name",
          "type": "string"
        },
        {
          "internalType": "uint256",
          "name": "age",
          "type": "uint256"
        },
        {
          "internalType": "string",
          "name": "nationality",
          "type": "string"
        },
        {
          "internalType": "string",
          "name": "gender",
          "type": "string"
        },
        {
          "internalType": "string",
          "name": "contactNumber",
          "type": "string"
        },
        {
          "internalType": "string",
          "name": "email",
          "type": "string"
        },
        {
          "internalType": "string",
          "name": "add",
          "type": "string"
        }
      ],
      "name": "create_Pat_Record",
      "outputs": [],
      "stateMutability": "nonpayable",
      "type": "function"
    },
    {
      "inputs": [
        {
          "internalType": "address",
          "name": "patient_address",
          "type": "address"
        }
      ],
      "name": "verification",
      "outputs": [],
      "stateMutability": "nonpayable",
      "type": "function"
    },
    {
      "inputs": [
        {
          "internalType": "address",
          "name": "patientAddress",
          "type": "address"
        }
      ],
      "name": "getPatientRecord",
      "outputs": [
        {
          "internalType": "string",
          "name": "name",
          "type": "string"
        },
        {
          "internalType": "uint256",
          "name": "age",
          "type": "uint256"
        },
        {
          "internalType": "string",
          "name": "nationality",
          "type": "string"
        },
        {
          "internalType": "string",
          "name": "gender",
          "type": "string"
        },
        {
          "internalType": "string",
          "name": "contactNumber",
          "type": "string"
        },
        {
          "internalType": "string",
          "name": "email",
          "type": "string"
        }
      ],
      "stateMutability": "view",
      "type": "function"
    }
  ],
  "bytecode": "0x608060405234801561001057600080fd5b50336000806101000a81548173ffffffffffffffffffffffffffffffffffffffff021916908373ffffffffffffffffffffffffffffffffffffffff1602179055506112d2806100606000396000f3fe608060405234801561001057600080fd5b50600436106100415760003560e01c8063186071741461004657806392b4e1321461007b578063f118f73f14610097575b600080fd5b610060600480360381019061005b91906109bd565b6100b3565b60405161007296959493929190610a93565b60405180910390f35b610095600480360381019061009091906109bd565b61063f565b005b6100b160048036038101906100ac9190610c78565b6107c0565b005b6060600060608060608060008054906101000a900473ffffffffffffffffffffffffffffffffffffffff1673ffffffffffffffffffffffffffffffffffffffff163373ffffffffffffffffffffffffffffffffffffffff161461014b576040517f08c379a000000000000000000000000000000000000000000000000000000000815260040161014290610e34565b60405180910390fd5b60001515600160003373ffffffffffffffffffffffffffffffffffffffff1673ffffffffffffffffffffffffffffffffffffffff16815260200190815260200160002060070160009054906101000a900460ff161515036101e1576040517f08c379a00000000000000000000000000000000000000000000000000000000081526004016101d890610ec6565b60405180910390fd5b600160008873ffffffffffffffffffffffffffffffffffffffff1673ffffffffffffffffffffffffffffffffffffffff168152602001908152602001600020600001600160008973ffffffffffffffffffffffffffffffffffffffff1673ffffffffffffffffffffffffffffffffffffffff16815260200190815260200160002060010154600160008a73ffffffffffffffffffffffffffffffffffffffff1673ffffffffffffffffffffffffffffffffffffffff168152602001908152602001600020600201600160008b73ffffffffffffffffffffffffffffffffffffffff1673ffffffffffffffffffffffffffffffffffffffff168152602001908152602001600020600301600160008c73ffffffffffffffffffffffffffffffffffffffff1673ffffffffffffffffffffffffffffffffffffffff168152602001908152602001600020600401600160008d73ffffffffffffffffffffffffffffffffffffffff1673ffffffffffffffffffffffffffffffffffffffff16815260200190815260200160002060050185805461037a90610f15565b80601f01602080910402602001604051908101604052809291908181526020018280546103a690610f15565b80156103f35780601f106103c8576101008083540402835291602001916103f3565b820191906000526020600020905b8154815290600101906020018083116103d657829003601f168201915b5050505050955083805461040690610f15565b80601f016020809104026020016040519081016040528092919081815260200182805461043290610f15565b801561047f5780601f106104545761010080835404028352916020019161047f565b820191906000526020600020905b81548152906001019060200180831161046257829003601f168201915b5050505050935082805461049290610f15565b80601f01602080910402602001604051908101604052809291908181526020018280546104be90610f15565b801561050b5780601f106104e05761010080835404028352916020019161050b565b820191906000526020600020905b8154815290600101906020018083116104ee57829003601f168201915b5050505050925081805461051e90610f15565b80601f016020809104026020016040519081016040528092919081815260200182805461054a90610f15565b80156105975780601f1061056c57610100808354040283529160200191610597565b820191906000526020600020905b81548152906001019060200180831161057a57829003601f168201915b505050505091508080546105aa90610f15565b80601f01602080910402602001604051908101604052809291908181526020018280546105d690610f15565b80156106235780601f106105f857610100808354040283529160200191610623565b820191906000526020600020905b81548152906001019060200180831161060657829003601f168201915b5050505050905095509550955095509550955091939550919395565b60008054906101000a900473ffffffffffffffffffffffffffffffffffffffff1673ffffffffffffffffffffffffffffffffffffffff163373ffffffffffffffffffffffffffffffffffffffff16146106cd576040517f08c379a00000000000000000000000000000000000000000000000000000000081526004016106c490610e34565b60405180910390fd5b60011515600160008373ffffffffffffffffffffffffffffffffffffffff1673ffffffffffffffffffffffffffffffffffffffff16815260200190815260200160002060070160009054906101000a900460ff16151503610763576040517f08c379a000000000000000000000000000000000000000000000000000000000815260040161075a90610f92565b60405180910390fd5b60018060008373ffffffffffffffffffffffffffffffffffffffff1673ffffffffffffffffffffffffffffffffffffffff16815260200190815260200160002060070160006101000a81548160ff02191690831515021790555050565b6000861180156107d05750607886105b61080f576040517f08c379a000000000000000000000000000000000000000000000000000000000815260040161080690610ffe565b60405180910390fd5b600060405180610100016040528089815260200188815260200187815260200186815260200185815260200184815260200183815260200160009250821515815250600160003373ffffffffffffffffffffffffffffffffffffffff1673ffffffffffffffffffffffffffffffffffffffff16815260200190815260200160002060008201518160000190816108a591906111ca565b506020820151816001015560408201518160020190816108c591906111ca565b5060608201518160030190816108db91906111ca565b5060808201518160040190816108f191906111ca565b5060a082015181600501908161090791906111ca565b5060c082015181600601908161091d91906111ca565b5060e08201518160070160006101000a81548160ff0219169083151502179055509050505050505050505050565b6000604051905090565b600080fd5b600080fd5b600073ffffffffffffffffffffffffffffffffffffffff82169050919050565b600061098a8261095f565b9050919050565b61099a8161097f565b81146109a557600080fd5b50565b6000813590506109b781610991565b92915050565b6000602082840312156109d3576109d2610955565b5b60006109e1848285016109a8565b91505092915050565b600081519050919050565b600082825260208201905092915050565b60005b83811015610a24578082015181840152602081019050610a09565b60008484015250505050565b6000601f19601f8301169050919050565b6000610a4c826109ea565b610a5681856109f5565b9350610a66818560208601610a06565b610a6f81610a30565b840191505092915050565b6000819050919050565b610a8d81610a7a565b82525050565b600060c0820190508181036000830152610aad8189610a41565b9050610abc6020830188610a84565b8181036040830152610ace8187610a41565b90508181036060830152610ae28186610a41565b90508181036080830152610af68185610a41565b905081810360a0830152610b0a8184610a41565b9050979650505050505050565b600080fd5b600080fd5b7f4e487b7100000000000000000000000000000000000000000000000000000000600052604160045260246000fd5b610b5982610a30565b810181811067ffffffffffffffff82111715610b7857610b77610b21565b5b80604052505050565b6000610b8b61094b565b9050610b978282610b50565b919050565b600067ffffffffffffffff821115610bb757610bb6610b21565b5b610bc082610a30565b9050602081019050919050565b82818337600083830152505050565b6000610bef610bea84610b9c565b610b81565b905082815260208101848484011115610c0b57610c0a610b1c565b5b610c16848285610bcd565b509392505050565b600082601f830112610c3357610c32610b17565b5b8135610c43848260208601610bdc565b91505092915050565b610c5581610a7a565b8114610c6057600080fd5b50565b600081359050610c7281610c4c565b92915050565b600080600080600080600060e0888a031215610c9757610c96610955565b5b600088013567ffffffffffffffff811115610cb557610cb461095a565b5b610cc18a828b01610c1e565b9750506020610cd28a828b01610c63565b965050604088013567ffffffffffffffff811115610cf357610cf261095a565b5b610cff8a828b01610c1e565b955050606088013567ffffffffffffffff811115610d2057610d1f61095a565b5b610d2c8a828b01610c1e565b945050608088013567ffffffffffffffff811115610d4d57610d4c61095a565b5b610d598a828b01610c1e565b93505060a088013567ffffffffffffffff811115610d7a57610d7961095a565b5b610d868a828b01610c1e565b92505060c088013567ffffffffffffffff811115610da757610da661095a565b5b610db38a828b01610c1e565b91505092959891949750929550565b7f4f6e6c7920636f6e7472616374206f776e65722063616e20706572666f726d2060008201527f7468697320616374696f6e2e0000000000000000000000000000000000000000602082015250565b6000610e1e602c836109f5565b9150610e2982610dc2565b604082019050919050565b60006020820190508181036000830152610e4d81610e11565b9050919050565b7f5468652050617469656e74206e6565647320746f20626520766572696669656460008201527f2066697273740000000000000000000000000000000000000000000000000000602082015250565b6000610eb06026836109f5565b9150610ebb82610e54565b604082019050919050565b60006020820190508181036000830152610edf81610ea3565b9050919050565b7f4e487b7100000000000000000000000000000000000000000000000000000000600052602260045260246000fd5b60006002820490506001821680610f2d57607f821691505b602082108103610f4057610f3f610ee6565b5b50919050565b7f416c726561647920566572696669656400000000000000000000000000000000600082015250565b6000610f7c6010836109f5565b9150610f8782610f46565b602082019050919050565b60006020820190508181036000830152610fab81610f6f565b9050919050565b7f496e76616c6964206167652e0000000000000000000000000000000000000000600082015250565b6000610fe8600c836109f5565b9150610ff382610fb2565b602082019050919050565b6000602082019050818103600083015261101781610fdb565b9050919050565b60008190508160005260206000209050919050565b60006020601f8301049050919050565b600082821b905092915050565b6000600883026110807fffffffffffffffffffffffffffffffffffffffffffffffffffffffffffffffff82611043565b61108a8683611043565b95508019841693508086168417925050509392505050565b6000819050919050565b60006110c76110c26110bd84610a7a565b6110a2565b610a7a565b9050919050565b6000819050919050565b6110e1836110ac565b6110f56110ed826110ce565b848454611050565b825550505050565b600090565b61110a6110fd565b6111158184846110d8565b505050565b5b818110156111395761112e600082611102565b60018101905061111b565b5050565b601f82111561117e5761114f8161101e565b61115884611033565b81016020851015611167578190505b61117b61117385611033565b83018261111a565b50505b505050565b600082821c905092915050565b60006111a160001984600802611183565b1980831691505092915050565b60006111ba8383611190565b9150826002028217905092915050565b6111d3826109ea565b67ffffffffffffffff8111156111ec576111eb610b21565b5b6111f68254610f15565b61120182828561113d565b600060209050601f8311600181146112345760008415611222578287015190505b61122c85826111ae565b865550611294565b601f1984166112428661101e565b60005b8281101561126a57848901518255600182019150602085019450602081019050611245565b868310156112875784890151611283601f891682611190565b8355505b6001600288020188555050505b50505050505056fea2646970667358221220146e09fdc503274d676b4570a2312cdf26ad844aecf2289e237603942b6cc31764736f6c63430008110033",
  "immutableReferences": {},
  "source": "// SPDX-License-Identifier: MIT\r\npragma solidity 0.8.17;\r\n\r\ncontract PatientInfo {\r\n    address private owner;\r\n\r\n    struct PatientRecord {\r\n        string name; // full name of the individual\r\n        uint age; // date of birth of the individual (format: YYYY-MM-DD)\r\n        string nationality; // nationality of the individual\r\n        string gender; // gender of the individual\r\n        string contactNumber; // contact number of the individual\r\n        string email; // email address of the individual\r\n        string add;\r\n        bool Verification;\r\n    }\r\n    mapping(address => PatientRecord) private patients;\r\n\r\n    modifier onlyOwner() {\r\n        require(\r\n            msg.sender == owner,\r\n            \"Only contract owner can perform this action.\"\r\n        );\r\n        _;\r\n    }\r\n    modifier verified(){\r\n        require(\r\n            patients[msg.sender].Verification != false,\r\n            \"The Patient needs to be verified first\"\r\n        );\r\n        _;\r\n    }\r\n    constructor() {\r\n        owner = msg.sender;\r\n    }\r\n    function create_Pat_Record(\r\n        string memory name, \r\n        uint age,\r\n        string memory nationality,\r\n        string memory gender,\r\n        string memory contactNumber, \r\n        string memory email,\r\n        string memory add\r\n     \r\n    ) public{\r\n        require(age > 0 && age < 120, \"Invalid age.\");\r\n        bool Verification;\r\n        patients[msg.sender] = PatientRecord(name, age, nationality, gender, contactNumber, email, add, Verification = false);\r\n\r\n    }\r\n    function verification(address patient_address) public onlyOwner{\r\n        require(patients[patient_address].Verification != true, \"Already Verified\");\r\n        patients[patient_address].Verification = true;\r\n    }\r\n    function getPatientRecord(address patientAddress)\r\n        public\r\n        view\r\n        onlyOwner\r\n        verified\r\n        returns (\r\n            string memory name, \r\n            uint age,\r\n            string memory nationality,\r\n            string memory gender,\r\n            string memory contactNumber, \r\n            string memory email\r\n            ){\r\n            return (\r\n            patients[patientAddress].name,\r\n            patients[patientAddress].age,\r\n            patients[patientAddress].nationality,\r\n            patients[patientAddress].gender,\r\n            patients[patientAddress].contactNumber,\r\n            patients[patientAddress].email\r\n            \r\n        );\r\n        }\r\n}\r\n",
  "sourcePath": "C:\\Users\\ajsty\\OneDrive\\Desktop\\VS_Code\\HealthCareDataManagement\\contracts\\PatientInfo.sol",
  "compiler": {
    "name": "solc",
    "version": "0.8.17+commit.8df45f5f.Emscripten.clang"
  },
  "schemaVersion": "3.4.11",
  "updatedAt": "2023-03-22T16:11:18.409Z",
  "networkType": "ethereum",
  "devdoc": {
    "kind": "dev",
    "methods": {},
    "version": 1
  },
  "userdoc": {
    "kind": "user",
    "methods": {},
    "version": 1
  }
}