{
  "contractName": "PatientInfo",
  "abi": [
    {
      "inputs": [],
      "stateMutability": "nonpayable",
      "type": "constructor"
    },
    {
      "inputs": [
        {
          "internalType": "string",
          "name": "name",
          "type": "string"
        },
        {
          "internalType": "uint256",
          "name": "age",
          "type": "uint256"
        },
        {
          "internalType": "string",
          "name": "nationality",
          "type": "string"
        },
        {
          "internalType": "string",
          "name": "gender",
          "type": "string"
        },
        {
          "internalType": "string",
          "name": "contactNumber",
          "type": "string"
        },
        {
          "internalType": "string",
          "name": "email",
          "type": "string"
        }
      ],
      "name": "create_Pat_Record",
      "outputs": [],
      "stateMutability": "nonpayable",
      "type": "function"
    },
    {
      "inputs": [
        {
          "internalType": "address",
          "name": "patient_address",
          "type": "address"
        }
      ],
      "name": "verification",
      "outputs": [],
      "stateMutability": "nonpayable",
      "type": "function"
    },
    {
      "inputs": [
        {
          "internalType": "address",
          "name": "patientAddress",
          "type": "address"
        }
      ],
      "name": "getPatientRecord",
      "outputs": [
        {
          "internalType": "string",
          "name": "name",
          "type": "string"
        },
        {
          "internalType": "uint256",
          "name": "age",
          "type": "uint256"
        },
        {
          "internalType": "string",
          "name": "nationality",
          "type": "string"
        },
        {
          "internalType": "string",
          "name": "gender",
          "type": "string"
        },
        {
          "internalType": "string",
          "name": "contactNumber",
          "type": "string"
        },
        {
          "internalType": "string",
          "name": "email",
          "type": "string"
        },
        {
          "internalType": "uint256",
          "name": "patientID",
          "type": "uint256"
        }
      ],
      "stateMutability": "view",
      "type": "function",
      "constant": true
    },
    {
      "inputs": [
        {
          "internalType": "address",
          "name": "patientAddress",
          "type": "address"
        }
      ],
      "name": "getPatientRecord_for_prac",
      "outputs": [
        {
          "internalType": "string",
          "name": "name",
          "type": "string"
        },
        {
          "internalType": "uint256",
          "name": "age",
          "type": "uint256"
        },
        {
          "internalType": "string",
          "name": "nationality",
          "type": "string"
        },
        {
          "internalType": "string",
          "name": "gender",
          "type": "string"
        },
        {
          "internalType": "string",
          "name": "contactNumber",
          "type": "string"
        },
        {
          "internalType": "string",
          "name": "email",
          "type": "string"
        },
        {
          "internalType": "uint256",
          "name": "patientID",
          "type": "uint256"
        }
      ],
      "stateMutability": "view",
      "type": "function",
      "constant": true
    }
  ],
  "bytecode": "0x608060405234801561001057600080fd5b50336000806101000a81548173ffffffffffffffffffffffffffffffffffffffff021916908373ffffffffffffffffffffffffffffffffffffffff1602179055506117aa806100606000396000f3fe608060405234801561001057600080fd5b506004361061004c5760003560e01c806318607174146100515780634a17fdc01461008757806392b4e132146100a3578063a9666ba1146100bf575b600080fd5b61006b60048036038101906100669190610e0c565b6100f5565b60405161007e9796959493929190610ee2565b60405180910390f35b6100a1600480360381019061009c91906110d5565b61063b565b005b6100bd60048036038101906100b89190610e0c565b6107f6565b005b6100d960048036038101906100d49190610e0c565b6108e9565b6040516100ec9796959493929190610ee2565b60405180910390f35b606060006060806060806000801515600160003373ffffffffffffffffffffffffffffffffffffffff1673ffffffffffffffffffffffffffffffffffffffff16815260200190815260200160002060070160009054906101000a900460ff16151503610196576040517f08c379a000000000000000000000000000000000000000000000000000000000815260040161018d90611260565b60405180910390fd5b600160008973ffffffffffffffffffffffffffffffffffffffff1673ffffffffffffffffffffffffffffffffffffffff168152602001908152602001600020600001600160008a73ffffffffffffffffffffffffffffffffffffffff1673ffffffffffffffffffffffffffffffffffffffff16815260200190815260200160002060010154600160008b73ffffffffffffffffffffffffffffffffffffffff1673ffffffffffffffffffffffffffffffffffffffff168152602001908152602001600020600201600160008c73ffffffffffffffffffffffffffffffffffffffff1673ffffffffffffffffffffffffffffffffffffffff168152602001908152602001600020600301600160008d73ffffffffffffffffffffffffffffffffffffffff1673ffffffffffffffffffffffffffffffffffffffff168152602001908152602001600020600401600160008e73ffffffffffffffffffffffffffffffffffffffff1673ffffffffffffffffffffffffffffffffffffffff168152602001908152602001600020600501600160008f73ffffffffffffffffffffffffffffffffffffffff1673ffffffffffffffffffffffffffffffffffffffff16815260200190815260200160002060060154868054610372906112af565b80601f016020809104026020016040519081016040528092919081815260200182805461039e906112af565b80156103eb5780601f106103c0576101008083540402835291602001916103eb565b820191906000526020600020905b8154815290600101906020018083116103ce57829003601f168201915b505050505096508480546103fe906112af565b80601f016020809104026020016040519081016040528092919081815260200182805461042a906112af565b80156104775780601f1061044c57610100808354040283529160200191610477565b820191906000526020600020905b81548152906001019060200180831161045a57829003601f168201915b5050505050945083805461048a906112af565b80601f01602080910402602001604051908101604052809291908181526020018280546104b6906112af565b80156105035780601f106104d857610100808354040283529160200191610503565b820191906000526020600020905b8154815290600101906020018083116104e657829003601f168201915b50505050509350828054610516906112af565b80601f0160208091040260200160405190810160405280929190818152602001828054610542906112af565b801561058f5780601f106105645761010080835404028352916020019161058f565b820191906000526020600020905b81548152906001019060200180831161057257829003601f168201915b505050505092508180546105a2906112af565b80601f01602080910402602001604051908101604052809291908181526020018280546105ce906112af565b801561061b5780601f106105f05761010080835404028352916020019161061b565b820191906000526020600020905b8154815290600101906020018083116105fe57829003601f168201915b505050505091509650965096509650965096509650919395979092949650565b60008511801561064b5750607885105b61068a576040517f08c379a00000000000000000000000000000000000000000000000000000000081526004016106819061132c565b60405180910390fd5b6000808642338a6040516020016106a3939291906113f1565b6040516020818303038152906040528051906020012060001c6106c69190611459565b905060405180610100016040528089815260200188815260200187815260200186815260200185815260200184815260200182815260200160009350831515815250600160003373ffffffffffffffffffffffffffffffffffffffff1673ffffffffffffffffffffffffffffffffffffffff168152602001908152602001600020600082015181600001908161075c9190611636565b5060208201518160010155604082015181600201908161077c9190611636565b5060608201518160030190816107929190611636565b5060808201518160040190816107a89190611636565b5060a08201518160050190816107be9190611636565b5060c0820151816006015560e08201518160070160006101000a81548160ff0219169083151502179055509050505050505050505050565b60011515600160008373ffffffffffffffffffffffffffffffffffffffff1673ffffffffffffffffffffffffffffffffffffffff16815260200190815260200160002060070160009054906101000a900460ff1615150361088c576040517f08c379a000000000000000000000000000000000000000000000000000000000815260040161088390611754565b60405180910390fd5b60018060008373ffffffffffffffffffffffffffffffffffffffff1673ffffffffffffffffffffffffffffffffffffffff16815260200190815260200160002060070160006101000a81548160ff02191690831515021790555050565b606060006060806060806000600160008973ffffffffffffffffffffffffffffffffffffffff1673ffffffffffffffffffffffffffffffffffffffff168152602001908152602001600020600001600160008a73ffffffffffffffffffffffffffffffffffffffff1673ffffffffffffffffffffffffffffffffffffffff16815260200190815260200160002060010154600160008b73ffffffffffffffffffffffffffffffffffffffff1673ffffffffffffffffffffffffffffffffffffffff168152602001908152602001600020600201600160008c73ffffffffffffffffffffffffffffffffffffffff1673ffffffffffffffffffffffffffffffffffffffff168152602001908152602001600020600301600160008d73ffffffffffffffffffffffffffffffffffffffff1673ffffffffffffffffffffffffffffffffffffffff168152602001908152602001600020600401600160008e73ffffffffffffffffffffffffffffffffffffffff1673ffffffffffffffffffffffffffffffffffffffff168152602001908152602001600020600501600160008f73ffffffffffffffffffffffffffffffffffffffff1673ffffffffffffffffffffffffffffffffffffffff16815260200190815260200160002060060154868054610ad1906112af565b80601f0160208091040260200160405190810160405280929190818152602001828054610afd906112af565b8015610b4a5780601f10610b1f57610100808354040283529160200191610b4a565b820191906000526020600020905b815481529060010190602001808311610b2d57829003601f168201915b50505050509650848054610b5d906112af565b80601f0160208091040260200160405190810160405280929190818152602001828054610b89906112af565b8015610bd65780601f10610bab57610100808354040283529160200191610bd6565b820191906000526020600020905b815481529060010190602001808311610bb957829003601f168201915b50505050509450838054610be9906112af565b80601f0160208091040260200160405190810160405280929190818152602001828054610c15906112af565b8015610c625780601f10610c3757610100808354040283529160200191610c62565b820191906000526020600020905b815481529060010190602001808311610c4557829003601f168201915b50505050509350828054610c75906112af565b80601f0160208091040260200160405190810160405280929190818152602001828054610ca1906112af565b8015610cee5780601f10610cc357610100808354040283529160200191610cee565b820191906000526020600020905b815481529060010190602001808311610cd157829003601f168201915b50505050509250818054610d01906112af565b80601f0160208091040260200160405190810160405280929190818152602001828054610d2d906112af565b8015610d7a5780601f10610d4f57610100808354040283529160200191610d7a565b820191906000526020600020905b815481529060010190602001808311610d5d57829003601f168201915b505050505091509650965096509650965096509650919395979092949650565b6000604051905090565b600080fd5b600080fd5b600073ffffffffffffffffffffffffffffffffffffffff82169050919050565b6000610dd982610dae565b9050919050565b610de981610dce565b8114610df457600080fd5b50565b600081359050610e0681610de0565b92915050565b600060208284031215610e2257610e21610da4565b5b6000610e3084828501610df7565b91505092915050565b600081519050919050565b600082825260208201905092915050565b60005b83811015610e73578082015181840152602081019050610e58565b60008484015250505050565b6000601f19601f8301169050919050565b6000610e9b82610e39565b610ea58185610e44565b9350610eb5818560208601610e55565b610ebe81610e7f565b840191505092915050565b6000819050919050565b610edc81610ec9565b82525050565b600060e0820190508181036000830152610efc818a610e90565b9050610f0b6020830189610ed3565b8181036040830152610f1d8188610e90565b90508181036060830152610f318187610e90565b90508181036080830152610f458186610e90565b905081810360a0830152610f598185610e90565b9050610f6860c0830184610ed3565b98975050505050505050565b600080fd5b600080fd5b7f4e487b7100000000000000000000000000000000000000000000000000000000600052604160045260246000fd5b610fb682610e7f565b810181811067ffffffffffffffff82111715610fd557610fd4610f7e565b5b80604052505050565b6000610fe8610d9a565b9050610ff48282610fad565b919050565b600067ffffffffffffffff82111561101457611013610f7e565b5b61101d82610e7f565b9050602081019050919050565b82818337600083830152505050565b600061104c61104784610ff9565b610fde565b90508281526020810184848401111561106857611067610f79565b5b61107384828561102a565b509392505050565b600082601f8301126110905761108f610f74565b5b81356110a0848260208601611039565b91505092915050565b6110b281610ec9565b81146110bd57600080fd5b50565b6000813590506110cf816110a9565b92915050565b60008060008060008060c087890312156110f2576110f1610da4565b5b600087013567ffffffffffffffff8111156111105761110f610da9565b5b61111c89828a0161107b565b965050602061112d89828a016110c0565b955050604087013567ffffffffffffffff81111561114e5761114d610da9565b5b61115a89828a0161107b565b945050606087013567ffffffffffffffff81111561117b5761117a610da9565b5b61118789828a0161107b565b935050608087013567ffffffffffffffff8111156111a8576111a7610da9565b5b6111b489828a0161107b565b92505060a087013567ffffffffffffffff8111156111d5576111d4610da9565b5b6111e189828a0161107b565b9150509295509295509295565b7f5468652050617469656e74206e6565647320746f20626520766572696669656460008201527f2066697273740000000000000000000000000000000000000000000000000000602082015250565b600061124a602683610e44565b9150611255826111ee565b604082019050919050565b600060208201905081810360008301526112798161123d565b9050919050565b7f4e487b7100000000000000000000000000000000000000000000000000000000600052602260045260246000fd5b600060028204905060018216806112c757607f821691505b6020821081036112da576112d9611280565b5b50919050565b7f496e76616c6964206167652e0000000000000000000000000000000000000000600082015250565b6000611316600c83610e44565b9150611321826112e0565b602082019050919050565b6000602082019050818103600083015261134581611309565b9050919050565b6000819050919050565b61136761136282610ec9565b61134c565b82525050565b60008160601b9050919050565b60006113858261136d565b9050919050565b60006113978261137a565b9050919050565b6113af6113aa82610dce565b61138c565b82525050565b600081905092915050565b60006113cb82610e39565b6113d581856113b5565b93506113e5818560208601610e55565b80840191505092915050565b60006113fd8286611356565b60208201915061140d828561139e565b60148201915061141d82846113c0565b9150819050949350505050565b7f4e487b7100000000000000000000000000000000000000000000000000000000600052601260045260246000fd5b600061146482610ec9565b915061146f83610ec9565b92508261147f5761147e61142a565b5b828206905092915050565b60008190508160005260206000209050919050565b60006020601f8301049050919050565b600082821b905092915050565b6000600883026114ec7fffffffffffffffffffffffffffffffffffffffffffffffffffffffffffffffff826114af565b6114f686836114af565b95508019841693508086168417925050509392505050565b6000819050919050565b600061153361152e61152984610ec9565b61150e565b610ec9565b9050919050565b6000819050919050565b61154d83611518565b6115616115598261153a565b8484546114bc565b825550505050565b600090565b611576611569565b611581818484611544565b505050565b5b818110156115a55761159a60008261156e565b600181019050611587565b5050565b601f8211156115ea576115bb8161148a565b6115c48461149f565b810160208510156115d3578190505b6115e76115df8561149f565b830182611586565b50505b505050565b600082821c905092915050565b600061160d600019846008026115ef565b1980831691505092915050565b600061162683836115fc565b9150826002028217905092915050565b61163f82610e39565b67ffffffffffffffff81111561165857611657610f7e565b5b61166282546112af565b61166d8282856115a9565b600060209050601f8311600181146116a0576000841561168e578287015190505b611698858261161a565b865550611700565b601f1984166116ae8661148a565b60005b828110156116d6578489015182556001820191506020850194506020810190506116b1565b868310156116f357848901516116ef601f8916826115fc565b8355505b6001600288020188555050505b505050505050565b7f416c726561647920566572696669656400000000000000000000000000000000600082015250565b600061173e601083610e44565b915061174982611708565b602082019050919050565b6000602082019050818103600083015261176d81611731565b905091905056fea26469706673582212207fe62647da402968fd0aee3ddee1fc829f2f7583ba7e593ca7a85a0f71c2ff0464736f6c63430008110033",
  "immutableReferences": {},
  "source": "// SPDX-License-Identifier: MIT\r\npragma solidity 0.8.17;\r\n\r\ncontract PatientInfo {\r\n    address private owner;\r\n\r\n    struct PatientRecord {\r\n        string name; \r\n        uint age; \r\n        string nationality; \r\n        string gender; \r\n        string contactNumber; \r\n        string email; \r\n        uint patientID;\r\n        bool Verification;\r\n    }\r\n    mapping(address => PatientRecord) private patients;\r\n\r\n    modifier onlyOwner() {\r\n        require(\r\n            msg.sender == owner,\r\n            \"Only contract owner can perform this action.\"\r\n        );\r\n        _;\r\n    }\r\n    modifier verified(){\r\n        require(\r\n            patients[msg.sender].Verification != false,\r\n            \"The Patient needs to be verified first\"\r\n        );\r\n        _;\r\n    }\r\n    constructor() {\r\n        owner = msg.sender;\r\n    }\r\n    function create_Pat_Record(\r\n        string memory name, \r\n        uint age,\r\n        string memory nationality,\r\n        string memory gender,\r\n        string memory contactNumber, \r\n        string memory email\r\n    ) public{\r\n        require(age > 0 && age < 120, \"Invalid age.\");\r\n        bool Verification;\r\n        uint patientID = uint(keccak256(abi.encodePacked(block.timestamp,msg.sender,name))) % age;\r\n        patients[msg.sender] = PatientRecord(name, age, nationality, gender, contactNumber, email, patientID, Verification = false);\r\n\r\n    }\r\n    function verification(address patient_address) public {\r\n        require(patients[patient_address].Verification != true, \"Already Verified\");\r\n        patients[patient_address].Verification = true;\r\n    }\r\n    function getPatientRecord(address patientAddress)\r\n        public\r\n        view\r\n        verified\r\n        returns (\r\n            string memory name, \r\n            uint age,\r\n            string memory nationality,\r\n            string memory gender,\r\n            string memory contactNumber, \r\n            string memory email,\r\n            uint patientID\r\n            ){\r\n            return (\r\n            patients[patientAddress].name,\r\n            patients[patientAddress].age,\r\n            patients[patientAddress].nationality,\r\n            patients[patientAddress].gender,\r\n            patients[patientAddress].contactNumber,\r\n            patients[patientAddress].email,\r\n            patients[patientAddress].patientID\r\n        );\r\n        }\r\n    function getPatientRecord_for_prac(address patientAddress)\r\n        public\r\n        view\r\n        returns (\r\n            string memory name, \r\n            uint age,\r\n            string memory nationality,\r\n            string memory gender,\r\n            string memory contactNumber, \r\n            string memory email,\r\n            uint patientID\r\n            ){\r\n            return (\r\n            patients[patientAddress].name,\r\n            patients[patientAddress].age,\r\n            patients[patientAddress].nationality,\r\n            patients[patientAddress].gender,\r\n            patients[patientAddress].contactNumber,\r\n            patients[patientAddress].email,\r\n            patients[patientAddress].patientID\r\n        );\r\n        }\r\n}",
  "sourcePath": "C:\\Users\\ajsty\\OneDrive\\Desktop\\VS_Code\\Hoscryp\\contracts\\Patient_Info.sol",
  "compiler": {
    "name": "solc",
    "version": "0.8.17+commit.8df45f5f.Emscripten.clang"
  },
  "schemaVersion": "3.4.11",
  "updatedAt": "2023-04-04T07:46:55.427Z",
  "networkType": "ethereum",
  "devdoc": {
    "kind": "dev",
    "methods": {},
    "version": 1
  },
  "userdoc": {
    "kind": "user",
    "methods": {},
    "version": 1
  }
}