{
  "contractName": "PatientInfo",
  "abi": [
    {
      "inputs": [],
      "stateMutability": "nonpayable",
      "type": "constructor"
    },
    {
      "inputs": [
        {
          "internalType": "address",
          "name": "pracInfo_address",
          "type": "address"
        }
      ],
      "name": "newcontract",
      "outputs": [],
      "stateMutability": "nonpayable",
      "type": "function"
    },
    {
      "inputs": [
        {
          "internalType": "string",
          "name": "name",
          "type": "string"
        },
        {
          "internalType": "uint256",
          "name": "age",
          "type": "uint256"
        },
        {
          "internalType": "string",
          "name": "gender",
          "type": "string"
        },
        {
          "internalType": "string",
          "name": "contactNumber",
          "type": "string"
        },
        {
          "internalType": "address[]",
          "name": "prac_Ids",
          "type": "address[]"
        }
      ],
      "name": "create_Pat_Record",
      "outputs": [],
      "stateMutability": "nonpayable",
      "type": "function"
    },
    {
      "inputs": [
        {
          "internalType": "address",
          "name": "patient_address",
          "type": "address"
        }
      ],
      "name": "verification",
      "outputs": [],
      "stateMutability": "nonpayable",
      "type": "function"
    },
    {
      "inputs": [
        {
          "internalType": "address",
          "name": "patientAddress",
          "type": "address"
        }
      ],
      "name": "getPatientRecord_for_prac",
      "outputs": [
        {
          "internalType": "string",
          "name": "name",
          "type": "string"
        },
        {
          "internalType": "uint256",
          "name": "patientID",
          "type": "uint256"
        },
        {
          "internalType": "address[]",
          "name": "prac_Ids",
          "type": "address[]"
        },
        {
          "internalType": "bool",
          "name": "prac_side",
          "type": "bool"
        },
        {
          "internalType": "bool",
          "name": "pat_side",
          "type": "bool"
        }
      ],
      "stateMutability": "view",
      "type": "function",
      "constant": true
    },
    {
      "inputs": [
        {
          "internalType": "address",
          "name": "practioneraddress",
          "type": "address"
        },
        {
          "internalType": "bool",
          "name": "permission",
          "type": "bool"
        },
        {
          "internalType": "address",
          "name": "patientaddress",
          "type": "address"
        }
      ],
      "name": "grantAccess",
      "outputs": [],
      "stateMutability": "nonpayable",
      "type": "function"
    },
    {
      "inputs": [
        {
          "internalType": "address",
          "name": "patientaddress",
          "type": "address"
        },
        {
          "internalType": "address",
          "name": "practitioneraddress",
          "type": "address"
        }
      ],
      "name": "approved",
      "outputs": [
        {
          "internalType": "address[]",
          "name": "",
          "type": "address[]"
        }
      ],
      "stateMutability": "view",
      "type": "function",
      "constant": true
    },
    {
      "inputs": [
        {
          "internalType": "address",
          "name": "patientaddress",
          "type": "address"
        },
        {
          "internalType": "address",
          "name": "hash",
          "type": "address"
        },
        {
          "internalType": "address",
          "name": "practioneraddress",
          "type": "address"
        }
      ],
      "name": "addRecord",
      "outputs": [],
      "stateMutability": "nonpayable",
      "type": "function"
    }
  ],
  "bytecode": "0x608060405234801561001057600080fd5b50336000806101000a81548173ffffffffffffffffffffffffffffffffffffffff021916908373ffffffffffffffffffffffffffffffffffffffff160217905550611bd6806100606000396000f3fe608060405234801561001057600080fd5b506004361061007d5760003560e01c8063a9666ba11161005b578063a9666ba1146100d6578063d9528b631461010a578063e1eed3a814610126578063f4b16045146101425761007d565b806345c52f07146100825780635afc74c31461009e57806392b4e132146100ba575b600080fd5b61009c60048036038101906100979190610e6f565b610172565b005b6100b860048036038101906100b39190611106565b61039d565b005b6100d460048036038101906100cf91906111f1565b6105a0565b005b6100f060048036038101906100eb91906111f1565b610694565b604051610101959493929190611385565b60405180910390f35b610124600480360381019061011f9190611412565b61092b565b005b610140600480360381019061013b91906111f1565b610b15565b005b61015c60048036038101906101579190611465565b610bef565b60405161016991906114a5565b60405180910390f35b60001515600260003373ffffffffffffffffffffffffffffffffffffffff1673ffffffffffffffffffffffffffffffffffffffff16815260200190815260200160002060050160009054906101000a900460ff16151503610208576040517f08c379a00000000000000000000000000000000000000000000000000000000081526004016101ff90611539565b60405180910390fd5b8073ffffffffffffffffffffffffffffffffffffffff16600260008573ffffffffffffffffffffffffffffffffffffffff1673ffffffffffffffffffffffffffffffffffffffff16815260200190815260200160002060060160008154811061027457610273611559565b5b9060005260206000200160009054906101000a900473ffffffffffffffffffffffffffffffffffffffff1673ffffffffffffffffffffffffffffffffffffffff16146102f5576040517f08c379a00000000000000000000000000000000000000000000000000000000081526004016102ec906115fa565b60405180910390fd5b600360008473ffffffffffffffffffffffffffffffffffffffff1673ffffffffffffffffffffffffffffffffffffffff168152602001908152602001600020600001829080600181540180825580915050600190039060005260206000200160009091909190916101000a81548173ffffffffffffffffffffffffffffffffffffffff021916908373ffffffffffffffffffffffffffffffffffffffff160217905550505050565b6000841180156103ad5750607884105b6103ec576040517f08c379a00000000000000000000000000000000000000000000000000000000081526004016103e390611666565b60405180910390fd5b6000806000808742338b6040516020016104089392919061172b565b6040516020818303038152906040528051906020012060001c61042b9190611793565b90506040518061012001604052808a815260200189815260200188815260200187815260200182815260200160009550851515815260200160009450841515815260200186815260200160009350831515815250600260003373ffffffffffffffffffffffffffffffffffffffff1673ffffffffffffffffffffffffffffffffffffffff16815260200190815260200160002060008201518160000190816104d391906119d0565b506020820151816001015560408201518160020190816104f391906119d0565b50606082015181600301908161050991906119d0565b506080820151816004015560a08201518160050160006101000a81548160ff02191690831515021790555060c08201518160050160016101000a81548160ff02191690831515021790555060e0820151816006019080519060200190610570929190610d56565b506101008201518160070160006101000a81548160ff021916908315150217905550905050505050505050505050565b60011515600260008373ffffffffffffffffffffffffffffffffffffffff1673ffffffffffffffffffffffffffffffffffffffff16815260200190815260200160002060050160009054906101000a900460ff16151503610636576040517f08c379a000000000000000000000000000000000000000000000000000000000815260040161062d90611aee565b60405180910390fd5b6001600260008373ffffffffffffffffffffffffffffffffffffffff1673ffffffffffffffffffffffffffffffffffffffff16815260200190815260200160002060050160006101000a81548160ff02191690831515021790555050565b606060006060600080600260008773ffffffffffffffffffffffffffffffffffffffff1673ffffffffffffffffffffffffffffffffffffffff168152602001908152602001600020600001600260008873ffffffffffffffffffffffffffffffffffffffff1673ffffffffffffffffffffffffffffffffffffffff16815260200190815260200160002060040154600260008973ffffffffffffffffffffffffffffffffffffffff1673ffffffffffffffffffffffffffffffffffffffff168152602001908152602001600020600601600260008a73ffffffffffffffffffffffffffffffffffffffff1673ffffffffffffffffffffffffffffffffffffffff16815260200190815260200160002060050160019054906101000a900460ff16600260008b73ffffffffffffffffffffffffffffffffffffffff1673ffffffffffffffffffffffffffffffffffffffff16815260200190815260200160002060070160009054906101000a900460ff16848054610810906117f3565b80601f016020809104026020016040519081016040528092919081815260200182805461083c906117f3565b80156108895780601f1061085e57610100808354040283529160200191610889565b820191906000526020600020905b81548152906001019060200180831161086c57829003601f168201915b505050505094508280548060200260200160405190810160405280929190818152602001828054801561091157602002820191906000526020600020905b8160009054906101000a900473ffffffffffffffffffffffffffffffffffffffff1673ffffffffffffffffffffffffffffffffffffffff16815260200190600101908083116108c7575b505050505092509450945094509450945091939590929450565b81600260008373ffffffffffffffffffffffffffffffffffffffff1673ffffffffffffffffffffffffffffffffffffffff16815260200190815260200160002060050160016101000a81548160ff0219169083151502179055506000600260008373ffffffffffffffffffffffffffffffffffffffff1673ffffffffffffffffffffffffffffffffffffffff1681526020019081526020016000206006018054905014610a1357600260008273ffffffffffffffffffffffffffffffffffffffff1673ffffffffffffffffffffffffffffffffffffffff168152602001908152602001600020505b600260008273ffffffffffffffffffffffffffffffffffffffff1673ffffffffffffffffffffffffffffffffffffffff168152602001908152602001600020600601839080600181540180825580915050600190039060005260206000200160009091909190916101000a81548173ffffffffffffffffffffffffffffffffffffffff021916908373ffffffffffffffffffffffffffffffffffffffff16021790555081600260008373ffffffffffffffffffffffffffffffffffffffff1673ffffffffffffffffffffffffffffffffffffffff16815260200190815260200160002060070160006101000a81548160ff021916908315150217905550505050565b60001515600260003373ffffffffffffffffffffffffffffffffffffffff1673ffffffffffffffffffffffffffffffffffffffff16815260200190815260200160002060050160009054906101000a900460ff16151503610bab576040517f08c379a0000000000000000000000000000000000000000000000000000000008152600401610ba290611539565b60405180910390fd5b80600160006101000a81548173ffffffffffffffffffffffffffffffffffffffff021916908373ffffffffffffffffffffffffffffffffffffffff16021790555050565b606060011515600260008573ffffffffffffffffffffffffffffffffffffffff1673ffffffffffffffffffffffffffffffffffffffff16815260200190815260200160002060070160009054906101000a900460ff16151514610c87576040517f08c379a0000000000000000000000000000000000000000000000000000000008152600401610c7e90611b80565b60405180910390fd5b600360008473ffffffffffffffffffffffffffffffffffffffff1673ffffffffffffffffffffffffffffffffffffffff168152602001908152602001600020600001805480602002602001604051908101604052809291908181526020018280548015610d4957602002820191906000526020600020905b8160009054906101000a900473ffffffffffffffffffffffffffffffffffffffff1673ffffffffffffffffffffffffffffffffffffffff1681526020019060010190808311610cff575b5050505050905092915050565b828054828255906000526020600020908101928215610dcf579160200282015b82811115610dce5782518260006101000a81548173ffffffffffffffffffffffffffffffffffffffff021916908373ffffffffffffffffffffffffffffffffffffffff16021790555091602001919060010190610d76565b5b509050610ddc9190610de0565b5090565b5b80821115610df9576000816000905550600101610de1565b5090565b6000604051905090565b600080fd5b600080fd5b600073ffffffffffffffffffffffffffffffffffffffff82169050919050565b6000610e3c82610e11565b9050919050565b610e4c81610e31565b8114610e5757600080fd5b50565b600081359050610e6981610e43565b92915050565b600080600060608486031215610e8857610e87610e07565b5b6000610e9686828701610e5a565b9350506020610ea786828701610e5a565b9250506040610eb886828701610e5a565b9150509250925092565b600080fd5b600080fd5b6000601f19601f8301169050919050565b7f4e487b7100000000000000000000000000000000000000000000000000000000600052604160045260246000fd5b610f1582610ecc565b810181811067ffffffffffffffff82111715610f3457610f33610edd565b5b80604052505050565b6000610f47610dfd565b9050610f538282610f0c565b919050565b600067ffffffffffffffff821115610f7357610f72610edd565b5b610f7c82610ecc565b9050602081019050919050565b82818337600083830152505050565b6000610fab610fa684610f58565b610f3d565b905082815260208101848484011115610fc757610fc6610ec7565b5b610fd2848285610f89565b509392505050565b600082601f830112610fef57610fee610ec2565b5b8135610fff848260208601610f98565b91505092915050565b6000819050919050565b61101b81611008565b811461102657600080fd5b50565b60008135905061103881611012565b92915050565b600067ffffffffffffffff82111561105957611058610edd565b5b602082029050602081019050919050565b600080fd5b600061108261107d8461103e565b610f3d565b905080838252602082019050602084028301858111156110a5576110a461106a565b5b835b818110156110ce57806110ba8882610e5a565b8452602084019350506020810190506110a7565b5050509392505050565b600082601f8301126110ed576110ec610ec2565b5b81356110fd84826020860161106f565b91505092915050565b600080600080600060a0868803121561112257611121610e07565b5b600086013567ffffffffffffffff8111156111405761113f610e0c565b5b61114c88828901610fda565b955050602061115d88828901611029565b945050604086013567ffffffffffffffff81111561117e5761117d610e0c565b5b61118a88828901610fda565b935050606086013567ffffffffffffffff8111156111ab576111aa610e0c565b5b6111b788828901610fda565b925050608086013567ffffffffffffffff8111156111d8576111d7610e0c565b5b6111e4888289016110d8565b9150509295509295909350565b60006020828403121561120757611206610e07565b5b600061121584828501610e5a565b91505092915050565b600081519050919050565b600082825260208201905092915050565b60005b8381101561125857808201518184015260208101905061123d565b60008484015250505050565b600061126f8261121e565b6112798185611229565b935061128981856020860161123a565b61129281610ecc565b840191505092915050565b6112a681611008565b82525050565b600081519050919050565b600082825260208201905092915050565b6000819050602082019050919050565b6112e181610e31565b82525050565b60006112f383836112d8565b60208301905092915050565b6000602082019050919050565b6000611317826112ac565b61132181856112b7565b935061132c836112c8565b8060005b8381101561135d57815161134488826112e7565b975061134f836112ff565b925050600181019050611330565b5085935050505092915050565b60008115159050919050565b61137f8161136a565b82525050565b600060a082019050818103600083015261139f8188611264565b90506113ae602083018761129d565b81810360408301526113c0818661130c565b90506113cf6060830185611376565b6113dc6080830184611376565b9695505050505050565b6113ef8161136a565b81146113fa57600080fd5b50565b60008135905061140c816113e6565b92915050565b60008060006060848603121561142b5761142a610e07565b5b600061143986828701610e5a565b935050602061144a868287016113fd565b925050604061145b86828701610e5a565b9150509250925092565b6000806040838503121561147c5761147b610e07565b5b600061148a85828601610e5a565b925050602061149b85828601610e5a565b9150509250929050565b600060208201905081810360008301526114bf818461130c565b905092915050565b7f5468652050617469656e74206e6565647320746f20626520766572696669656460008201527f2066697273740000000000000000000000000000000000000000000000000000602082015250565b6000611523602683611229565b915061152e826114c7565b604082019050919050565b6000602082019050818103600083015261155281611516565b9050919050565b7f4e487b7100000000000000000000000000000000000000000000000000000000600052603260045260246000fd5b7f596f7520617265206e6f7420617574686f72697a656420746f2061646420612060008201527f5265636f72640000000000000000000000000000000000000000000000000000602082015250565b60006115e4602683611229565b91506115ef82611588565b604082019050919050565b60006020820190508181036000830152611613816115d7565b9050919050565b7f496e76616c6964206167652e0000000000000000000000000000000000000000600082015250565b6000611650600c83611229565b915061165b8261161a565b602082019050919050565b6000602082019050818103600083015261167f81611643565b9050919050565b6000819050919050565b6116a161169c82611008565b611686565b82525050565b60008160601b9050919050565b60006116bf826116a7565b9050919050565b60006116d1826116b4565b9050919050565b6116e96116e482610e31565b6116c6565b82525050565b600081905092915050565b60006117058261121e565b61170f81856116ef565b935061171f81856020860161123a565b80840191505092915050565b60006117378286611690565b60208201915061174782856116d8565b60148201915061175782846116fa565b9150819050949350505050565b7f4e487b7100000000000000000000000000000000000000000000000000000000600052601260045260246000fd5b600061179e82611008565b91506117a983611008565b9250826117b9576117b8611764565b5b828206905092915050565b7f4e487b7100000000000000000000000000000000000000000000000000000000600052602260045260246000fd5b6000600282049050600182168061180b57607f821691505b60208210810361181e5761181d6117c4565b5b50919050565b60008190508160005260206000209050919050565b60006020601f8301049050919050565b600082821b905092915050565b6000600883026118867fffffffffffffffffffffffffffffffffffffffffffffffffffffffffffffffff82611849565b6118908683611849565b95508019841693508086168417925050509392505050565b6000819050919050565b60006118cd6118c86118c384611008565b6118a8565b611008565b9050919050565b6000819050919050565b6118e7836118b2565b6118fb6118f3826118d4565b848454611856565b825550505050565b600090565b611910611903565b61191b8184846118de565b505050565b5b8181101561193f57611934600082611908565b600181019050611921565b5050565b601f8211156119845761195581611824565b61195e84611839565b8101602085101561196d578190505b61198161197985611839565b830182611920565b50505b505050565b600082821c905092915050565b60006119a760001984600802611989565b1980831691505092915050565b60006119c08383611996565b9150826002028217905092915050565b6119d98261121e565b67ffffffffffffffff8111156119f2576119f1610edd565b5b6119fc82546117f3565b611a07828285611943565b600060209050601f831160018114611a3a5760008415611a28578287015190505b611a3285826119b4565b865550611a9a565b601f198416611a4886611824565b60005b82811015611a7057848901518255600182019150602085019450602081019050611a4b565b86831015611a8d5784890151611a89601f891682611996565b8355505b6001600288020188555050505b505050505050565b7f416c726561647920566572696669656400000000000000000000000000000000600082015250565b6000611ad8601083611229565b9150611ae382611aa2565b602082019050919050565b60006020820190508181036000830152611b0781611acb565b9050919050565b7f596f7520646f206e6f7420686176652061636365737320746f2074686973207260008201527f65636f7264000000000000000000000000000000000000000000000000000000602082015250565b6000611b6a602583611229565b9150611b7582611b0e565b604082019050919050565b60006020820190508181036000830152611b9981611b5d565b905091905056fea2646970667358221220f1ed102042cdcb37a0f37a3bca8dc9d32105857350b3abbae92ab1225dfe723164736f6c63430008110033",
  "immutableReferences": {},
  "source": "// SPDX-License-Identifier: MIT\r\npragma solidity 0.8.17;\r\nimport \"./PractitionerInfo.sol\";\r\ncontract PatientInfo {\r\n    address private owner;\r\n    Prac_Info private practitioner_;\r\n    struct PatientRecord {\r\n        string name; \r\n        uint age; \r\n        string gender; \r\n        string contactNumber; \r\n        uint patientID;\r\n        bool Verification;\r\n        bool prac_side;\r\n        address[] prac_Ids;\r\n        bool pat_side;\r\n    }\r\n    mapping(address => PatientRecord) private patients;\r\n\r\n    struct MedicalRecord{\r\n        address[] hash;\r\n    }\r\n    mapping(address => MedicalRecord) private records;\r\n    modifier onlyOwner() {\r\n        require(\r\n            msg.sender == owner,\r\n            \"Only contract owner can perform this action.\"\r\n        );\r\n        _;\r\n    }\r\n    modifier verified(){\r\n        require(\r\n            patients[msg.sender].Verification != false,\r\n            \"The Patient needs to be verified first\"\r\n        );\r\n        _;\r\n    }\r\n    constructor() {\r\n        owner = msg.sender;\r\n    }\r\n    function newcontract(address pracInfo_address) public verified{\r\n        practitioner_ = Prac_Info(pracInfo_address);\r\n    }\r\n\r\n    function create_Pat_Record(\r\n        string memory name, \r\n        uint age,\r\n        string memory gender,\r\n        string memory contactNumber, \r\n        address[] memory prac_Ids\r\n    ) public{\r\n        require(age > 0 && age < 120, \"Invalid age.\");\r\n        bool Verification;\r\n        bool prac_side;\r\n        bool pat_side;\r\n        uint patientID = uint(keccak256(abi.encodePacked(block.timestamp,msg.sender,name))) % age;\r\n        patients[msg.sender] = PatientRecord(name, age, gender, contactNumber, patientID, Verification = false, prac_side = false, prac_Ids, pat_side = false);\r\n\r\n    }\r\n    function verification(address patient_address) public {\r\n        require(patients[patient_address].Verification != true, \"Already Verified\");\r\n        patients[patient_address].Verification = true;\r\n    }\r\n    function getPatientRecord_for_prac(address patientAddress)\r\n        external\r\n        view\r\n        returns (\r\n            string memory name,\r\n            uint patientID,\r\n            address[] memory prac_Ids,\r\n            bool prac_side,\r\n            bool pat_side\r\n\r\n            ){\r\n            return (\r\n            patients[patientAddress].name,\r\n            patients[patientAddress].patientID,\r\n            patients[patientAddress].prac_Ids,\r\n            patients[patientAddress].prac_side,\r\n            patients[patientAddress].pat_side\r\n\r\n        );\r\n        }\r\n    function grantAccess(address practioneraddress, bool permission, address patientaddress) external {\r\n        patients[patientaddress].prac_side = permission;\r\n        if(patients[patientaddress].prac_Ids.length != 0){\r\n            patients[patientaddress].prac_Ids.pop;\r\n        }\r\n        patients[patientaddress].prac_Ids.push(practioneraddress);\r\n        patients[patientaddress].pat_side = permission;\r\n    }\r\n\r\n    function approved(address patientaddress, address practitioneraddress) public view returns(address[] memory){\r\n        require(patients[patientaddress].pat_side == true, \"You do not have access to this record\") ;\r\n        return(\r\n            records[patientaddress].hash\r\n        );\r\n    }\r\n    function addRecord(address patientaddress, address hash, address practioneraddress) public verified{\r\n        require(patients[patientaddress].prac_Ids[0] == practioneraddress, \"You are not authorized to add a Record\");\r\n        records[patientaddress].hash.push(hash);\r\n    }\r\n}",
  "sourcePath": "C:\\Users\\ajsty\\OneDrive\\Desktop\\VS_Code\\Hoscryp\\contracts\\PatientInfo.sol",
  "compiler": {
    "name": "solc",
    "version": "0.8.17+commit.8df45f5f.Emscripten.clang"
  },
  "schemaVersion": "3.4.11",
  "updatedAt": "2023-04-06T13:16:39.880Z",
  "networkType": "ethereum",
  "devdoc": {
    "kind": "dev",
    "methods": {},
    "version": 1
  },
  "userdoc": {
    "kind": "user",
    "methods": {},
    "version": 1
  }
}