{
  "contractName": "PatientInfo",
  "abi": [
    {
      "inputs": [],
      "stateMutability": "nonpayable",
      "type": "constructor"
    },
    {
      "inputs": [
        {
          "components": [
            {
              "internalType": "string",
              "name": "name",
              "type": "string"
            },
            {
              "internalType": "uint256",
              "name": "age",
              "type": "uint256"
            },
            {
              "internalType": "string",
              "name": "nationality",
              "type": "string"
            },
            {
              "internalType": "string",
              "name": "gender",
              "type": "string"
            },
            {
              "internalType": "string",
              "name": "contactNumber",
              "type": "string"
            },
            {
              "internalType": "string",
              "name": "email",
              "type": "string"
            }
          ],
          "internalType": "struct PatientInfo.PersonalDetails",
          "name": "personaldetails",
          "type": "tuple"
        },
        {
          "components": [
            {
              "internalType": "string[]",
              "name": "record_CIDs",
              "type": "string[]"
            },
            {
              "internalType": "bool",
              "name": "display",
              "type": "bool"
            }
          ],
          "internalType": "struct PatientInfo.MedicalRecord",
          "name": "medicalrecord",
          "type": "tuple"
        }
      ],
      "name": "create_Pat_Record",
      "outputs": [],
      "stateMutability": "nonpayable",
      "type": "function"
    },
    {
      "inputs": [
        {
          "internalType": "address",
          "name": "patient_address",
          "type": "address"
        }
      ],
      "name": "verification",
      "outputs": [],
      "stateMutability": "nonpayable",
      "type": "function"
    },
    {
      "inputs": [
        {
          "internalType": "address",
          "name": "patientAddress",
          "type": "address"
        }
      ],
      "name": "getPatientRecord",
      "outputs": [
        {
          "components": [
            {
              "internalType": "string",
              "name": "name",
              "type": "string"
            },
            {
              "internalType": "uint256",
              "name": "age",
              "type": "uint256"
            },
            {
              "internalType": "string",
              "name": "nationality",
              "type": "string"
            },
            {
              "internalType": "string",
              "name": "gender",
              "type": "string"
            },
            {
              "internalType": "string",
              "name": "contactNumber",
              "type": "string"
            },
            {
              "internalType": "string",
              "name": "email",
              "type": "string"
            }
          ],
          "internalType": "struct PatientInfo.PersonalDetails",
          "name": "personaldetails",
          "type": "tuple"
        },
        {
          "internalType": "uint256",
          "name": "patientID",
          "type": "uint256"
        },
        {
          "components": [
            {
              "internalType": "string[]",
              "name": "record_CIDs",
              "type": "string[]"
            },
            {
              "internalType": "bool",
              "name": "display",
              "type": "bool"
            }
          ],
          "internalType": "struct PatientInfo.MedicalRecord",
          "name": "medicalRecord",
          "type": "tuple"
        }
      ],
      "stateMutability": "view",
      "type": "function",
      "constant": true
    },
    {
      "inputs": [
        {
          "internalType": "bool",
          "name": "access",
          "type": "bool"
        },
        {
          "internalType": "address",
          "name": "patientAddress",
          "type": "address"
        }
      ],
      "name": "Medical_Records",
      "outputs": [],
      "stateMutability": "nonpayable",
      "type": "function"
    }
  ],
  "bytecode": "0x608060405234801561001057600080fd5b50336000806101000a81548173ffffffffffffffffffffffffffffffffffffffff021916908373ffffffffffffffffffffffffffffffffffffffff1602179055506119dd806100606000396000f3fe608060405234801561001057600080fd5b506004361061004c5760003560e01c806318607174146100515780633654d508146100835780637bd802631461009f57806392b4e132146100bb575b600080fd5b61006b60048036038101906100669190610bc8565b6100d7565b60405161007a93929190610e6c565b60405180910390f35b61009d600480360381019061009891906112c6565b610647565b005b6100b960048036038101906100b4919061133e565b610848565b005b6100d560048036038101906100d09190610bc8565b6108a9565b005b6100df610a2a565b60006100e9610a60565b60001515600160003373ffffffffffffffffffffffffffffffffffffffff1673ffffffffffffffffffffffffffffffffffffffff16815260200190815260200160002060070160009054906101000a900460ff1615150361017f576040517f08c379a000000000000000000000000000000000000000000000000000000000815260040161017690611401565b60405180910390fd5b600160008573ffffffffffffffffffffffffffffffffffffffff1673ffffffffffffffffffffffffffffffffffffffff168152602001908152602001600020600001600160008673ffffffffffffffffffffffffffffffffffffffff1673ffffffffffffffffffffffffffffffffffffffff16815260200190815260200160002060060154600160008773ffffffffffffffffffffffffffffffffffffffff1673ffffffffffffffffffffffffffffffffffffffff168152602001908152602001600020600801826040518060c001604052908160008201805461026290611450565b80601f016020809104026020016040519081016040528092919081815260200182805461028e90611450565b80156102db5780601f106102b0576101008083540402835291602001916102db565b820191906000526020600020905b8154815290600101906020018083116102be57829003601f168201915b50505050508152602001600182015481526020016002820180546102fe90611450565b80601f016020809104026020016040519081016040528092919081815260200182805461032a90611450565b80156103775780601f1061034c57610100808354040283529160200191610377565b820191906000526020600020905b81548152906001019060200180831161035a57829003601f168201915b5050505050815260200160038201805461039090611450565b80601f01602080910402602001604051908101604052809291908181526020018280546103bc90611450565b80156104095780601f106103de57610100808354040283529160200191610409565b820191906000526020600020905b8154815290600101906020018083116103ec57829003601f168201915b5050505050815260200160048201805461042290611450565b80601f016020809104026020016040519081016040528092919081815260200182805461044e90611450565b801561049b5780601f106104705761010080835404028352916020019161049b565b820191906000526020600020905b81548152906001019060200180831161047e57829003601f168201915b505050505081526020016005820180546104b490611450565b80601f01602080910402602001604051908101604052809291908181526020018280546104e090611450565b801561052d5780601f106105025761010080835404028352916020019161052d565b820191906000526020600020905b81548152906001019060200180831161051057829003601f168201915b50505050508152505092508060405180604001604052908160008201805480602002602001604051908101604052809291908181526020016000905b8282101561061557838290600052602060002001805461058890611450565b80601f01602080910402602001604051908101604052809291908181526020018280546105b490611450565b80156106015780601f106105d657610100808354040283529160200191610601565b820191906000526020600020905b8154815290600101906020018083116105e457829003601f168201915b505050505081526020019060010190610569565b5050505081526020016001820160009054906101000a900460ff16151515158152505090509250925092509193909250565b6000826020015111801561065f575060788260200151105b61069e576040517f08c379a0000000000000000000000000000000000000000000000000000000008152600401610695906114cd565b60405180910390fd5b6000808360200151423386600001516040516020016106bf93929190611592565b6040516020818303038152906040528051906020012060001c6106e291906115fa565b9050604051806080016040528085815260200182815260200160009350831515815260200184815250600160003373ffffffffffffffffffffffffffffffffffffffff1673ffffffffffffffffffffffffffffffffffffffff168152602001908152602001600020600082015181600001600082015181600001908161076891906117d7565b5060208201518160010155604082015181600201908161078891906117d7565b50606082015181600301908161079e91906117d7565b5060808201518160040190816107b491906117d7565b5060a08201518160050190816107ca91906117d7565b5050506020820151816006015560408201518160070160006101000a81548160ff021916908315150217905550606082015181600801600082015181600001908051906020019061081c929190610a7c565b5060208201518160010160006101000a81548160ff021916908315150217905550505090505050505050565b81600160008373ffffffffffffffffffffffffffffffffffffffff1673ffffffffffffffffffffffffffffffffffffffff16815260200190815260200160002060080160010160006101000a81548160ff0219169083151502179055505050565b60008054906101000a900473ffffffffffffffffffffffffffffffffffffffff1673ffffffffffffffffffffffffffffffffffffffff163373ffffffffffffffffffffffffffffffffffffffff1614610937576040517f08c379a000000000000000000000000000000000000000000000000000000000815260040161092e9061191b565b60405180910390fd5b60011515600160008373ffffffffffffffffffffffffffffffffffffffff1673ffffffffffffffffffffffffffffffffffffffff16815260200190815260200160002060070160009054906101000a900460ff161515036109cd576040517f08c379a00000000000000000000000000000000000000000000000000000000081526004016109c490611987565b60405180910390fd5b60018060008373ffffffffffffffffffffffffffffffffffffffff1673ffffffffffffffffffffffffffffffffffffffff16815260200190815260200160002060070160006101000a81548160ff02191690831515021790555050565b6040518060c001604052806060815260200160008152602001606081526020016060815260200160608152602001606081525090565b6040518060400160405280606081526020016000151581525090565b828054828255906000526020600020908101928215610ac4579160200282015b82811115610ac3578251829081610ab391906117d7565b5091602001919060010190610a9c565b5b509050610ad19190610ad5565b5090565b5b80821115610af55760008181610aec9190610af9565b50600101610ad6565b5090565b508054610b0590611450565b6000825580601f10610b175750610b36565b601f016020900490600052602060002090810190610b359190610b39565b5b50565b5b80821115610b52576000816000905550600101610b3a565b5090565b6000604051905090565b600080fd5b600080fd5b600073ffffffffffffffffffffffffffffffffffffffff82169050919050565b6000610b9582610b6a565b9050919050565b610ba581610b8a565b8114610bb057600080fd5b50565b600081359050610bc281610b9c565b92915050565b600060208284031215610bde57610bdd610b60565b5b6000610bec84828501610bb3565b91505092915050565b600081519050919050565b600082825260208201905092915050565b60005b83811015610c2f578082015181840152602081019050610c14565b60008484015250505050565b6000601f19601f8301169050919050565b6000610c5782610bf5565b610c618185610c00565b9350610c71818560208601610c11565b610c7a81610c3b565b840191505092915050565b6000819050919050565b610c9881610c85565b82525050565b600060c0830160008301518482036000860152610cbb8282610c4c565b9150506020830151610cd06020860182610c8f565b5060408301518482036040860152610ce88282610c4c565b91505060608301518482036060860152610d028282610c4c565b91505060808301518482036080860152610d1c8282610c4c565b91505060a083015184820360a0860152610d368282610c4c565b9150508091505092915050565b610d4c81610c85565b82525050565b600081519050919050565b600082825260208201905092915050565b6000819050602082019050919050565b6000610d8a8383610c4c565b905092915050565b6000602082019050919050565b6000610daa82610d52565b610db48185610d5d565b935083602082028501610dc685610d6e565b8060005b85811015610e025784840389528151610de38582610d7e565b9450610dee83610d92565b925060208a01995050600181019050610dca565b50829750879550505050505092915050565b60008115159050919050565b610e2981610e14565b82525050565b60006040830160008301518482036000860152610e4c8282610d9f565b9150506020830151610e616020860182610e20565b508091505092915050565b60006060820190508181036000830152610e868186610c9e565b9050610e956020830185610d43565b8181036040830152610ea78184610e2f565b9050949350505050565b600080fd5b7f4e487b7100000000000000000000000000000000000000000000000000000000600052604160045260246000fd5b610eee82610c3b565b810181811067ffffffffffffffff82111715610f0d57610f0c610eb6565b5b80604052505050565b6000610f20610b56565b9050610f2c8282610ee5565b919050565b600080fd5b600080fd5b600080fd5b600067ffffffffffffffff821115610f5b57610f5a610eb6565b5b610f6482610c3b565b9050602081019050919050565b82818337600083830152505050565b6000610f93610f8e84610f40565b610f16565b905082815260208101848484011115610faf57610fae610f3b565b5b610fba848285610f71565b509392505050565b600082601f830112610fd757610fd6610f36565b5b8135610fe7848260208601610f80565b91505092915050565b610ff981610c85565b811461100457600080fd5b50565b60008135905061101681610ff0565b92915050565b600060c0828403121561103257611031610eb1565b5b61103c60c0610f16565b9050600082013567ffffffffffffffff81111561105c5761105b610f31565b5b61106884828501610fc2565b600083015250602061107c84828501611007565b602083015250604082013567ffffffffffffffff8111156110a05761109f610f31565b5b6110ac84828501610fc2565b604083015250606082013567ffffffffffffffff8111156110d0576110cf610f31565b5b6110dc84828501610fc2565b606083015250608082013567ffffffffffffffff811115611100576110ff610f31565b5b61110c84828501610fc2565b60808301525060a082013567ffffffffffffffff8111156111305761112f610f31565b5b61113c84828501610fc2565b60a08301525092915050565b600067ffffffffffffffff82111561116357611162610eb6565b5b602082029050602081019050919050565b600080fd5b600061118c61118784611148565b610f16565b905080838252602082019050602084028301858111156111af576111ae611174565b5b835b818110156111f657803567ffffffffffffffff8111156111d4576111d3610f36565b5b8086016111e18982610fc2565b855260208501945050506020810190506111b1565b5050509392505050565b600082601f83011261121557611214610f36565b5b8135611225848260208601611179565b91505092915050565b61123781610e14565b811461124257600080fd5b50565b6000813590506112548161122e565b92915050565b6000604082840312156112705761126f610eb1565b5b61127a6040610f16565b9050600082013567ffffffffffffffff81111561129a57611299610f31565b5b6112a684828501611200565b60008301525060206112ba84828501611245565b60208301525092915050565b600080604083850312156112dd576112dc610b60565b5b600083013567ffffffffffffffff8111156112fb576112fa610b65565b5b6113078582860161101c565b925050602083013567ffffffffffffffff81111561132857611327610b65565b5b6113348582860161125a565b9150509250929050565b6000806040838503121561135557611354610b60565b5b600061136385828601611245565b925050602061137485828601610bb3565b9150509250929050565b600082825260208201905092915050565b7f5468652050617469656e74206e6565647320746f20626520766572696669656460008201527f2066697273740000000000000000000000000000000000000000000000000000602082015250565b60006113eb60268361137e565b91506113f68261138f565b604082019050919050565b6000602082019050818103600083015261141a816113de565b9050919050565b7f4e487b7100000000000000000000000000000000000000000000000000000000600052602260045260246000fd5b6000600282049050600182168061146857607f821691505b60208210810361147b5761147a611421565b5b50919050565b7f496e76616c6964206167652e0000000000000000000000000000000000000000600082015250565b60006114b7600c8361137e565b91506114c282611481565b602082019050919050565b600060208201905081810360008301526114e6816114aa565b9050919050565b6000819050919050565b61150861150382610c85565b6114ed565b82525050565b60008160601b9050919050565b60006115268261150e565b9050919050565b60006115388261151b565b9050919050565b61155061154b82610b8a565b61152d565b82525050565b600081905092915050565b600061156c82610bf5565b6115768185611556565b9350611586818560208601610c11565b80840191505092915050565b600061159e82866114f7565b6020820191506115ae828561153f565b6014820191506115be8284611561565b9150819050949350505050565b7f4e487b7100000000000000000000000000000000000000000000000000000000600052601260045260246000fd5b600061160582610c85565b915061161083610c85565b9250826116205761161f6115cb565b5b828206905092915050565b60008190508160005260206000209050919050565b60006020601f8301049050919050565b600082821b905092915050565b60006008830261168d7fffffffffffffffffffffffffffffffffffffffffffffffffffffffffffffffff82611650565b6116978683611650565b95508019841693508086168417925050509392505050565b6000819050919050565b60006116d46116cf6116ca84610c85565b6116af565b610c85565b9050919050565b6000819050919050565b6116ee836116b9565b6117026116fa826116db565b84845461165d565b825550505050565b600090565b61171761170a565b6117228184846116e5565b505050565b5b818110156117465761173b60008261170f565b600181019050611728565b5050565b601f82111561178b5761175c8161162b565b61176584611640565b81016020851015611774578190505b61178861178085611640565b830182611727565b50505b505050565b600082821c905092915050565b60006117ae60001984600802611790565b1980831691505092915050565b60006117c7838361179d565b9150826002028217905092915050565b6117e082610bf5565b67ffffffffffffffff8111156117f9576117f8610eb6565b5b6118038254611450565b61180e82828561174a565b600060209050601f831160018114611841576000841561182f578287015190505b61183985826117bb565b8655506118a1565b601f19841661184f8661162b565b60005b8281101561187757848901518255600182019150602085019450602081019050611852565b868310156118945784890151611890601f89168261179d565b8355505b6001600288020188555050505b505050505050565b7f4f6e6c7920636f6e7472616374206f776e65722063616e20706572666f726d2060008201527f7468697320616374696f6e2e0000000000000000000000000000000000000000602082015250565b6000611905602c8361137e565b9150611910826118a9565b604082019050919050565b60006020820190508181036000830152611934816118f8565b9050919050565b7f416c726561647920566572696669656400000000000000000000000000000000600082015250565b600061197160108361137e565b915061197c8261193b565b602082019050919050565b600060208201905081810360008301526119a081611964565b905091905056fea2646970667358221220695cc45cb023b6ec3d54746daf489547792a62d47c4af8757fec50203f873a6464736f6c63430008110033",
  "immutableReferences": {},
  "source": "// SPDX-License-Identifier: MIT\r\npragma solidity 0.8.17;\r\n\r\ncontract PatientInfo {\r\n    address private owner;\r\n    struct PatientRecord {\r\n        PersonalDetails personaldetails;\r\n        uint patientID;\r\n        bool Verification;\r\n        MedicalRecord medicalRecord;\r\n    }\r\n    mapping(address => PatientRecord) private patients;\r\n    struct MedicalRecord{\r\n        string[] record_CIDs;\r\n        bool display;\r\n    }\r\n    struct PersonalDetails{\r\n        string name;\r\n        uint age;\r\n        string nationality;\r\n        string gender;\r\n        string contactNumber;\r\n        string email;\r\n    }\r\n    struct LinkInfo {\r\n        address practitioner;\r\n        address patient;\r\n        bool approved_by_pat;\r\n        bool revoked_by_prac;\r\n    }\r\n    mapping(address => LinkInfo) private links;\r\n\r\n    modifier onlyOwner() {\r\n        require(\r\n            msg.sender == owner,\r\n            \"Only contract owner can perform this action.\"\r\n        );\r\n        _;\r\n    }\r\n    modifier verified() {\r\n        require(\r\n            patients[msg.sender].Verification != false,\r\n            \"The Patient needs to be verified first\"\r\n        );\r\n        _;\r\n    }\r\n\r\n    constructor() {\r\n        owner = msg.sender;\r\n    }\r\n\r\n    function create_Pat_Record(\r\n        PersonalDetails memory personaldetails,\r\n        MedicalRecord memory medicalrecord\r\n    ) public {\r\n        require(personaldetails.age > 0 && personaldetails.age < 120, \"Invalid age.\");\r\n        bool Verification;\r\n        uint patientID = uint(\r\n            keccak256(abi.encodePacked(block.timestamp, msg.sender, personaldetails.name))\r\n        ) % personaldetails.age;\r\n        patients[msg.sender] = PatientRecord(\r\n            personaldetails,\r\n            patientID,\r\n            Verification = false,\r\n            medicalrecord\r\n        );\r\n    }\r\n\r\n    function verification(address patient_address) public onlyOwner {\r\n        require(\r\n            patients[patient_address].Verification != true,\r\n            \"Already Verified\"\r\n        );\r\n        patients[patient_address].Verification = true;\r\n    }\r\n\r\n    function getPatientRecord(\r\n        address patientAddress\r\n    )\r\n        public\r\n        view\r\n        verified\r\n        returns (\r\n            PersonalDetails memory personaldetails,\r\n            uint patientID,\r\n            MedicalRecord memory medicalRecord\r\n        )\r\n    {\r\n        return (\r\n            patients[patientAddress].personaldetails,\r\n            patients[patientAddress].patientID,\r\n            patients[patientAddress].medicalRecord\r\n        );\r\n    }\r\n\r\n    function Medical_Records(bool access, address patientAddress) public{\r\n        patients[patientAddress].medicalRecord.display = access;\r\n    }\r\n}\r\n",
  "sourcePath": "C:\\Users\\ajsty\\OneDrive\\Desktop\\VS_Code\\HealthCareDataManagement\\contracts\\PatientInfo.sol",
  "compiler": {
    "name": "solc",
    "version": "0.8.17+commit.8df45f5f.Emscripten.clang"
  },
  "schemaVersion": "3.4.11",
  "updatedAt": "2023-04-01T10:43:18.610Z",
  "networkType": "ethereum",
  "devdoc": {
    "kind": "dev",
    "methods": {},
    "version": 1
  },
  "userdoc": {
    "kind": "user",
    "methods": {},
    "version": 1
  }
}