{
  "contractName": "Prac_Info",
  "abi": [
    {
      "inputs": [],
      "stateMutability": "nonpayable",
      "type": "constructor"
    },
    {
      "inputs": [
        {
          "internalType": "string",
          "name": "name",
          "type": "string"
        },
        {
          "internalType": "uint256",
          "name": "age",
          "type": "uint256"
        },
        {
          "internalType": "string",
          "name": "gender",
          "type": "string"
        },
        {
          "internalType": "string",
          "name": "contactNumber",
          "type": "string"
        },
        {
          "internalType": "string",
          "name": "prac_ID",
          "type": "string"
        },
        {
          "internalType": "string[]",
          "name": "patientIDs",
          "type": "string[]"
        }
      ],
      "name": "create_Prac_Record",
      "outputs": [],
      "stateMutability": "nonpayable",
      "type": "function"
    },
    {
      "inputs": [
        {
          "internalType": "address",
          "name": "prac_address",
          "type": "address"
        }
      ],
      "name": "verification",
      "outputs": [],
      "stateMutability": "nonpayable",
      "type": "function"
    },
    {
      "inputs": [
        {
          "internalType": "address",
          "name": "prac_address",
          "type": "address"
        }
      ],
      "name": "get_prac_record",
      "outputs": [
        {
          "internalType": "string",
          "name": "name",
          "type": "string"
        },
        {
          "internalType": "uint256",
          "name": "age",
          "type": "uint256"
        },
        {
          "internalType": "string",
          "name": "gender",
          "type": "string"
        },
        {
          "internalType": "string",
          "name": "contactNumber",
          "type": "string"
        },
        {
          "internalType": "string",
          "name": "prac_ID",
          "type": "string"
        },
        {
          "internalType": "string[]",
          "name": "patientIDs",
          "type": "string[]"
        }
      ],
      "stateMutability": "view",
      "type": "function",
      "constant": true
    }
  ],
  "bytecode": "0x608060405234801561001057600080fd5b50336000806101000a81548173ffffffffffffffffffffffffffffffffffffffff021916908373ffffffffffffffffffffffffffffffffffffffff16021790555061159d806100606000396000f3fe608060405234801561001057600080fd5b50600436106100415760003560e01c806392b4e13214610046578063cc7184e514610062578063e01c33d014610097575b600080fd5b610060600480360381019061005b9190610ac7565b6100b3565b005b61007c60048036038101906100779190610ac7565b610234565b60405161008e96959493929190610ca9565b60405180910390f35b6100b160048036038101906100ac9190610f74565b610807565b005b60008054906101000a900473ffffffffffffffffffffffffffffffffffffffff1673ffffffffffffffffffffffffffffffffffffffff163373ffffffffffffffffffffffffffffffffffffffff1614610141576040517f08c379a0000000000000000000000000000000000000000000000000000000008152600401610138906110ff565b60405180910390fd5b60011515600160008373ffffffffffffffffffffffffffffffffffffffff1673ffffffffffffffffffffffffffffffffffffffff16815260200190815260200160002060060160009054906101000a900460ff161515036101d7576040517f08c379a00000000000000000000000000000000000000000000000000000000081526004016101ce9061116b565b60405180910390fd5b60018060008373ffffffffffffffffffffffffffffffffffffffff1673ffffffffffffffffffffffffffffffffffffffff16815260200190815260200160002060060160006101000a81548160ff02191690831515021790555050565b6060600060608060608060008054906101000a900473ffffffffffffffffffffffffffffffffffffffff1673ffffffffffffffffffffffffffffffffffffffff163373ffffffffffffffffffffffffffffffffffffffff16146102cc576040517f08c379a00000000000000000000000000000000000000000000000000000000081526004016102c3906110ff565b60405180910390fd5b60001515600160003373ffffffffffffffffffffffffffffffffffffffff1673ffffffffffffffffffffffffffffffffffffffff16815260200190815260200160002060060160009054906101000a900460ff16151503610362576040517f08c379a0000000000000000000000000000000000000000000000000000000008152600401610359906111fd565b60405180910390fd5b600160008873ffffffffffffffffffffffffffffffffffffffff1673ffffffffffffffffffffffffffffffffffffffff168152602001908152602001600020600001600160008973ffffffffffffffffffffffffffffffffffffffff1673ffffffffffffffffffffffffffffffffffffffff16815260200190815260200160002060010154600160008a73ffffffffffffffffffffffffffffffffffffffff1673ffffffffffffffffffffffffffffffffffffffff168152602001908152602001600020600201600160008b73ffffffffffffffffffffffffffffffffffffffff1673ffffffffffffffffffffffffffffffffffffffff168152602001908152602001600020600301600160008c73ffffffffffffffffffffffffffffffffffffffff1673ffffffffffffffffffffffffffffffffffffffff168152602001908152602001600020600401600160008d73ffffffffffffffffffffffffffffffffffffffff1673ffffffffffffffffffffffffffffffffffffffff1681526020019081526020016000206005018580546104fb9061124c565b80601f01602080910402602001604051908101604052809291908181526020018280546105279061124c565b80156105745780601f1061054957610100808354040283529160200191610574565b820191906000526020600020905b81548152906001019060200180831161055757829003601f168201915b505050505095508380546105879061124c565b80601f01602080910402602001604051908101604052809291908181526020018280546105b39061124c565b80156106005780601f106105d557610100808354040283529160200191610600565b820191906000526020600020905b8154815290600101906020018083116105e357829003601f168201915b505050505093508280546106139061124c565b80601f016020809104026020016040519081016040528092919081815260200182805461063f9061124c565b801561068c5780601f106106615761010080835404028352916020019161068c565b820191906000526020600020905b81548152906001019060200180831161066f57829003601f168201915b5050505050925081805461069f9061124c565b80601f01602080910402602001604051908101604052809291908181526020018280546106cb9061124c565b80156107185780601f106106ed57610100808354040283529160200191610718565b820191906000526020600020905b8154815290600101906020018083116106fb57829003601f168201915b5050505050915080805480602002602001604051908101604052809291908181526020016000905b828210156107ec57838290600052602060002001805461075f9061124c565b80601f016020809104026020016040519081016040528092919081815260200182805461078b9061124c565b80156107d85780601f106107ad576101008083540402835291602001916107d8565b820191906000526020600020905b8154815290600101906020018083116107bb57829003601f168201915b505050505081526020019060010190610740565b50505050905095509550955095509550955091939550919395565b6000851180156108175750607885105b610856576040517f08c379a000000000000000000000000000000000000000000000000000000000815260040161084d906112c9565b60405180910390fd5b60006040518060e0016040528088815260200187815260200186815260200185815260200184815260200183815260200160009250821515815250600160003373ffffffffffffffffffffffffffffffffffffffff1673ffffffffffffffffffffffffffffffffffffffff16815260200190815260200160002060008201518160000190816108e59190611495565b506020820151816001015560408201518160020190816109059190611495565b50606082015181600301908161091b9190611495565b5060808201518160040190816109319190611495565b5060a082015181600501908051906020019061094e92919061097b565b5060c08201518160060160006101000a81548160ff02191690831515021790555090505050505050505050565b8280548282559060005260206000209081019282156109c3579160200282015b828111156109c25782518290816109b29190611495565b509160200191906001019061099b565b5b5090506109d091906109d4565b5090565b5b808211156109f457600081816109eb91906109f8565b506001016109d5565b5090565b508054610a049061124c565b6000825580601f10610a165750610a35565b601f016020900490600052602060002090810190610a349190610a38565b5b50565b5b80821115610a51576000816000905550600101610a39565b5090565b6000604051905090565b600080fd5b600080fd5b600073ffffffffffffffffffffffffffffffffffffffff82169050919050565b6000610a9482610a69565b9050919050565b610aa481610a89565b8114610aaf57600080fd5b50565b600081359050610ac181610a9b565b92915050565b600060208284031215610add57610adc610a5f565b5b6000610aeb84828501610ab2565b91505092915050565b600081519050919050565b600082825260208201905092915050565b60005b83811015610b2e578082015181840152602081019050610b13565b60008484015250505050565b6000601f19601f8301169050919050565b6000610b5682610af4565b610b608185610aff565b9350610b70818560208601610b10565b610b7981610b3a565b840191505092915050565b6000819050919050565b610b9781610b84565b82525050565b600081519050919050565b600082825260208201905092915050565b6000819050602082019050919050565b600082825260208201905092915050565b6000610be582610af4565b610bef8185610bc9565b9350610bff818560208601610b10565b610c0881610b3a565b840191505092915050565b6000610c1f8383610bda565b905092915050565b6000602082019050919050565b6000610c3f82610b9d565b610c498185610ba8565b935083602082028501610c5b85610bb9565b8060005b85811015610c975784840389528151610c788582610c13565b9450610c8383610c27565b925060208a01995050600181019050610c5f565b50829750879550505050505092915050565b600060c0820190508181036000830152610cc38189610b4b565b9050610cd26020830188610b8e565b8181036040830152610ce48187610b4b565b90508181036060830152610cf88186610b4b565b90508181036080830152610d0c8185610b4b565b905081810360a0830152610d208184610c34565b9050979650505050505050565b600080fd5b600080fd5b7f4e487b7100000000000000000000000000000000000000000000000000000000600052604160045260246000fd5b610d6f82610b3a565b810181811067ffffffffffffffff82111715610d8e57610d8d610d37565b5b80604052505050565b6000610da1610a55565b9050610dad8282610d66565b919050565b600067ffffffffffffffff821115610dcd57610dcc610d37565b5b610dd682610b3a565b9050602081019050919050565b82818337600083830152505050565b6000610e05610e0084610db2565b610d97565b905082815260208101848484011115610e2157610e20610d32565b5b610e2c848285610de3565b509392505050565b600082601f830112610e4957610e48610d2d565b5b8135610e59848260208601610df2565b91505092915050565b610e6b81610b84565b8114610e7657600080fd5b50565b600081359050610e8881610e62565b92915050565b600067ffffffffffffffff821115610ea957610ea8610d37565b5b602082029050602081019050919050565b600080fd5b6000610ed2610ecd84610e8e565b610d97565b90508083825260208201905060208402830185811115610ef557610ef4610eba565b5b835b81811015610f3c57803567ffffffffffffffff811115610f1a57610f19610d2d565b5b808601610f278982610e34565b85526020850194505050602081019050610ef7565b5050509392505050565b600082601f830112610f5b57610f5a610d2d565b5b8135610f6b848260208601610ebf565b91505092915050565b60008060008060008060c08789031215610f9157610f90610a5f565b5b600087013567ffffffffffffffff811115610faf57610fae610a64565b5b610fbb89828a01610e34565b9650506020610fcc89828a01610e79565b955050604087013567ffffffffffffffff811115610fed57610fec610a64565b5b610ff989828a01610e34565b945050606087013567ffffffffffffffff81111561101a57611019610a64565b5b61102689828a01610e34565b935050608087013567ffffffffffffffff81111561104757611046610a64565b5b61105389828a01610e34565b92505060a087013567ffffffffffffffff81111561107457611073610a64565b5b61108089828a01610f46565b9150509295509295509295565b7f4f6e6c7920436f6e7472616374204f776e65722063616e20706572666f726d2060008201527f7468697320616374696f6e000000000000000000000000000000000000000000602082015250565b60006110e9602b83610aff565b91506110f48261108d565b604082019050919050565b60006020820190508181036000830152611118816110dc565b9050919050565b7f416c726561647920566572696669656400000000000000000000000000000000600082015250565b6000611155601083610aff565b91506111608261111f565b602082019050919050565b6000602082019050818103600083015261118481611148565b9050919050565b7f5468652050726163746974696f6e6572206e6565647320746f2062652056657260008201527f6966696564206669727374000000000000000000000000000000000000000000602082015250565b60006111e7602b83610aff565b91506111f28261118b565b604082019050919050565b60006020820190508181036000830152611216816111da565b9050919050565b7f4e487b7100000000000000000000000000000000000000000000000000000000600052602260045260246000fd5b6000600282049050600182168061126457607f821691505b6020821081036112775761127661121d565b5b50919050565b7f496e76616c696420416765000000000000000000000000000000000000000000600082015250565b60006112b3600b83610aff565b91506112be8261127d565b602082019050919050565b600060208201905081810360008301526112e2816112a6565b9050919050565b60008190508160005260206000209050919050565b60006020601f8301049050919050565b600082821b905092915050565b60006008830261134b7fffffffffffffffffffffffffffffffffffffffffffffffffffffffffffffffff8261130e565b611355868361130e565b95508019841693508086168417925050509392505050565b6000819050919050565b600061139261138d61138884610b84565b61136d565b610b84565b9050919050565b6000819050919050565b6113ac83611377565b6113c06113b882611399565b84845461131b565b825550505050565b600090565b6113d56113c8565b6113e08184846113a3565b505050565b5b81811015611404576113f96000826113cd565b6001810190506113e6565b5050565b601f8211156114495761141a816112e9565b611423846112fe565b81016020851015611432578190505b61144661143e856112fe565b8301826113e5565b50505b505050565b600082821c905092915050565b600061146c6000198460080261144e565b1980831691505092915050565b6000611485838361145b565b9150826002028217905092915050565b61149e82610af4565b67ffffffffffffffff8111156114b7576114b6610d37565b5b6114c1825461124c565b6114cc828285611408565b600060209050601f8311600181146114ff57600084156114ed578287015190505b6114f78582611479565b86555061155f565b601f19841661150d866112e9565b60005b8281101561153557848901518255600182019150602085019450602081019050611510565b86831015611552578489015161154e601f89168261145b565b8355505b6001600288020188555050505b50505050505056fea2646970667358221220b61c8ff7c602a59695919839882acd04b8f86c5d7575923bf802a2adeb759d4164736f6c63430008110033",
  "immutableReferences": {},
  "source": "// SPDX-License-Identifier: MIT\r\npragma solidity 0.8.17;\r\n\r\ncontract Prac_Info {\r\n    address private owner;\r\n    struct Prac_Record {\r\n        string name;\r\n        uint age;\r\n        string gender;\r\n        string contactNumber;\r\n        string prac_ID;\r\n        string[] patientIDs;\r\n        bool Verification;\r\n    }\r\n    mapping(address => Prac_Record) private pracs;\r\n\r\n    modifier onlyOwner() {\r\n        require(\r\n            msg.sender == owner,\r\n            \"Only Contract Owner can perform this action\"\r\n        );\r\n        _;\r\n    }\r\n\r\n    modifier verified() {\r\n        require(\r\n            pracs[msg.sender].Verification != false,\r\n            \"The Practitioner needs to be Verified first\"\r\n        );\r\n        _;\r\n    }\r\n\r\n    constructor() {\r\n        owner = msg.sender;\r\n    }\r\n\r\n    function create_Prac_Record(\r\n        string memory name,\r\n        uint age,\r\n        string memory gender,\r\n        string memory contactNumber,\r\n        string memory prac_ID,\r\n        string[] memory patientIDs\r\n    ) public {\r\n        require(age > 0 && age < 120, \"Invalid Age\");\r\n        bool Verification;\r\n        pracs[msg.sender] = Prac_Record(\r\n            name,\r\n            age,\r\n            gender,\r\n            contactNumber,\r\n            prac_ID,\r\n            patientIDs,\r\n            Verification = false\r\n        );\r\n    }\r\n\r\n    function verification(address prac_address) public onlyOwner {\r\n        require(pracs[prac_address].Verification != true, \"Already Verified\");\r\n        pracs[prac_address].Verification = true;\r\n    }\r\n\r\n    function get_prac_record(\r\n        address prac_address\r\n    )\r\n        public\r\n        view\r\n        onlyOwner\r\n        verified\r\n        returns (\r\n            string memory name,\r\n            uint age,\r\n            string memory gender,\r\n            string memory contactNumber,\r\n            string memory prac_ID,\r\n            string[] memory patientIDs\r\n        )\r\n    {\r\n        return (\r\n            pracs[prac_address].name,\r\n            pracs[prac_address].age,\r\n            pracs[prac_address].gender,\r\n            pracs[prac_address].contactNumber,\r\n            pracs[prac_address].prac_ID,\r\n            pracs[prac_address].patientIDs\r\n        );\r\n    }\r\n}\r\n",
  "sourcePath": "C:\\Users\\ajsty\\OneDrive\\Desktop\\VS_Code\\HealthCareDataManagement\\contracts\\PractitionerInfo.sol",
  "compiler": {
    "name": "solc",
    "version": "0.8.17+commit.8df45f5f.Emscripten.clang"
  },
  "schemaVersion": "3.4.11",
  "updatedAt": "2023-04-01T10:43:20.013Z",
  "networkType": "ethereum",
  "devdoc": {
    "kind": "dev",
    "methods": {},
    "version": 1
  },
  "userdoc": {
    "kind": "user",
    "methods": {},
    "version": 1
  }
}