{
  "contractName": "Prac_Info",
  "abi": [
    {
      "inputs": [],
      "stateMutability": "nonpayable",
      "type": "constructor"
    },
    {
      "inputs": [
        {
          "internalType": "address",
          "name": "patientInfo_address",
          "type": "address"
        }
      ],
      "name": "newcontract",
      "outputs": [],
      "stateMutability": "nonpayable",
      "type": "function"
    },
    {
      "inputs": [
        {
          "internalType": "string",
          "name": "name",
          "type": "string"
        },
        {
          "internalType": "uint256",
          "name": "age",
          "type": "uint256"
        },
        {
          "internalType": "string",
          "name": "gender",
          "type": "string"
        },
        {
          "internalType": "string",
          "name": "contactNumber",
          "type": "string"
        },
        {
          "internalType": "string",
          "name": "prac_ID",
          "type": "string"
        },
        {
          "internalType": "string[]",
          "name": "patientIDs",
          "type": "string[]"
        }
      ],
      "name": "create_Prac_Record",
      "outputs": [],
      "stateMutability": "nonpayable",
      "type": "function"
    },
    {
      "inputs": [
        {
          "internalType": "address",
          "name": "prac_address",
          "type": "address"
        }
      ],
      "name": "verification",
      "outputs": [],
      "stateMutability": "nonpayable",
      "type": "function"
    },
    {
      "inputs": [
        {
          "internalType": "address",
          "name": "prac_address",
          "type": "address"
        }
      ],
      "name": "get_prac_record",
      "outputs": [
        {
          "internalType": "string",
          "name": "name",
          "type": "string"
        },
        {
          "internalType": "uint256",
          "name": "age",
          "type": "uint256"
        },
        {
          "internalType": "string",
          "name": "gender",
          "type": "string"
        },
        {
          "internalType": "string",
          "name": "contactNumber",
          "type": "string"
        },
        {
          "internalType": "string",
          "name": "prac_ID",
          "type": "string"
        },
        {
          "internalType": "string[]",
          "name": "patientIDs",
          "type": "string[]"
        }
      ],
      "stateMutability": "view",
      "type": "function",
      "constant": true
    },
    {
      "inputs": [
        {
          "internalType": "address",
          "name": "patientAddress",
          "type": "address"
        }
      ],
      "name": "get_pat_record",
      "outputs": [
        {
          "internalType": "string",
          "name": "name",
          "type": "string"
        },
        {
          "internalType": "uint256",
          "name": "age",
          "type": "uint256"
        },
        {
          "internalType": "string",
          "name": "nationality",
          "type": "string"
        },
        {
          "internalType": "string",
          "name": "gender",
          "type": "string"
        },
        {
          "internalType": "string",
          "name": "contactNumber",
          "type": "string"
        },
        {
          "internalType": "string",
          "name": "email",
          "type": "string"
        },
        {
          "internalType": "uint256",
          "name": "patientID",
          "type": "uint256"
        }
      ],
      "stateMutability": "view",
      "type": "function",
      "constant": true
    },
    {
      "inputs": [
        {
          "internalType": "address",
          "name": "patient",
          "type": "address"
        },
        {
          "internalType": "address",
          "name": "practitioner",
          "type": "address"
        }
      ],
      "name": "grantAccess",
      "outputs": [],
      "stateMutability": "nonpayable",
      "type": "function"
    },
    {
      "inputs": [
        {
          "internalType": "address",
          "name": "patient",
          "type": "address"
        },
        {
          "internalType": "address",
          "name": "practitioner",
          "type": "address"
        }
      ],
      "name": "revokeAccess",
      "outputs": [],
      "stateMutability": "nonpayable",
      "type": "function"
    }
  ],
  "bytecode": "0x608060405234801561001057600080fd5b50336000806101000a81548173ffffffffffffffffffffffffffffffffffffffff021916908373ffffffffffffffffffffffffffffffffffffffff160217905550611bde806100606000396000f3fe608060405234801561001057600080fd5b506004361061007d5760003560e01c8063c6a09d951161005b578063c6a09d95146100f0578063cc7184e51461010c578063e01c33d014610141578063e1eed3a81461015d5761007d565b80635f6ea340146100825780636d92056f1461009e57806392b4e132146100d4575b600080fd5b61009c60048036038101906100979190610e59565b610179565b005b6100b860048036038101906100b39190610e99565b610212565b6040516100cb9796959493929190610f6f565b60405180910390f35b6100ee60048036038101906100e99190610e99565b610367565b005b61010a60048036038101906101059190610e59565b61045b565b005b61012660048036038101906101219190610e99565b6104f4565b6040516101389695949392919061110d565b60405180910390f35b61015b600480360381019061015691906113d8565b610ac7565b005b61017760048036038101906101729190610e99565b610c3b565b005b6000600260008473ffffffffffffffffffffffffffffffffffffffff1673ffffffffffffffffffffffffffffffffffffffff16815260200190815260200160002060008373ffffffffffffffffffffffffffffffffffffffff1673ffffffffffffffffffffffffffffffffffffffff16815260200190815260200160002060006101000a81548160ff0219169083151502179055505050565b6060600060608060608060008060009054906101000a900473ffffffffffffffffffffffffffffffffffffffff1673ffffffffffffffffffffffffffffffffffffffff163373ffffffffffffffffffffffffffffffffffffffff16146102ad576040517f08c379a00000000000000000000000000000000000000000000000000000000081526004016102a490611563565b60405180910390fd5b600160009054906101000a900473ffffffffffffffffffffffffffffffffffffffff1673ffffffffffffffffffffffffffffffffffffffff1663a9666ba1896040518263ffffffff1660e01b81526004016103089190611592565b600060405180830381865afa158015610325573d6000803e3d6000fd5b505050506040513d6000823e3d601f19601f8201168201806040525081019061034e9190611632565b9650965096509650965096509650919395979092949650565b60011515600360008373ffffffffffffffffffffffffffffffffffffffff1673ffffffffffffffffffffffffffffffffffffffff16815260200190815260200160002060060160009054906101000a900460ff161515036103fd576040517f08c379a00000000000000000000000000000000000000000000000000000000081526004016103f4906117ac565b60405180910390fd5b6001600360008373ffffffffffffffffffffffffffffffffffffffff1673ffffffffffffffffffffffffffffffffffffffff16815260200190815260200160002060060160006101000a81548160ff02191690831515021790555050565b6001600260008473ffffffffffffffffffffffffffffffffffffffff1673ffffffffffffffffffffffffffffffffffffffff16815260200190815260200160002060008373ffffffffffffffffffffffffffffffffffffffff1673ffffffffffffffffffffffffffffffffffffffff16815260200190815260200160002060006101000a81548160ff0219169083151502179055505050565b6060600060608060608060008054906101000a900473ffffffffffffffffffffffffffffffffffffffff1673ffffffffffffffffffffffffffffffffffffffff163373ffffffffffffffffffffffffffffffffffffffff161461058c576040517f08c379a000000000000000000000000000000000000000000000000000000000815260040161058390611563565b60405180910390fd5b60001515600360003373ffffffffffffffffffffffffffffffffffffffff1673ffffffffffffffffffffffffffffffffffffffff16815260200190815260200160002060060160009054906101000a900460ff16151503610622576040517f08c379a00000000000000000000000000000000000000000000000000000000081526004016106199061183e565b60405180910390fd5b600360008873ffffffffffffffffffffffffffffffffffffffff1673ffffffffffffffffffffffffffffffffffffffff168152602001908152602001600020600001600360008973ffffffffffffffffffffffffffffffffffffffff1673ffffffffffffffffffffffffffffffffffffffff16815260200190815260200160002060010154600360008a73ffffffffffffffffffffffffffffffffffffffff1673ffffffffffffffffffffffffffffffffffffffff168152602001908152602001600020600201600360008b73ffffffffffffffffffffffffffffffffffffffff1673ffffffffffffffffffffffffffffffffffffffff168152602001908152602001600020600301600360008c73ffffffffffffffffffffffffffffffffffffffff1673ffffffffffffffffffffffffffffffffffffffff168152602001908152602001600020600401600360008d73ffffffffffffffffffffffffffffffffffffffff1673ffffffffffffffffffffffffffffffffffffffff1681526020019081526020016000206005018580546107bb9061188d565b80601f01602080910402602001604051908101604052809291908181526020018280546107e79061188d565b80156108345780601f1061080957610100808354040283529160200191610834565b820191906000526020600020905b81548152906001019060200180831161081757829003601f168201915b505050505095508380546108479061188d565b80601f01602080910402602001604051908101604052809291908181526020018280546108739061188d565b80156108c05780601f10610895576101008083540402835291602001916108c0565b820191906000526020600020905b8154815290600101906020018083116108a357829003601f168201915b505050505093508280546108d39061188d565b80601f01602080910402602001604051908101604052809291908181526020018280546108ff9061188d565b801561094c5780601f106109215761010080835404028352916020019161094c565b820191906000526020600020905b81548152906001019060200180831161092f57829003601f168201915b5050505050925081805461095f9061188d565b80601f016020809104026020016040519081016040528092919081815260200182805461098b9061188d565b80156109d85780601f106109ad576101008083540402835291602001916109d8565b820191906000526020600020905b8154815290600101906020018083116109bb57829003601f168201915b5050505050915080805480602002602001604051908101604052809291908181526020016000905b82821015610aac578382906000526020600020018054610a1f9061188d565b80601f0160208091040260200160405190810160405280929190818152602001828054610a4b9061188d565b8015610a985780601f10610a6d57610100808354040283529160200191610a98565b820191906000526020600020905b815481529060010190602001808311610a7b57829003601f168201915b505050505081526020019060010190610a00565b50505050905095509550955095509550955091939550919395565b600085118015610ad75750607885105b610b16576040517f08c379a0000000000000000000000000000000000000000000000000000000008152600401610b0d9061190a565b60405180910390fd5b60006040518060e0016040528088815260200187815260200186815260200185815260200184815260200183815260200160009250821515815250600360003373ffffffffffffffffffffffffffffffffffffffff1673ffffffffffffffffffffffffffffffffffffffff1681526020019081526020016000206000820151816000019081610ba59190611ad6565b50602082015181600101556040820151816002019081610bc59190611ad6565b506060820151816003019081610bdb9190611ad6565b506080820151816004019081610bf19190611ad6565b5060a0820151816005019080519060200190610c0e929190610d0d565b5060c08201518160060160006101000a81548160ff02191690831515021790555090505050505050505050565b60008054906101000a900473ffffffffffffffffffffffffffffffffffffffff1673ffffffffffffffffffffffffffffffffffffffff163373ffffffffffffffffffffffffffffffffffffffff1614610cc9576040517f08c379a0000000000000000000000000000000000000000000000000000000008152600401610cc090611563565b60405180910390fd5b80600160006101000a81548173ffffffffffffffffffffffffffffffffffffffff021916908373ffffffffffffffffffffffffffffffffffffffff16021790555050565b828054828255906000526020600020908101928215610d55579160200282015b82811115610d54578251829081610d449190611ad6565b5091602001919060010190610d2d565b5b509050610d629190610d66565b5090565b5b80821115610d865760008181610d7d9190610d8a565b50600101610d67565b5090565b508054610d969061188d565b6000825580601f10610da85750610dc7565b601f016020900490600052602060002090810190610dc69190610dca565b5b50565b5b80821115610de3576000816000905550600101610dcb565b5090565b6000604051905090565b600080fd5b600080fd5b600073ffffffffffffffffffffffffffffffffffffffff82169050919050565b6000610e2682610dfb565b9050919050565b610e3681610e1b565b8114610e4157600080fd5b50565b600081359050610e5381610e2d565b92915050565b60008060408385031215610e7057610e6f610df1565b5b6000610e7e85828601610e44565b9250506020610e8f85828601610e44565b9150509250929050565b600060208284031215610eaf57610eae610df1565b5b6000610ebd84828501610e44565b91505092915050565b600081519050919050565b600082825260208201905092915050565b60005b83811015610f00578082015181840152602081019050610ee5565b60008484015250505050565b6000601f19601f8301169050919050565b6000610f2882610ec6565b610f328185610ed1565b9350610f42818560208601610ee2565b610f4b81610f0c565b840191505092915050565b6000819050919050565b610f6981610f56565b82525050565b600060e0820190508181036000830152610f89818a610f1d565b9050610f986020830189610f60565b8181036040830152610faa8188610f1d565b90508181036060830152610fbe8187610f1d565b90508181036080830152610fd28186610f1d565b905081810360a0830152610fe68185610f1d565b9050610ff560c0830184610f60565b98975050505050505050565b600081519050919050565b600082825260208201905092915050565b6000819050602082019050919050565b600082825260208201905092915050565b600061104982610ec6565b611053818561102d565b9350611063818560208601610ee2565b61106c81610f0c565b840191505092915050565b6000611083838361103e565b905092915050565b6000602082019050919050565b60006110a382611001565b6110ad818561100c565b9350836020820285016110bf8561101d565b8060005b858110156110fb57848403895281516110dc8582611077565b94506110e78361108b565b925060208a019950506001810190506110c3565b50829750879550505050505092915050565b600060c08201905081810360008301526111278189610f1d565b90506111366020830188610f60565b81810360408301526111488187610f1d565b9050818103606083015261115c8186610f1d565b905081810360808301526111708185610f1d565b905081810360a08301526111848184611098565b9050979650505050505050565b600080fd5b600080fd5b7f4e487b7100000000000000000000000000000000000000000000000000000000600052604160045260246000fd5b6111d382610f0c565b810181811067ffffffffffffffff821117156111f2576111f161119b565b5b80604052505050565b6000611205610de7565b905061121182826111ca565b919050565b600067ffffffffffffffff8211156112315761123061119b565b5b61123a82610f0c565b9050602081019050919050565b82818337600083830152505050565b600061126961126484611216565b6111fb565b90508281526020810184848401111561128557611284611196565b5b611290848285611247565b509392505050565b600082601f8301126112ad576112ac611191565b5b81356112bd848260208601611256565b91505092915050565b6112cf81610f56565b81146112da57600080fd5b50565b6000813590506112ec816112c6565b92915050565b600067ffffffffffffffff82111561130d5761130c61119b565b5b602082029050602081019050919050565b600080fd5b6000611336611331846112f2565b6111fb565b905080838252602082019050602084028301858111156113595761135861131e565b5b835b818110156113a057803567ffffffffffffffff81111561137e5761137d611191565b5b80860161138b8982611298565b8552602085019450505060208101905061135b565b5050509392505050565b600082601f8301126113bf576113be611191565b5b81356113cf848260208601611323565b91505092915050565b60008060008060008060c087890312156113f5576113f4610df1565b5b600087013567ffffffffffffffff81111561141357611412610df6565b5b61141f89828a01611298565b965050602061143089828a016112dd565b955050604087013567ffffffffffffffff81111561145157611450610df6565b5b61145d89828a01611298565b945050606087013567ffffffffffffffff81111561147e5761147d610df6565b5b61148a89828a01611298565b935050608087013567ffffffffffffffff8111156114ab576114aa610df6565b5b6114b789828a01611298565b92505060a087013567ffffffffffffffff8111156114d8576114d7610df6565b5b6114e489828a016113aa565b9150509295509295509295565b7f4f6e6c7920436f6e7472616374204f776e65722063616e20706572666f726d2060008201527f7468697320616374696f6e000000000000000000000000000000000000000000602082015250565b600061154d602b83610ed1565b9150611558826114f1565b604082019050919050565b6000602082019050818103600083015261157c81611540565b9050919050565b61158c81610e1b565b82525050565b60006020820190506115a76000830184611583565b92915050565b60006115c06115bb84611216565b6111fb565b9050828152602081018484840111156115dc576115db611196565b5b6115e7848285610ee2565b509392505050565b600082601f83011261160457611603611191565b5b81516116148482602086016115ad565b91505092915050565b60008151905061162c816112c6565b92915050565b600080600080600080600060e0888a03121561165157611650610df1565b5b600088015167ffffffffffffffff81111561166f5761166e610df6565b5b61167b8a828b016115ef565b975050602061168c8a828b0161161d565b965050604088015167ffffffffffffffff8111156116ad576116ac610df6565b5b6116b98a828b016115ef565b955050606088015167ffffffffffffffff8111156116da576116d9610df6565b5b6116e68a828b016115ef565b945050608088015167ffffffffffffffff81111561170757611706610df6565b5b6117138a828b016115ef565b93505060a088015167ffffffffffffffff81111561173457611733610df6565b5b6117408a828b016115ef565b92505060c06117518a828b0161161d565b91505092959891949750929550565b7f416c726561647920566572696669656400000000000000000000000000000000600082015250565b6000611796601083610ed1565b91506117a182611760565b602082019050919050565b600060208201905081810360008301526117c581611789565b9050919050565b7f5468652050726163746974696f6e6572206e6565647320746f2062652056657260008201527f6966696564206669727374000000000000000000000000000000000000000000602082015250565b6000611828602b83610ed1565b9150611833826117cc565b604082019050919050565b600060208201905081810360008301526118578161181b565b9050919050565b7f4e487b7100000000000000000000000000000000000000000000000000000000600052602260045260246000fd5b600060028204905060018216806118a557607f821691505b6020821081036118b8576118b761185e565b5b50919050565b7f496e76616c696420416765000000000000000000000000000000000000000000600082015250565b60006118f4600b83610ed1565b91506118ff826118be565b602082019050919050565b60006020820190508181036000830152611923816118e7565b9050919050565b60008190508160005260206000209050919050565b60006020601f8301049050919050565b600082821b905092915050565b60006008830261198c7fffffffffffffffffffffffffffffffffffffffffffffffffffffffffffffffff8261194f565b611996868361194f565b95508019841693508086168417925050509392505050565b6000819050919050565b60006119d36119ce6119c984610f56565b6119ae565b610f56565b9050919050565b6000819050919050565b6119ed836119b8565b611a016119f9826119da565b84845461195c565b825550505050565b600090565b611a16611a09565b611a218184846119e4565b505050565b5b81811015611a4557611a3a600082611a0e565b600181019050611a27565b5050565b601f821115611a8a57611a5b8161192a565b611a648461193f565b81016020851015611a73578190505b611a87611a7f8561193f565b830182611a26565b50505b505050565b600082821c905092915050565b6000611aad60001984600802611a8f565b1980831691505092915050565b6000611ac68383611a9c565b9150826002028217905092915050565b611adf82610ec6565b67ffffffffffffffff811115611af857611af761119b565b5b611b02825461188d565b611b0d828285611a49565b600060209050601f831160018114611b405760008415611b2e578287015190505b611b388582611aba565b865550611ba0565b601f198416611b4e8661192a565b60005b82811015611b7657848901518255600182019150602085019450602081019050611b51565b86831015611b935784890151611b8f601f891682611a9c565b8355505b6001600288020188555050505b50505050505056fea264697066735822122000cbeaa236651c248519aa9c7a404e81b5040e1acf6015b32dba50ea33dabf8264736f6c63430008110033",
  "immutableReferences": {},
  "source": "// SPDX-License-Identifier: MIT\r\npragma solidity 0.8.17;\r\nimport \"./Patient_Info.sol\";\r\ncontract Prac_Info {\r\n    address private owner;\r\n    PatientInfo private patient_;\r\n    mapping(address => mapping(address => bool)) private access;\r\n    struct Prac_Record {\r\n        string name;\r\n        uint age;\r\n        string gender;\r\n        string contactNumber;\r\n        string prac_ID;\r\n        string[] patientIDs;\r\n        bool Verification;\r\n    }\r\n    mapping(address => Prac_Record) private pracs;\r\n\r\n    modifier onlyOwner() {\r\n        require(\r\n            msg.sender == owner,\r\n            \"Only Contract Owner can perform this action\"\r\n        );\r\n        _;\r\n    }\r\n\r\n    modifier verified() {\r\n        require(\r\n            pracs[msg.sender].Verification != false,\r\n            \"The Practitioner needs to be Verified first\"\r\n        );\r\n        _;\r\n    }\r\n\r\n    constructor() {\r\n        owner = msg.sender;\r\n    }\r\n    function newcontract(address patientInfo_address) public onlyOwner{\r\n        patient_ = PatientInfo(patientInfo_address);\r\n    }\r\n    function create_Prac_Record(\r\n        string memory name,\r\n        uint age,\r\n        string memory gender,\r\n        string memory contactNumber,\r\n        string memory prac_ID,\r\n        string[] memory patientIDs\r\n    ) public {\r\n        require(age > 0 && age < 120, \"Invalid Age\");\r\n        bool Verification;\r\n        pracs[msg.sender] = Prac_Record(\r\n            name,\r\n            age,\r\n            gender,\r\n            contactNumber,\r\n            prac_ID,\r\n            patientIDs,\r\n            Verification = false\r\n        );\r\n    }\r\n\r\n    function verification(address prac_address) public {\r\n        require(pracs[prac_address].Verification != true, \"Already Verified\");\r\n        pracs[prac_address].Verification = true;\r\n    }\r\n\r\n    function get_prac_record(\r\n        address prac_address\r\n    )\r\n        public\r\n        view\r\n        onlyOwner\r\n        verified\r\n        returns (\r\n            string memory name,\r\n            uint age,\r\n            string memory gender,\r\n            string memory contactNumber,\r\n            string memory prac_ID,\r\n            string[] memory patientIDs\r\n        )\r\n    {\r\n        return (\r\n            pracs[prac_address].name,\r\n            pracs[prac_address].age,\r\n            pracs[prac_address].gender,\r\n            pracs[prac_address].contactNumber,\r\n            pracs[prac_address].prac_ID,\r\n            pracs[prac_address].patientIDs\r\n        );\r\n    }\r\n    function get_pat_record(address patientAddress) public view onlyOwner \r\n        returns(\r\n            string memory name, \r\n            uint age,\r\n            string memory nationality,\r\n            string memory gender,\r\n            string memory contactNumber, \r\n            string memory email,\r\n            uint patientID\r\n        ){\r\n        \r\n        return(\r\n            patient_.getPatientRecord_for_prac(patientAddress)\r\n        );    \r\n    }\r\n    function grantAccess(address patient, address practitioner) public {\r\n        access[patient][practitioner] = true;\r\n    }\r\n\r\n    function revokeAccess(address patient, address practitioner) public {\r\n        access[patient][practitioner] = false;\r\n    }\r\n}\r\n",
  "sourcePath": "C:\\Users\\ajsty\\OneDrive\\Desktop\\VS_Code\\Hoscryp\\contracts\\PractitionerInfo.sol",
  "compiler": {
    "name": "solc",
    "version": "0.8.17+commit.8df45f5f.Emscripten.clang"
  },
  "schemaVersion": "3.4.11",
  "updatedAt": "2023-04-04T07:46:57.045Z",
  "networkType": "ethereum",
  "devdoc": {
    "kind": "dev",
    "methods": {},
    "version": 1
  },
  "userdoc": {
    "kind": "user",
    "methods": {},
    "version": 1
  }
}