{
  "contractName": "Prac_Info",
  "abi": [
    {
      "inputs": [],
      "stateMutability": "nonpayable",
      "type": "constructor"
    },
    {
      "inputs": [
        {
          "internalType": "address",
          "name": "patientInfo_address",
          "type": "address"
        }
      ],
      "name": "newcontract",
      "outputs": [],
      "stateMutability": "nonpayable",
      "type": "function"
    },
    {
      "inputs": [
        {
          "internalType": "string",
          "name": "name",
          "type": "string"
        },
        {
          "internalType": "uint256",
          "name": "age",
          "type": "uint256"
        },
        {
          "internalType": "string",
          "name": "gender",
          "type": "string"
        },
        {
          "internalType": "string",
          "name": "contactNumber",
          "type": "string"
        },
        {
          "internalType": "string",
          "name": "prac_ID",
          "type": "string"
        },
        {
          "internalType": "string[]",
          "name": "patientIDs",
          "type": "string[]"
        }
      ],
      "name": "create_Prac_Record",
      "outputs": [],
      "stateMutability": "nonpayable",
      "type": "function"
    },
    {
      "inputs": [
        {
          "internalType": "address",
          "name": "prac_address",
          "type": "address"
        }
      ],
      "name": "verification",
      "outputs": [],
      "stateMutability": "nonpayable",
      "type": "function"
    },
    {
      "inputs": [
        {
          "internalType": "address",
          "name": "prac_address",
          "type": "address"
        }
      ],
      "name": "get_prac_record",
      "outputs": [
        {
          "internalType": "string",
          "name": "name",
          "type": "string"
        },
        {
          "internalType": "uint256",
          "name": "age",
          "type": "uint256"
        },
        {
          "internalType": "string",
          "name": "gender",
          "type": "string"
        },
        {
          "internalType": "string",
          "name": "contactNumber",
          "type": "string"
        },
        {
          "internalType": "string",
          "name": "prac_ID",
          "type": "string"
        },
        {
          "internalType": "string[]",
          "name": "patientIDs",
          "type": "string[]"
        }
      ],
      "stateMutability": "view",
      "type": "function",
      "constant": true
    },
    {
      "inputs": [
        {
          "internalType": "address",
          "name": "patientAddress",
          "type": "address"
        }
      ],
      "name": "get_pat_record",
      "outputs": [
        {
          "internalType": "string",
          "name": "name",
          "type": "string"
        },
        {
          "internalType": "uint256",
          "name": "patientID",
          "type": "uint256"
        },
        {
          "internalType": "address[]",
          "name": "prac_Ids",
          "type": "address[]"
        },
        {
          "internalType": "bool",
          "name": "prac_side",
          "type": "bool"
        },
        {
          "internalType": "bool",
          "name": "pat_side",
          "type": "bool"
        }
      ],
      "stateMutability": "view",
      "type": "function",
      "constant": true
    },
    {
      "inputs": [
        {
          "internalType": "address",
          "name": "patientaddress",
          "type": "address"
        },
        {
          "internalType": "bool",
          "name": "permission",
          "type": "bool"
        }
      ],
      "name": "grantAccess",
      "outputs": [],
      "stateMutability": "nonpayable",
      "type": "function"
    },
    {
      "inputs": [
        {
          "internalType": "address",
          "name": "patientaddress",
          "type": "address"
        }
      ],
      "name": "getMedicalRecords",
      "outputs": [
        {
          "internalType": "address[]",
          "name": "",
          "type": "address[]"
        }
      ],
      "stateMutability": "view",
      "type": "function",
      "constant": true
    },
    {
      "inputs": [
        {
          "internalType": "address",
          "name": "patientaddress",
          "type": "address"
        },
        {
          "internalType": "address",
          "name": "hash",
          "type": "address"
        },
        {
          "internalType": "address",
          "name": "practioneraddress",
          "type": "address"
        }
      ],
      "name": "addRecord",
      "outputs": [],
      "stateMutability": "nonpayable",
      "type": "function"
    }
  ],
  "bytecode": "0x608060405234801561001057600080fd5b50336000806101000a81548173ffffffffffffffffffffffffffffffffffffffff021916908373ffffffffffffffffffffffffffffffffffffffff160217905550612069806100606000396000f3fe608060405234801561001057600080fd5b50600436106100885760003560e01c8063cc7184e51161005b578063cc7184e514610129578063e01c33d01461015e578063e1eed3a81461017a578063fd7fe1151461019657610088565b806345c52f071461008d5780636d92056f146100a957806392b4e132146100dd578063afd8297c146100f9575b600080fd5b6100a760048036038101906100a29190611049565b6101b2565b005b6100c360048036038101906100be919061109c565b6102d6565b6040516100d495949392919061124b565b60405180910390f35b6100f760048036038101906100f2919061109c565b610421565b005b610113600480360381019061010e919061109c565b610515565b60405161012091906112ac565b60405180910390f35b610143600480360381019061013e919061109c565b61064f565b604051610155969594939291906113da565b60405180910390f35b610178600480360381019061017391906116a5565b610c22565b005b610194600480360381019061018f919061109c565b610d96565b005b6101b060048036038101906101ab91906117ea565b610e68565b005b60008054906101000a900473ffffffffffffffffffffffffffffffffffffffff1673ffffffffffffffffffffffffffffffffffffffff163373ffffffffffffffffffffffffffffffffffffffff1614610240576040517f08c379a00000000000000000000000000000000000000000000000000000000081526004016102379061189c565b60405180910390fd5b600160009054906101000a900473ffffffffffffffffffffffffffffffffffffffff1673ffffffffffffffffffffffffffffffffffffffff166345c52f078484846040518463ffffffff1660e01b815260040161029f939291906118cb565b600060405180830381600087803b1580156102b957600080fd5b505af11580156102cd573d6000803e3d6000fd5b50505050505050565b60606000606060008060008054906101000a900473ffffffffffffffffffffffffffffffffffffffff1673ffffffffffffffffffffffffffffffffffffffff163373ffffffffffffffffffffffffffffffffffffffff161461036d576040517f08c379a00000000000000000000000000000000000000000000000000000000081526004016103649061189c565b60405180910390fd5b600160009054906101000a900473ffffffffffffffffffffffffffffffffffffffff1673ffffffffffffffffffffffffffffffffffffffff1663a9666ba1876040518263ffffffff1660e01b81526004016103c89190611902565b600060405180830381865afa1580156103e5573d6000803e3d6000fd5b505050506040513d6000823e3d601f19601f8201168201806040525081019061040e9190611a8f565b9450945094509450945091939590929450565b60011515600360008373ffffffffffffffffffffffffffffffffffffffff1673ffffffffffffffffffffffffffffffffffffffff16815260200190815260200160002060060160009054906101000a900460ff161515036104b7576040517f08c379a00000000000000000000000000000000000000000000000000000000081526004016104ae90611b8e565b60405180910390fd5b6001600360008373ffffffffffffffffffffffffffffffffffffffff1673ffffffffffffffffffffffffffffffffffffffff16815260200190815260200160002060060160006101000a81548160ff02191690831515021790555050565b606060008054906101000a900473ffffffffffffffffffffffffffffffffffffffff1673ffffffffffffffffffffffffffffffffffffffff163373ffffffffffffffffffffffffffffffffffffffff16146105a5576040517f08c379a000000000000000000000000000000000000000000000000000000000815260040161059c9061189c565b60405180910390fd5b600160009054906101000a900473ffffffffffffffffffffffffffffffffffffffff1673ffffffffffffffffffffffffffffffffffffffff1663f4b1604583336040518363ffffffff1660e01b8152600401610602929190611bae565b600060405180830381865afa15801561061f573d6000803e3d6000fd5b505050506040513d6000823e3d601f19601f820116820180604052508101906106489190611bd7565b9050919050565b6060600060608060608060008054906101000a900473ffffffffffffffffffffffffffffffffffffffff1673ffffffffffffffffffffffffffffffffffffffff163373ffffffffffffffffffffffffffffffffffffffff16146106e7576040517f08c379a00000000000000000000000000000000000000000000000000000000081526004016106de9061189c565b60405180910390fd5b60001515600360003373ffffffffffffffffffffffffffffffffffffffff1673ffffffffffffffffffffffffffffffffffffffff16815260200190815260200160002060060160009054906101000a900460ff1615150361077d576040517f08c379a000000000000000000000000000000000000000000000000000000000815260040161077490611c92565b60405180910390fd5b600360008873ffffffffffffffffffffffffffffffffffffffff1673ffffffffffffffffffffffffffffffffffffffff168152602001908152602001600020600001600360008973ffffffffffffffffffffffffffffffffffffffff1673ffffffffffffffffffffffffffffffffffffffff16815260200190815260200160002060010154600360008a73ffffffffffffffffffffffffffffffffffffffff1673ffffffffffffffffffffffffffffffffffffffff168152602001908152602001600020600201600360008b73ffffffffffffffffffffffffffffffffffffffff1673ffffffffffffffffffffffffffffffffffffffff168152602001908152602001600020600301600360008c73ffffffffffffffffffffffffffffffffffffffff1673ffffffffffffffffffffffffffffffffffffffff168152602001908152602001600020600401600360008d73ffffffffffffffffffffffffffffffffffffffff1673ffffffffffffffffffffffffffffffffffffffff16815260200190815260200160002060050185805461091690611ce1565b80601f016020809104026020016040519081016040528092919081815260200182805461094290611ce1565b801561098f5780601f106109645761010080835404028352916020019161098f565b820191906000526020600020905b81548152906001019060200180831161097257829003601f168201915b505050505095508380546109a290611ce1565b80601f01602080910402602001604051908101604052809291908181526020018280546109ce90611ce1565b8015610a1b5780601f106109f057610100808354040283529160200191610a1b565b820191906000526020600020905b8154815290600101906020018083116109fe57829003601f168201915b50505050509350828054610a2e90611ce1565b80601f0160208091040260200160405190810160405280929190818152602001828054610a5a90611ce1565b8015610aa75780601f10610a7c57610100808354040283529160200191610aa7565b820191906000526020600020905b815481529060010190602001808311610a8a57829003601f168201915b50505050509250818054610aba90611ce1565b80601f0160208091040260200160405190810160405280929190818152602001828054610ae690611ce1565b8015610b335780601f10610b0857610100808354040283529160200191610b33565b820191906000526020600020905b815481529060010190602001808311610b1657829003601f168201915b5050505050915080805480602002602001604051908101604052809291908181526020016000905b82821015610c07578382906000526020600020018054610b7a90611ce1565b80601f0160208091040260200160405190810160405280929190818152602001828054610ba690611ce1565b8015610bf35780601f10610bc857610100808354040283529160200191610bf3565b820191906000526020600020905b815481529060010190602001808311610bd657829003601f168201915b505050505081526020019060010190610b5b565b50505050905095509550955095509550955091939550919395565b600085118015610c325750607885105b610c71576040517f08c379a0000000000000000000000000000000000000000000000000000000008152600401610c6890611d5e565b60405180910390fd5b60006040518060e0016040528088815260200187815260200186815260200185815260200184815260200183815260200160009250821515815250600360003373ffffffffffffffffffffffffffffffffffffffff1673ffffffffffffffffffffffffffffffffffffffff1681526020019081526020016000206000820151816000019081610d009190611f2a565b50602082015181600101556040820151816002019081610d209190611f2a565b506060820151816003019081610d369190611f2a565b506080820151816004019081610d4c9190611f2a565b5060a0820151816005019080519060200190610d69929190610efd565b5060c08201518160060160006101000a81548160ff02191690831515021790555090505050505050505050565b60008054906101000a900473ffffffffffffffffffffffffffffffffffffffff1673ffffffffffffffffffffffffffffffffffffffff163373ffffffffffffffffffffffffffffffffffffffff1614610e24576040517f08c379a0000000000000000000000000000000000000000000000000000000008152600401610e1b9061189c565b60405180910390fd5b80600160006101000a81548173ffffffffffffffffffffffffffffffffffffffff021916908373ffffffffffffffffffffffffffffffffffffffff16021790555050565b600160009054906101000a900473ffffffffffffffffffffffffffffffffffffffff1673ffffffffffffffffffffffffffffffffffffffff1663d9528b633383856040518463ffffffff1660e01b8152600401610ec793929190611ffc565b600060405180830381600087803b158015610ee157600080fd5b505af1158015610ef5573d6000803e3d6000fd5b505050505050565b828054828255906000526020600020908101928215610f45579160200282015b82811115610f44578251829081610f349190611f2a565b5091602001919060010190610f1d565b5b509050610f529190610f56565b5090565b5b80821115610f765760008181610f6d9190610f7a565b50600101610f57565b5090565b508054610f8690611ce1565b6000825580601f10610f985750610fb7565b601f016020900490600052602060002090810190610fb69190610fba565b5b50565b5b80821115610fd3576000816000905550600101610fbb565b5090565b6000604051905090565b600080fd5b600080fd5b600073ffffffffffffffffffffffffffffffffffffffff82169050919050565b600061101682610feb565b9050919050565b6110268161100b565b811461103157600080fd5b50565b6000813590506110438161101d565b92915050565b60008060006060848603121561106257611061610fe1565b5b600061107086828701611034565b935050602061108186828701611034565b925050604061109286828701611034565b9150509250925092565b6000602082840312156110b2576110b1610fe1565b5b60006110c084828501611034565b91505092915050565b600081519050919050565b600082825260208201905092915050565b60005b838110156111035780820151818401526020810190506110e8565b60008484015250505050565b6000601f19601f8301169050919050565b600061112b826110c9565b61113581856110d4565b93506111458185602086016110e5565b61114e8161110f565b840191505092915050565b6000819050919050565b61116c81611159565b82525050565b600081519050919050565b600082825260208201905092915050565b6000819050602082019050919050565b6111a78161100b565b82525050565b60006111b9838361119e565b60208301905092915050565b6000602082019050919050565b60006111dd82611172565b6111e7818561117d565b93506111f28361118e565b8060005b8381101561122357815161120a88826111ad565b9750611215836111c5565b9250506001810190506111f6565b5085935050505092915050565b60008115159050919050565b61124581611230565b82525050565b600060a08201905081810360008301526112658188611120565b90506112746020830187611163565b818103604083015261128681866111d2565b9050611295606083018561123c565b6112a2608083018461123c565b9695505050505050565b600060208201905081810360008301526112c681846111d2565b905092915050565b600081519050919050565b600082825260208201905092915050565b6000819050602082019050919050565b600082825260208201905092915050565b6000611316826110c9565b61132081856112fa565b93506113308185602086016110e5565b6113398161110f565b840191505092915050565b6000611350838361130b565b905092915050565b6000602082019050919050565b6000611370826112ce565b61137a81856112d9565b93508360208202850161138c856112ea565b8060005b858110156113c857848403895281516113a98582611344565b94506113b483611358565b925060208a01995050600181019050611390565b50829750879550505050505092915050565b600060c08201905081810360008301526113f48189611120565b90506114036020830188611163565b81810360408301526114158187611120565b905081810360608301526114298186611120565b9050818103608083015261143d8185611120565b905081810360a08301526114518184611365565b9050979650505050505050565b600080fd5b600080fd5b7f4e487b7100000000000000000000000000000000000000000000000000000000600052604160045260246000fd5b6114a08261110f565b810181811067ffffffffffffffff821117156114bf576114be611468565b5b80604052505050565b60006114d2610fd7565b90506114de8282611497565b919050565b600067ffffffffffffffff8211156114fe576114fd611468565b5b6115078261110f565b9050602081019050919050565b82818337600083830152505050565b6000611536611531846114e3565b6114c8565b90508281526020810184848401111561155257611551611463565b5b61155d848285611514565b509392505050565b600082601f83011261157a5761157961145e565b5b813561158a848260208601611523565b91505092915050565b61159c81611159565b81146115a757600080fd5b50565b6000813590506115b981611593565b92915050565b600067ffffffffffffffff8211156115da576115d9611468565b5b602082029050602081019050919050565b600080fd5b60006116036115fe846115bf565b6114c8565b90508083825260208201905060208402830185811115611626576116256115eb565b5b835b8181101561166d57803567ffffffffffffffff81111561164b5761164a61145e565b5b8086016116588982611565565b85526020850194505050602081019050611628565b5050509392505050565b600082601f83011261168c5761168b61145e565b5b813561169c8482602086016115f0565b91505092915050565b60008060008060008060c087890312156116c2576116c1610fe1565b5b600087013567ffffffffffffffff8111156116e0576116df610fe6565b5b6116ec89828a01611565565b96505060206116fd89828a016115aa565b955050604087013567ffffffffffffffff81111561171e5761171d610fe6565b5b61172a89828a01611565565b945050606087013567ffffffffffffffff81111561174b5761174a610fe6565b5b61175789828a01611565565b935050608087013567ffffffffffffffff81111561177857611777610fe6565b5b61178489828a01611565565b92505060a087013567ffffffffffffffff8111156117a5576117a4610fe6565b5b6117b189828a01611677565b9150509295509295509295565b6117c781611230565b81146117d257600080fd5b50565b6000813590506117e4816117be565b92915050565b6000806040838503121561180157611800610fe1565b5b600061180f85828601611034565b9250506020611820858286016117d5565b9150509250929050565b7f4f6e6c7920436f6e7472616374204f776e65722063616e20706572666f726d2060008201527f7468697320616374696f6e000000000000000000000000000000000000000000602082015250565b6000611886602b836110d4565b91506118918261182a565b604082019050919050565b600060208201905081810360008301526118b581611879565b9050919050565b6118c58161100b565b82525050565b60006060820190506118e060008301866118bc565b6118ed60208301856118bc565b6118fa60408301846118bc565b949350505050565b600060208201905061191760008301846118bc565b92915050565b600061193061192b846114e3565b6114c8565b90508281526020810184848401111561194c5761194b611463565b5b6119578482856110e5565b509392505050565b600082601f8301126119745761197361145e565b5b815161198484826020860161191d565b91505092915050565b60008151905061199c81611593565b92915050565b600067ffffffffffffffff8211156119bd576119bc611468565b5b602082029050602081019050919050565b6000815190506119dd8161101d565b92915050565b60006119f66119f1846119a2565b6114c8565b90508083825260208201905060208402830185811115611a1957611a186115eb565b5b835b81811015611a425780611a2e88826119ce565b845260208401935050602081019050611a1b565b5050509392505050565b600082601f830112611a6157611a6061145e565b5b8151611a718482602086016119e3565b91505092915050565b600081519050611a89816117be565b92915050565b600080600080600060a08688031215611aab57611aaa610fe1565b5b600086015167ffffffffffffffff811115611ac957611ac8610fe6565b5b611ad58882890161195f565b9550506020611ae68882890161198d565b945050604086015167ffffffffffffffff811115611b0757611b06610fe6565b5b611b1388828901611a4c565b9350506060611b2488828901611a7a565b9250506080611b3588828901611a7a565b9150509295509295909350565b7f416c726561647920566572696669656400000000000000000000000000000000600082015250565b6000611b786010836110d4565b9150611b8382611b42565b602082019050919050565b60006020820190508181036000830152611ba781611b6b565b9050919050565b6000604082019050611bc360008301856118bc565b611bd060208301846118bc565b9392505050565b600060208284031215611bed57611bec610fe1565b5b600082015167ffffffffffffffff811115611c0b57611c0a610fe6565b5b611c1784828501611a4c565b91505092915050565b7f5468652050726163746974696f6e6572206e6565647320746f2062652056657260008201527f6966696564206669727374000000000000000000000000000000000000000000602082015250565b6000611c7c602b836110d4565b9150611c8782611c20565b604082019050919050565b60006020820190508181036000830152611cab81611c6f565b9050919050565b7f4e487b7100000000000000000000000000000000000000000000000000000000600052602260045260246000fd5b60006002820490506001821680611cf957607f821691505b602082108103611d0c57611d0b611cb2565b5b50919050565b7f496e76616c696420416765000000000000000000000000000000000000000000600082015250565b6000611d48600b836110d4565b9150611d5382611d12565b602082019050919050565b60006020820190508181036000830152611d7781611d3b565b9050919050565b60008190508160005260206000209050919050565b60006020601f8301049050919050565b600082821b905092915050565b600060088302611de07fffffffffffffffffffffffffffffffffffffffffffffffffffffffffffffffff82611da3565b611dea8683611da3565b95508019841693508086168417925050509392505050565b6000819050919050565b6000611e27611e22611e1d84611159565b611e02565b611159565b9050919050565b6000819050919050565b611e4183611e0c565b611e55611e4d82611e2e565b848454611db0565b825550505050565b600090565b611e6a611e5d565b611e75818484611e38565b505050565b5b81811015611e9957611e8e600082611e62565b600181019050611e7b565b5050565b601f821115611ede57611eaf81611d7e565b611eb884611d93565b81016020851015611ec7578190505b611edb611ed385611d93565b830182611e7a565b50505b505050565b600082821c905092915050565b6000611f0160001984600802611ee3565b1980831691505092915050565b6000611f1a8383611ef0565b9150826002028217905092915050565b611f33826110c9565b67ffffffffffffffff811115611f4c57611f4b611468565b5b611f568254611ce1565b611f61828285611e9d565b600060209050601f831160018114611f945760008415611f82578287015190505b611f8c8582611f0e565b865550611ff4565b601f198416611fa286611d7e565b60005b82811015611fca57848901518255600182019150602085019450602081019050611fa5565b86831015611fe75784890151611fe3601f891682611ef0565b8355505b6001600288020188555050505b505050505050565b600060608201905061201160008301866118bc565b61201e602083018561123c565b61202b60408301846118bc565b94935050505056fea2646970667358221220eb374c7e2aa359e25681a4987ccfa1d775f49f724499057fde4c72e1eb8ab13164736f6c63430008110033",
  "immutableReferences": {},
  "source": "// SPDX-License-Identifier: MIT\r\npragma solidity 0.8.17;\r\nimport \"./PatientInfo.sol\";\r\n\r\ncontract Prac_Info {\r\n    address private owner;\r\n    PatientInfo private patient_;\r\n    mapping(address => mapping(address => bool)) private access;\r\n    struct Prac_Record {\r\n        string name;\r\n        uint age;\r\n        string gender;\r\n        string contactNumber;\r\n        string prac_ID;\r\n        string[] patientIDs;\r\n        bool Verification;\r\n    }\r\n    mapping(address => Prac_Record) private pracs;\r\n\r\n    struct MedicalRecord{\r\n        address[] hash;\r\n    }\r\n    mapping(address => MedicalRecord) private records;\r\n    modifier onlyOwner() {\r\n        require(\r\n            msg.sender == owner,\r\n            \"Only Contract Owner can perform this action\"\r\n        );\r\n        _;\r\n    }\r\n\r\n    modifier verified() {\r\n        require(\r\n            pracs[msg.sender].Verification != false,\r\n            \"The Practitioner needs to be Verified first\"\r\n        );\r\n        _;\r\n    }\r\n\r\n    constructor() {\r\n        owner = msg.sender;\r\n    }\r\n\r\n    function newcontract(address patientInfo_address) public onlyOwner {\r\n        patient_ = PatientInfo(patientInfo_address);\r\n    }\r\n\r\n    function create_Prac_Record(\r\n        string memory name,\r\n        uint age,\r\n        string memory gender,\r\n        string memory contactNumber,\r\n        string memory prac_ID,\r\n        string[] memory patientIDs\r\n    ) public {\r\n        require(age > 0 && age < 120, \"Invalid Age\");\r\n        bool Verification;\r\n        pracs[msg.sender] = Prac_Record(\r\n            name,\r\n            age,\r\n            gender,\r\n            contactNumber,\r\n            prac_ID,\r\n            patientIDs,\r\n            Verification = false\r\n        );\r\n    }\r\n\r\n    function verification(address prac_address) public {\r\n        require(pracs[prac_address].Verification != true, \"Already Verified\");\r\n        pracs[prac_address].Verification = true;\r\n    }\r\n\r\n    function get_prac_record(\r\n        address prac_address\r\n    )\r\n        public\r\n        view\r\n        onlyOwner\r\n        verified\r\n        returns (\r\n            string memory name,\r\n            uint age,\r\n            string memory gender,\r\n            string memory contactNumber,\r\n            string memory prac_ID,\r\n            string[] memory patientIDs\r\n        )\r\n    {\r\n        return (\r\n            pracs[prac_address].name,\r\n            pracs[prac_address].age,\r\n            pracs[prac_address].gender,\r\n            pracs[prac_address].contactNumber,\r\n            pracs[prac_address].prac_ID,\r\n            \r\n            pracs[prac_address].patientIDs\r\n        );\r\n    }\r\n\r\n    function get_pat_record(\r\n        address patientAddress\r\n    )\r\n        public\r\n        view\r\n        onlyOwner\r\n        returns (\r\n            string memory name,\r\n            uint patientID,\r\n            address[] memory prac_Ids,\r\n            bool prac_side,\r\n            bool pat_side\r\n        )\r\n    {\r\n        return (patient_.getPatientRecord_for_prac(patientAddress));\r\n    }\r\n    function grantAccess(address patientaddress, bool permission) public{\r\n        patient_.grantAccess(msg.sender, permission, patientaddress);\r\n    }\r\n\r\n    function getMedicalRecords(address patientaddress) public view onlyOwner returns(address[] memory){\r\n        return(patient_.approved(patientaddress, msg.sender));\r\n    }\r\n    function addRecord(address patientaddress,address hash, address practioneraddress) public onlyOwner{\r\n        patient_.addRecord(patientaddress, hash, practioneraddress);\r\n    }\r\n    \r\n}",
  "sourcePath": "C:\\Users\\ajsty\\OneDrive\\Desktop\\VS_Code\\Hoscryp\\contracts\\PractitionerInfo.sol",
  "compiler": {
    "name": "solc",
    "version": "0.8.17+commit.8df45f5f.Emscripten.clang"
  },
  "schemaVersion": "3.4.11",
  "updatedAt": "2023-04-06T13:16:41.568Z",
  "networkType": "ethereum",
  "devdoc": {
    "kind": "dev",
    "methods": {},
    "version": 1
  },
  "userdoc": {
    "kind": "user",
    "methods": {},
    "version": 1
  }
}