{
  "contractName": "Prac_Info",
  "abi": [
    {
      "inputs": [],
      "stateMutability": "nonpayable",
      "type": "constructor"
    },
    {
      "inputs": [
        {
          "internalType": "string",
          "name": "name",
          "type": "string"
        },
        {
          "internalType": "uint256",
          "name": "age",
          "type": "uint256"
        },
        {
          "internalType": "string",
          "name": "gender",
          "type": "string"
        },
        {
          "internalType": "string",
          "name": "contactNumber",
          "type": "string"
        },
        {
          "internalType": "string",
          "name": "prac_ID",
          "type": "string"
        },
        {
          "internalType": "string",
          "name": "patientIDs",
          "type": "string"
        }
      ],
      "name": "create_Prac_Record",
      "outputs": [],
      "stateMutability": "nonpayable",
      "type": "function"
    },
    {
      "inputs": [
        {
          "internalType": "address",
          "name": "prac_address",
          "type": "address"
        }
      ],
      "name": "verification",
      "outputs": [],
      "stateMutability": "nonpayable",
      "type": "function"
    },
    {
      "inputs": [
        {
          "internalType": "address",
          "name": "prac_address",
          "type": "address"
        }
      ],
      "name": "get_prac_record",
      "outputs": [
        {
          "internalType": "string",
          "name": "name",
          "type": "string"
        },
        {
          "internalType": "uint256",
          "name": "age",
          "type": "uint256"
        },
        {
          "internalType": "string",
          "name": "gender",
          "type": "string"
        },
        {
          "internalType": "string",
          "name": "contactNumber",
          "type": "string"
        },
        {
          "internalType": "string",
          "name": "prac_ID",
          "type": "string"
        },
        {
          "internalType": "string",
          "name": "patientIDs",
          "type": "string"
        }
      ],
      "stateMutability": "view",
      "type": "function"
    }
  ],
  "bytecode": "0x608060405234801561001057600080fd5b50336000806101000a81548173ffffffffffffffffffffffffffffffffffffffff021916908373ffffffffffffffffffffffffffffffffffffffff160217905550611283806100606000396000f3fe608060405234801561001057600080fd5b50600436106100415760003560e01c806345b1b8911461004657806392b4e13214610062578063cc7184e51461007e575b600080fd5b610060600480360381019061005b9190610abd565b6100b3565b005b61007c60048036038101906100779190610c34565b610220565b005b61009860048036038101906100939190610c34565b6103a1565b6040516100aa96959493929190610cef565b60405180910390f35b6000851180156100c35750607885105b610102576040517f08c379a00000000000000000000000000000000000000000000000000000000081526004016100f990610dbf565b60405180910390fd5b60006040518060e0016040528088815260200187815260200186815260200185815260200184815260200183815260200160009250821515815250600160003373ffffffffffffffffffffffffffffffffffffffff1673ffffffffffffffffffffffffffffffffffffffff16815260200190815260200160002060008201518160000190816101919190610feb565b506020820151816001015560408201518160020190816101b19190610feb565b5060608201518160030190816101c79190610feb565b5060808201518160040190816101dd9190610feb565b5060a08201518160050190816101f39190610feb565b5060c08201518160060160006101000a81548160ff02191690831515021790555090505050505050505050565b60008054906101000a900473ffffffffffffffffffffffffffffffffffffffff1673ffffffffffffffffffffffffffffffffffffffff163373ffffffffffffffffffffffffffffffffffffffff16146102ae576040517f08c379a00000000000000000000000000000000000000000000000000000000081526004016102a59061112f565b60405180910390fd5b60011515600160008373ffffffffffffffffffffffffffffffffffffffff1673ffffffffffffffffffffffffffffffffffffffff16815260200190815260200160002060060160009054906101000a900460ff16151503610344576040517f08c379a000000000000000000000000000000000000000000000000000000000815260040161033b9061119b565b60405180910390fd5b60018060008373ffffffffffffffffffffffffffffffffffffffff1673ffffffffffffffffffffffffffffffffffffffff16815260200190815260200160002060060160006101000a81548160ff02191690831515021790555050565b6060600060608060608060008054906101000a900473ffffffffffffffffffffffffffffffffffffffff1673ffffffffffffffffffffffffffffffffffffffff163373ffffffffffffffffffffffffffffffffffffffff1614610439576040517f08c379a00000000000000000000000000000000000000000000000000000000081526004016104309061112f565b60405180910390fd5b60001515600160003373ffffffffffffffffffffffffffffffffffffffff1673ffffffffffffffffffffffffffffffffffffffff16815260200190815260200160002060060160009054906101000a900460ff161515036104cf576040517f08c379a00000000000000000000000000000000000000000000000000000000081526004016104c69061122d565b60405180910390fd5b600160008873ffffffffffffffffffffffffffffffffffffffff1673ffffffffffffffffffffffffffffffffffffffff168152602001908152602001600020600001600160008973ffffffffffffffffffffffffffffffffffffffff1673ffffffffffffffffffffffffffffffffffffffff16815260200190815260200160002060010154600160008a73ffffffffffffffffffffffffffffffffffffffff1673ffffffffffffffffffffffffffffffffffffffff168152602001908152602001600020600201600160008b73ffffffffffffffffffffffffffffffffffffffff1673ffffffffffffffffffffffffffffffffffffffff168152602001908152602001600020600301600160008c73ffffffffffffffffffffffffffffffffffffffff1673ffffffffffffffffffffffffffffffffffffffff168152602001908152602001600020600401600160008d73ffffffffffffffffffffffffffffffffffffffff1673ffffffffffffffffffffffffffffffffffffffff16815260200190815260200160002060050185805461066890610e0e565b80601f016020809104026020016040519081016040528092919081815260200182805461069490610e0e565b80156106e15780601f106106b6576101008083540402835291602001916106e1565b820191906000526020600020905b8154815290600101906020018083116106c457829003601f168201915b505050505095508380546106f490610e0e565b80601f016020809104026020016040519081016040528092919081815260200182805461072090610e0e565b801561076d5780601f106107425761010080835404028352916020019161076d565b820191906000526020600020905b81548152906001019060200180831161075057829003601f168201915b5050505050935082805461078090610e0e565b80601f01602080910402602001604051908101604052809291908181526020018280546107ac90610e0e565b80156107f95780601f106107ce576101008083540402835291602001916107f9565b820191906000526020600020905b8154815290600101906020018083116107dc57829003601f168201915b5050505050925081805461080c90610e0e565b80601f016020809104026020016040519081016040528092919081815260200182805461083890610e0e565b80156108855780601f1061085a57610100808354040283529160200191610885565b820191906000526020600020905b81548152906001019060200180831161086857829003601f168201915b5050505050915080805461089890610e0e565b80601f01602080910402602001604051908101604052809291908181526020018280546108c490610e0e565b80156109115780601f106108e657610100808354040283529160200191610911565b820191906000526020600020905b8154815290600101906020018083116108f457829003601f168201915b5050505050905095509550955095509550955091939550919395565b6000604051905090565b600080fd5b600080fd5b600080fd5b600080fd5b6000601f19601f8301169050919050565b7f4e487b7100000000000000000000000000000000000000000000000000000000600052604160045260246000fd5b6109948261094b565b810181811067ffffffffffffffff821117156109b3576109b261095c565b5b80604052505050565b60006109c661092d565b90506109d2828261098b565b919050565b600067ffffffffffffffff8211156109f2576109f161095c565b5b6109fb8261094b565b9050602081019050919050565b82818337600083830152505050565b6000610a2a610a25846109d7565b6109bc565b905082815260208101848484011115610a4657610a45610946565b5b610a51848285610a08565b509392505050565b600082601f830112610a6e57610a6d610941565b5b8135610a7e848260208601610a17565b91505092915050565b6000819050919050565b610a9a81610a87565b8114610aa557600080fd5b50565b600081359050610ab781610a91565b92915050565b60008060008060008060c08789031215610ada57610ad9610937565b5b600087013567ffffffffffffffff811115610af857610af761093c565b5b610b0489828a01610a59565b9650506020610b1589828a01610aa8565b955050604087013567ffffffffffffffff811115610b3657610b3561093c565b5b610b4289828a01610a59565b945050606087013567ffffffffffffffff811115610b6357610b6261093c565b5b610b6f89828a01610a59565b935050608087013567ffffffffffffffff811115610b9057610b8f61093c565b5b610b9c89828a01610a59565b92505060a087013567ffffffffffffffff811115610bbd57610bbc61093c565b5b610bc989828a01610a59565b9150509295509295509295565b600073ffffffffffffffffffffffffffffffffffffffff82169050919050565b6000610c0182610bd6565b9050919050565b610c1181610bf6565b8114610c1c57600080fd5b50565b600081359050610c2e81610c08565b92915050565b600060208284031215610c4a57610c49610937565b5b6000610c5884828501610c1f565b91505092915050565b600081519050919050565b600082825260208201905092915050565b60005b83811015610c9b578082015181840152602081019050610c80565b60008484015250505050565b6000610cb282610c61565b610cbc8185610c6c565b9350610ccc818560208601610c7d565b610cd58161094b565b840191505092915050565b610ce981610a87565b82525050565b600060c0820190508181036000830152610d098189610ca7565b9050610d186020830188610ce0565b8181036040830152610d2a8187610ca7565b90508181036060830152610d3e8186610ca7565b90508181036080830152610d528185610ca7565b905081810360a0830152610d668184610ca7565b9050979650505050505050565b7f496e76616c696420416765000000000000000000000000000000000000000000600082015250565b6000610da9600b83610c6c565b9150610db482610d73565b602082019050919050565b60006020820190508181036000830152610dd881610d9c565b9050919050565b7f4e487b7100000000000000000000000000000000000000000000000000000000600052602260045260246000fd5b60006002820490506001821680610e2657607f821691505b602082108103610e3957610e38610ddf565b5b50919050565b60008190508160005260206000209050919050565b60006020601f8301049050919050565b600082821b905092915050565b600060088302610ea17fffffffffffffffffffffffffffffffffffffffffffffffffffffffffffffffff82610e64565b610eab8683610e64565b95508019841693508086168417925050509392505050565b6000819050919050565b6000610ee8610ee3610ede84610a87565b610ec3565b610a87565b9050919050565b6000819050919050565b610f0283610ecd565b610f16610f0e82610eef565b848454610e71565b825550505050565b600090565b610f2b610f1e565b610f36818484610ef9565b505050565b5b81811015610f5a57610f4f600082610f23565b600181019050610f3c565b5050565b601f821115610f9f57610f7081610e3f565b610f7984610e54565b81016020851015610f88578190505b610f9c610f9485610e54565b830182610f3b565b50505b505050565b600082821c905092915050565b6000610fc260001984600802610fa4565b1980831691505092915050565b6000610fdb8383610fb1565b9150826002028217905092915050565b610ff482610c61565b67ffffffffffffffff81111561100d5761100c61095c565b5b6110178254610e0e565b611022828285610f5e565b600060209050601f8311600181146110555760008415611043578287015190505b61104d8582610fcf565b8655506110b5565b601f19841661106386610e3f565b60005b8281101561108b57848901518255600182019150602085019450602081019050611066565b868310156110a857848901516110a4601f891682610fb1565b8355505b6001600288020188555050505b505050505050565b7f4f6e6c7920436f6e7472616374204f776e65722063616e20706572666f726d2060008201527f7468697320616374696f6e000000000000000000000000000000000000000000602082015250565b6000611119602b83610c6c565b9150611124826110bd565b604082019050919050565b600060208201905081810360008301526111488161110c565b9050919050565b7f416c726561647920566572696669656400000000000000000000000000000000600082015250565b6000611185601083610c6c565b91506111908261114f565b602082019050919050565b600060208201905081810360008301526111b481611178565b9050919050565b7f54686520507261635f206e6565647320746f206265205665726966696564206660008201527f6972737400000000000000000000000000000000000000000000000000000000602082015250565b6000611217602483610c6c565b9150611222826111bb565b604082019050919050565b600060208201905081810360008301526112468161120a565b905091905056fea26469706673582212204928c0a4fbf4aec0e6555877f7b29715202c8713d6b272fa07c9e4ed5d28282d64736f6c63430008110033",
  "immutableReferences": {},
  "source": "// SPDX-License-Identifier: MIT\r\npragma solidity 0.8.17;\r\ncontract Prac_Info{\r\n    address private owner;\r\n    struct Prac_Record{\r\n        string name;\r\n        uint age;\r\n        string gender;\r\n        string  contactNumber;\r\n        string prac_ID;\r\n        string patientIDs;\r\n        bool Verification;\r\n    }\r\n    mapping(address => Prac_Record) private pracs;\r\n\r\n    modifier onlyOwner(){\r\n        require(\r\n            msg.sender == owner, \"Only Contract Owner can perform this action\"\r\n        );\r\n        _;\r\n    }\r\n\r\n    modifier verified(){\r\n        require(\r\n            pracs[msg.sender].Verification != false, \r\n            \"The Prac_ needs to be Verified first\"\r\n        );\r\n        _;\r\n    }\r\n\r\n    constructor(){\r\n        owner = msg.sender;\r\n    }\r\n\r\n    function create_Prac_Record(\r\n        string memory name,\r\n        uint age,\r\n        string memory gender,\r\n        string memory contactNumber,\r\n        string memory prac_ID,\r\n        string memory patientIDs\r\n    ) public{\r\n        require(age > 0 && age < 120, \"Invalid Age\");\r\n        bool Verification;\r\n        pracs[msg.sender] = Prac_Record(name, age, gender, contactNumber, prac_ID, patientIDs, Verification = false);\r\n    }\r\n\r\n    function verification(address prac_address) public onlyOwner{\r\n        require(pracs[prac_address].Verification != true, \"Already Verified\");\r\n        pracs[prac_address].Verification = true;\r\n    }\r\n\r\n    function get_prac_record(address prac_address) public view onlyOwner verified\r\n    returns(\r\n        string memory name,\r\n        uint age,\r\n        string memory gender,\r\n        string memory contactNumber,\r\n        string memory prac_ID,\r\n        string memory patientIDs\r\n    ){\r\n        return(\r\n            pracs[prac_address].name,\r\n            pracs[prac_address].age,\r\n            pracs[prac_address].gender,\r\n            pracs[prac_address].contactNumber,\r\n            pracs[prac_address].prac_ID,\r\n            pracs[prac_address].patientIDs\r\n        );\r\n    }\r\n}",
  "sourcePath": "C:\\Users\\ajsty\\OneDrive\\Desktop\\VS_Code\\HealthCareDataManagement\\contracts\\PractitionerInfo.sol",
  "compiler": {
    "name": "solc",
    "version": "0.8.17+commit.8df45f5f.Emscripten.clang"
  },
  "schemaVersion": "3.4.11",
  "updatedAt": "2023-03-22T16:11:18.421Z",
  "networkType": "ethereum",
  "devdoc": {
    "kind": "dev",
    "methods": {},
    "version": 1
  },
  "userdoc": {
    "kind": "user",
    "methods": {},
    "version": 1
  }
}